:100000009CC20000D4C20000D2C20000D0C20000D6
:10001000CEC20000CCC20000CAC20000C8C20000AC
:10002000C6C20000C4C200000C94C10EC0C20000D1
:10003000BEC20000BCC20000BAC20000B8C20000CC
:10004000B6C20000B4C20000B2C20000B0C20000DC
:10005000AEC200000C949D09AAC20000A8C2000014
:10006000A6C20000A4C20000A2C20000A0C20000FC
:100070009EC200009CC200009AC2000098C200000C
:1000800096C2000094C2000092C2000090C200001C
:100090008EC200008CC200008AC2000088C200002C
:1000A00086C2000084C2000082C200000847495690
:1000B000455F524F43000D474956455F4C49444FF9
:1000C00043414E45000D474956455F50524F504FF2
:1000D000464F4C0010474956455F414E54494249EE
:1000E0004F54494353000D474956455F4B455441D2
:1000F0004D494E45000D474956455F46454E5441D2
:100100004E594C000D474956455F4D4F5250484996
:100110004E45000E474956455F45544F4D494441B1
:1001200054450004484541540004424C49500006DF
:10013000616972776179000D41524D5F525F495696
:100140005F43415448000E41524D5F4C5F4553435D
:100150004841525F35000E41524D5F4C5F4553435D
:100160004841525F34000E41524D5F4C5F4553434E
:100170004841525F33000E41524D5F4C5F4553433F
:100180004841525F32000E41524D5F4C5F45534330
:100190004841525F3100024F3200164D41534B5FD0
:1001A000485950455256454E54494C4154455F506C
:1001B00054001C4D41494E5354454D5F56454E54D5
:1001C000494C4154494F4E5F45545F545542450098
:1001D0000742564D5F4F4646001356454E54494C14
:1001E0004154494F4E5F45545F54554245001141BB
:1001F00043543D3138732C50524F583D3139732C94
:10020000002C034C005500460041002000470065CB
:10021000006E00650072006900630020004800491C
:100220000044002000440065006D006F00000018CD
:10023000034400650061006E002000430061006D12
:100240000065007200610000000403090409022235
:1002500000010100C0320904000001030000000990
:10026000211101000122CA010705810308000512BE
:1002700001100100000008EB034020010001020012
:10028000010600FF0901A10185010902150026FFF1
:1002900000750895FEB10285020902150026FF00CF
:1002A000750895FFB10285030905150026FF007545
:1002B00008950C810085040906150026FF007508C5
:1002C0009508B10285050907150026FF00750895F8
:1002D0000C810285060908150026FF007508951097
:1002E000B10285070909150026FF007508950D81E3
:1002F0000285FF090A150026FF0075089508B1025E
:1003000085FE090B150026FF0075089508B10285CA
:1003100008090C150026FF00750895048102850860
:10032000090C150026FF007508950491028509093E
:100330000C150026FF007508950481028509090C3B
:10034000150026FF00750895049102850A090C1511
:100350000026FF00750895048102850A090C150026
:1003600026FF00750895049102850B090C150026DF
:10037000FF00750895048102850B090C150026FF06
:1003800000750895049102850C090C150026FF00E4
:10039000750895048102850C090C150026FF00756F
:1003A0000895049102850D090C150026FF007508BB
:1003B00095048102850D090C150026FF007508952E
:1003C000049102850E090C150026FF00750895049E
:1003D0008102850E090C150026FF00750895049111
:1003E00002850F0900150026FF0075089504B1026B
:1003F0008510090D150026FF0075089540810285BE
:1004000011090D150026FF0075089501910285124E
:10041000090E150026FF00750895FF810285120957
:100420000E150026FF00750895FF91028513090F30
:10043000150026FF00750895FF81028513090F1529
:100440000026FF00750895FF9102C0024F32000A96
:1004500054454D505F50524F4245000850554C5343
:10046000455F4F58000742505F43554646000345DD
:1004700043470006464C554944530003524F43003E
:10048000084C49444F43414E45000850524F504F8D
:10049000464F4C000B414E544942494F5449435337
:1004A00000084B4554414D494E45000846454E54C1
:1004B000414E594C00084D4F525048494E45000599
:1004C0005355434353000945544F4D494441544506
:1004D000000456454E54000342564D000D41524D06
:1004E0005F525F49565F434154480003524F4300F7
:1004F000084C49444F43414E45000850524F504F1D
:10050000464F4C000B414E544942494F54494353C6
:1005100000084B4554414D494E45000846454E5450
:10052000414E594C00084D4F525048494E45000924
:1005300045544F4D49444154450011241FBECFEF4F
:10054000DAE0DEBFCDBF04B603FE1BC080913806E3
:1005500090913906A0913A06B0913B068A3C2CEA6C
:10056000920722E4A2072CEDB20759F41092380644
:100570001092390610923A0610923B06E0E0F8E33A
:10058000099513E0A0E0B1E0E2E5F9E202C00590D0
:100590000D92AC33B107D9F716E0ACE3B3E001C07C
:1005A0001D92A833B107E1F769D10C94A71428CDA7
:1005B00025B1982F917090952160922395B92BB118
:1005C000982F90729095206292239BB998B1807871
:1005D0009F77892B88B908958091E000816080938E
:1005E000E000F8948FEF9DE3A9E481509040A04093
:1005F000E1F700C000008AEC9CEAA2E4BCED809325
:10060000380690933906A0933A06B0933B062DE046
:1006100088E190E00FB6F894A895809360000FBE33
:1006200020936000FFCF982F9F7185FF04C08091B9
:100630007B00806203C080917B008F7D80937B0074
:1006400080917C00807E892B80937C0080917A0051
:10065000806480937A0080917A0086FDFCCF80913F
:10066000780090917900392F20E090E0822B932B35
:1006700008950F931F93CF93DF9303E815E0C0E035
:10068000D0E0CE01D0DFF801819391938F012196C4
:10069000C930D105B1F7DF91CF911F910F91089526
:1006A0000F931F93CF93DF9380910A0190910B01D9
:1006B00011E020919105309192052817390708F42F
:1006C00010E001E020918D0530918E052817390743
:1006D00008F400E080915005C1E0D0E0882331F4B7
:1006E00080916405882311F4C0E0D0E04BD6DC0192
:1006F000CB0120913C03233029F5112309F080C060
:10070000002309F07DC020916405222309F078C000
:1007100040914C0450914D0460914E0470914F04EF
:1007200048575C4E6F4F7F4F84179507A607B70752
:1007300008F46EC081E0809363051092500510921A
:100740003C0366C0209709F463C02150223040F179
:10075000112319F4002391F45BC0002309F04AC06F
:1007600080937D0590937E05A0937F05B0938005CF
:1007700082E080933C038CE695E00DC080937D057C
:1007800090937E05A0937F05B093800581E08093D0
:100790003C0381E895E0909309018093080138C0FB
:1007A00040917D0550917E0560917F057091800597
:1007B00048515C4F6F4F7F4F84179507A607B707C7
:1007C00060F0112319F4002321F40BC0002391F4ED
:1007D00014C021E02093810510C0112349F40023A7
:1007E000B9F4E0910801F091090121E0208305C0EE
:1007F000002371F021E02093510523E020933C0376
:1008000080934C0490934D04A0934E04B0934F04F6
:10081000DF91CF911F910F91089584B7877F84BF97
:1008200088E10FB6F89480936000109260000FBECC
:10083000EAE7F0E080818760808380818068808340
:1008400080E480937C0090E080E80FB6F894809379
:100850006100909361000FBE808180648083769AEE
:1008600084B18E6084B984B1806C84B9209A289A4E
:10087000559A5D9A3F9A47980C94A40ECEDF4FD5B7
:1008800081E096DE789486EA91E00E9462120E94EE
:10089000F310EFDE05DFF7CF80EA8ACE81E088CE65
:1008A00086EA91E00E9449129091E2009460909350
:1008B000E200882311F080E201C081E879CE86EA67
:1008C00091E00C940F118091B4019091B5010097C3
:1008D00029F001979093B5018093B40108958F9208
:1008E0009F92AF92BF92CF92DF92EF92FF920F93BF
:1008F0001F93CF93DF93CDB7DEB72B970FB6F89446
:10090000DEBF0FBECDBF5B0179014801442309F46E
:100910005EC0423009F065C3DB018C91843031F454
:1009200040D5870127D688E090E018C08630D9F4FA
:1009300056E9C52E51E0D52E8901D6016D917D91E4
:100940008D919D916D01A801AAD40C5F1F4FB6EA4D
:10095000CB16B1E0DB0689F780E190E0F4019183EA
:10096000808381E03FC38130A9F4D90181E18D9377
:1009700080E090E00196FC01E251FE4FE491ED939E
:1009800081319105B9F78EEF90E0D40111969C93D7
:100990008E93E7CF823089F4D90186E08D9380E091
:1009A00090E00196FC01E15DFE4FE491ED9386300D
:1009B0009105B9F78FEF90E0D1CF8F3009F011C3D7
:1009C00080913C03D9018C9384E090E0C7CFDB0198
:1009D0000C910730A1F480911201909113010097BE
:1009E00009F4FFC28CE091E008D4B70134D48DE063
:1009F00090E0F40191838083D5010C93B2CF033052
:100A000009F03FC0FE013496A0E0B1E088E00D900F
:100A100001928150E1F7CE010496B7019E01245F57
:100A20003F4FDC01ED91FD91CD01EE0FFF1FED5722
:100A3000FA4F4181DB0111964C93119740814C9301
:100A40006E5F7F4F8217930761F782E5C82E85E0BE
:100A5000D82E8701085F1F4FF60161917191819136
:100A600091916F01A8011BD40C5F1F4FF2E6CF16C6
:100A7000F5E0DF0689F783E0D5018C9388E190E00B
:100A80006DCF002309F0ADC280916705882309F47A
:100A90003AC0E091E402F091E5028081843409F0EB
:100AA000A0C28181863109F09CC21B821A82CF01CB
:100AB0000A96BE016F5F7F4FAE014E5F5F4FC0D59C
:100AC000882309F48EC28A819B81009709F489C228
:100AD0001ED699818A812B81D7019D93E82FF22F11
:100AE00003C024912D9331962E2F281B2917C8F36C
:100AF00083E1D5018C938FEF90E0F40191838083A3
:100B0000109267052ECF809176058823C9F0D90110
:100B100083E18D9380E090E00196FC01E752FE4F67
:100B2000E491ED9383319105B9F782E1D5018C937E
:100B30008FEF90E0F401918380831092760511CFBE
:100B4000809163058823C9F0D90187E08D9380E007
:100B500090E00196FC01E053FE4FE491ED93873065
:100B60009105B9F782E1D5018C938FEF90E0F40104
:100B70009183808310926305F4CE80918105882350
:100B8000C9F0D9018CE18D9380E090E00196FC01E1
:100B9000EE54FE4FE491ED938C319105B9F782E16B
:100BA000D5018C938FEF90E0F401918380831092B4
:100BB0008105D7CE809151058823C9F0D90186E1FE
:100BC0008D9380E090E00196FC01E656FE4FE491A3
:100BD000ED9386319105B9F782E1D5018C938FEFC2
:100BE00090E0F4019183808310925105BACE8091F8
:100BF0007B058823C9F082E0D9018C93E7E9F1E015
:100C0000849111968C9311973196E4911296EC93FE
:100C100082E1FB0180838FEF90E0D40111969C93D9
:100C20008E9310927B059DCE809171058823D1F023
:100C3000D90184E08D9380E090E00196FC01E75DAE
:100C4000FE4FE491ED9384309105B9F782E1F5010F
:100C500080838FEF90E0D40111969C938E93109235
:100C600071057FCE809166058823D1F0D90184E09B
:100C70008D9380E090E00196FC01ED5DFE4FE491E4
:100C8000ED9384309105B9F782E1F50180838FEF10
:100C900090E0D40111969C938E931092660561CEDC
:100CA00080916D058823D1F0D9018EE08D9380E08D
:100CB00090E00196FC01ED5EFE4FE491ED938E30E5
:100CC0009105B9F782E1F50180838FEF90E0D401BF
:100CD00011969C938E9310926D0543CE8091700572
:100CE0008823D1F0D9018DE08D9380E090E00196CA
:100CF000FC01EC5FFE4FE491ED938D309105B9F767
:100D000082E1F50180838FEF90E0D40111969C93EE
:100D10008E931092700525CE80917A058823D1F0AC
:100D2000D9018DE08D9380E090E00196FC01EB50BD
:100D3000FF4FE491ED938D309105B9F782E1F50114
:100D400080838FEF90E0D40111969C938E93109244
:100D50007A0507CE809162058823D1F0D9018DE014
:100D60008D9380E090E00196FC01EA51FF4FE49101
:100D7000ED938D309105B9F782E1F50180838FEF16
:100D800090E0D40111969C938E9310926205E9CD68
:100D900080917C058823D1F0D90180E18D9380E09A
:100DA00090E00196FC01EC52FF4FE491ED9380310D
:100DB0009105B9F782E1F50180838FEF90E0D401CE
:100DC00011969C938E9310927C05CBCD80917405E7
:100DD0008823D1F0D9018DE08D9380E090E00196D9
:100DE000FC01EB53FF4FE491ED938D309105B9F782
:100DF00082E1F50180838FEF90E0D40111969C93FE
:100E00008E9310927405ADCD809182058823D1F028
:100E1000D9018DE08D9380E090E00196FC01EA54C9
:100E2000FF4FE491ED938D309105B9F782E1F50123
:100E300080838FEF90E0D40111969C938E93109253
:100E400082058FCD809173058823D1F0D90188E088
:100E50008D9380E090E00196FC01E455FF4FE49112
:100E6000ED9388309105B9F782E1F50180838FEF2A
:100E700090E0D40111969C938E931092730571CDDE
:100E8000809165058130D9F4D9018EE08D9380E0A1
:100E900090E00196FC01EA57FE4FE491ED938E300D
:100EA0009105B9F782E1F50180838FEF90E0D401DD
:100EB00011969C938E9382E08093650552CD80912C
:100EC00077058130D9F4D9018EE08D9380E090E0F0
:100ED0000196FC01EA58FE4FE491ED938E309105A6
:100EE000B9F782E1F50180838FEF90E0D40111968C
:100EF0009C938E9382E08093770533CD8091750526
:100F00008130D9F4D9018EE08D9380E090E0019694
:100F1000FC01EA59FE4FE491ED938E309105B9F74B
:100F200082E1F50180838FEF90E0D40111969C93CC
:100F30008E9382E08093750514CD809150048130AA
:100F4000D9F4D9018EE08D9380E090E00196FC0108
:100F5000EA5AFE4FE491ED938E309105B9F782E1A4
:100F6000F50180838FEF90E0D40111969C938E93CE
:100F700082E080935004F5CC809172058130D9F4E1
:100F8000D9018EE08D9380E090E00196FC01EA5B50
:100F9000FE4FE491ED938E309105B9F782E1F501B2
:100FA00080838FEF90E0D40111969C938E9382E022
:100FB00080937205D6CC8091120190911301009715
:100FC00081F08CE091E019D1B70145D18DE090E03E
:100FD000F4019183808387E0D5018C9381E8E8DA7E
:100FE000C0CC80E02B960FB6F894DEBF0FBECDBF0D
:100FF000DF91CF911F910F91FF90EF90DF90CF90F5
:10100000BF90AF909F908F9008950F931F93CF93B1
:10101000DF93E9014130B1F1423009F0ACC06230F8
:1010200051F481E080933F03888180933E0389815E
:1010300080933D03A0C0643021F4C901C4D22AD2F8
:101040009AC0663091F406E911E0CE0146D1DC0188
:10105000CB01F80181939193A193B1938F012496D1
:10106000F1E0063A1F0789F786C06F3F19F481EA5D
:101070009FDAB2DA6F3009F07EC056D381E08093F8
:10108000660579C0613161F0623120F46D3009F09C
:1010900072C056C0623171F1633109F06CC006C094
:1010A0008881882309F067C0B5D265C089818635FB
:1010B00061F48A818534D9F48B818E34C1F48C81BA
:1010C0008435A9F44093640512C0823449F48A81BE
:1010D000863569F48B818D3451F44093500507C0F7
:1010E0008F3429F48A81823311F440937B05CE0139
:1010F00047D341C08981833501F58A818435E9F47C
:101100008B818F34D1F48C818035B9F40FD3109258
:101110003C03109250051092640510927D051092C8
:101120007E0510927F051092800510924C0410925B
:101130004D0410924E0410924F04CE018AD31BC06E
:10114000C901CBD020E030E040E752E40E942913EF
:101150009B01AC0160E070E080E89FE30E942913EE
:1011600020E030E04AE754E40E9413140E949113F7
:10117000DC01CB01DED2DF91CF911F910F91089559
:10118000933089F0943028F4913049F1923061F530
:1011900005C09132D1F0923239F51CC082E290E064
:1011A000EDE4F2E025C0813041F0813018F082306A
:1011B000D9F406C0E9E4F2E005C0EFE2F2E002C0D3
:1011C000E1E0F2E0849190E013C089E090E0EFE587
:1011D000F2E00EC08AEC91E0E1E8F2E009C082E1C1
:1011E00090E0EFE6F2E004C080E090E0E0E0F0E0C4
:1011F000DA011196FC93EE930895CF93DF93FC01EF
:101200002681378121153105D9F0C481D581CE01E0
:101210000196608171810E947614958384832150A8
:101220003040378326832DE030E0C29FC001C39F4A
:10123000900DD29F900D112408968E0F9F1F02C013
:1012400080E090E0DF91CF910895FA01908381834F
:10125000728363830895EF92FF920F931F93CF934E
:10126000DF93EC017B01288139814A815B816C81AC
:101270007D818E819F8187017DD1688579858A8571
:101280009B85A701485F5F4FE0DF8C85F70184876E
:10129000DF91CF911F910F91FF90EF900895CF9321
:1012A000DF9300D000D0CDB7DEB7DC01CB0189835E
:1012B0009A83AB83BC83DE011196FA0180E090E053
:1012C0002D912193019684309105D1F70F900F90C5
:1012D0000F900F90DF91CF910895CF93DF9300D0BF
:1012E00000D0CDB7DEB7FC01DE01119680E090E0C2
:1012F00021912D93019684309105D1F759814A812E
:101300003B812C81852F942FA32FB22FBC01CD01BF
:101310000F900F900F900F90DF91CF91089584B5AB
:10132000826084BDEEE6F0E080818260808389EF98
:1013300087BD85B5836085BD08951F920F920FB656
:101340000F9211248F939F93AF93BF938091470483
:1013500090914804A0914904B0914A040196A11DBE
:10136000B11D8093470490934804A0934904B0931F
:101370004A04BF91AF919F918F910F900FBE0F9034
:101380001F9018950F931F930091470410914804E4
:101390002091490430914A04B801C9011F910F916D
:1013A0000895DF92EF92FF920F931F93CF93DF93F5
:1013B00000914704109148042091490430914A0457
:1013C00040E050E0BA01F0903F04B0914004A09199
:1013D0004104D09042048091430490914404E090F1
:1013E0004504E0914604F00ED1E0F01608F0D0E09C
:1013F000B10FC1E0B11708F0C0E0DB0FF1E0DB177F
:1014000008F0F0E0CF2BA20FB1E0A21708F0B0E097
:10141000CA0FF1E0CA1708F0F0E0BF2BF32FFD0D63
:10142000A1E0F31708F0A0E0BF0FDD24D394BF17AD
:1014300008F0DD24AD29F1E0841708F0F0E0A80FF2
:10144000DD24D394A81708F0DD24FD2981E0951749
:1014500008F080E0F90FDD24D394F91708F0DD24BB
:101460008D2991E0E61608F090E08E0D21E08E15B2
:1014700008F020E0922B2F2D3D2F4C2F5B2F6A2F51
:101480007F2F9E0FDF91CF911F910F91FF90EF90D3
:10149000DF900895DF92EF92FF920F931F93CF9307
:1014A000DF93F901DA01EB01009147041091480440
:1014B0002091490430914A04DE2ED01AEE24E394A0
:1014C000ED1508F0EE24EF2FE11BFF24F394FE1737
:1014D00008F0FF24FE2FFE19EF2EF1E0EE1508F0C4
:1014E000F0E0FF2AFA2FF21BE1E0AF1708F0E0E08E
:1014F000AF2FAF19FF24F394FA1708F0FF24EF2958
:10150000FB2FF31B3F2F21E0BF1708F020E0532FE4
:101510005E1B41E0351708F040E0242B4C2F421BA6
:1015200021E0C41708F020E03D2F321B21E0D31743
:1015300008F020E0682F621B262F61E0821708F078
:1015400060E0961BD0923F04E0924004A0934104D7
:101550005093420440934304309344042093450441
:1015600090934604DF91CF911F910F91FF90EF90E0
:10157000DF9008950F931F93CF93DF93CDB7DEB71E
:1015800028970FB6F894DEBF0FBECDBF29833A83EC
:101590004B835C836D837E838F839887DE011996EE
:1015A000F801CE0101962E912193A817B907D9F71A
:1015B00028960FB6F894DEBF0FBECDBFDF91CF9156
:1015C0001F910F910895CF93DF93CDB7DEB7289782
:1015D0000FB6F894DEBF0FBECDBFDC011896FE013A
:1015E000319680E090E02E9121930196883091050C
:1015F000D1F729813A814B815C816D817E818F8118
:10160000988528960FB6F894DEBF0FBECDBFDF9148
:10161000CF9108958091C80085FFFCCF83E480932B
:10162000CE008091C80085FFFCCF83E08093CE0080
:101630008091C80085FFFCCF81E08093CE000895A3
:101640004F925F926F927F928F929F92AF92BF92D2
:10165000CF92DF92EF92FF920F931F93CF93DF937E
:101660005C013B012A018EDE6B017C0100E010E091
:1016700024E1822E912C089DE001099DD00D189D3A
:10168000D00D1124CA54DE4FC501BE014CE050E01C
:101690000E948A14009721F588899989AA89BB89B3
:1016A000A7019601281B390B4A0B5B0BDA01C90114
:1016B000C88AD98AEA8AFB8A893833E1930730E0FD
:1016C000A30730E0B30750F0EC85FD85E491D3012A
:1016D000EC938E859F85F2019183808381E006C023
:1016E0000F5F1F4F0F30110531F680E0DF91CF9172
:1016F0001F910F91FF90EF90DF90CF90BF90AF9030
:101700009F908F907F906F905F904F9008953ADEFA
:10171000DC01CB018093DF059093E005A093E10508
:10172000B093E2052F9A08952F9A089510922306F8
:10173000089521E0209323068534910514F484E470
:1017400090E09093E7028093E6020895DC0180E048
:1017500090E00AC02D91FB01E80FF91FE4912E17CC
:1017600048F0E21750F00196841795079CF380E04B
:1017700090E008958FEF9FEF089581E090E0089545
:101780000F931F93CF93DF93EC011881412F1A30F1
:1017900008F049E0CE016FE275E050E0D7DF009736
:1017A00011F481E04FC0012F193008F008E0CE019C
:1017B00065E275E0402F50E0C9DF009711F482E048
:1017C00041C0CE016BE175E0402F50E0BFDF0097D4
:1017D00011F483E037C0CE0161E175E0402F50E0A5
:1017E000B5DF009711F484E02DC0412F1C3008F0C4
:1017F0004BE0CE0164E075E050E0A8DF009711F403
:1018000085E020C0CE016AEF74E0402F50E09EDFFB
:10181000009711F486E016C0CE0160EF74E0402F0F
:1018200050E094DF009711F487E00CC0412F143092
:1018300008F043E0CE016BEE74E050E087DF0097E4
:1018400019F488E080934B04DF91CF911F910F91A1
:1018500008956CED74E04DE050E078DF009719F4E6
:1018600081E0809328060895AF92BF92CF92DF92D5
:10187000EF92FF921F93CF93DF93EC017B016A01FC
:10188000F0D1182F8823A9F5C114D10439F0F6013D
:1018900020813181E21AF30AC20FD31FAA24BB248C
:1018A00023C08091E80085FD16C08091E8008E7706
:1018B0008093E80098D4C114D10449F0F6018081E6
:1018C00091818A0D9B1D9183808315E012C0C9D13F
:1018D000882351F00DC089918093F1000894E108AC
:1018E000F1080894A11CB11CE114F104D1F601C067
:1018F000182F812FDF91CF911F91FF90EF90DF90F4
:10190000CF90BF90AF900895409136065091370622
:101910004617570720F4BA01FC0140E03DC06115AD
:101920007105D1F74091E8004E774093E800F4CF7D
:1019300080912F06882309F447C0853009F446C0FA
:101940008091E80083FD3EC08091E80082FD34C0B4
:101950008091E80080FF20C09091F3008091F20018
:10196000392F20E090E0822B932B06C041914093C9
:10197000F1006150704001966115710519F08830D1
:101980009105A0F341E08830910509F040E0809195
:10199000E8008E778093E8006115710549F64423CD
:1019A00039F60AC080912F06882371F0853071F0D6
:1019B0008091E80083FD0CC08091E80082FFF2CFA7
:1019C00080E0089581E0089582E0089583E008951D
:1019D00081E008956115710529F44091E8004B7785
:1019E0004093E800582F492F2BC080912F06882361
:1019F000D9F18530A9F18091E80083FD33C0809151
:101A0000E80082FFF2CFE52FF42F08C08091F100AB
:101A100081935E2F4F2F6150704069F05E2F4F2FE2
:101A20009091F3008091F200392F20E090E0822B1A
:101A3000932B009759F78091E8008B778093E8000B
:101A40006115710591F606C080912F06882361F01B
:101A5000853061F08091E80080FFF6CF80E0089546
:101A600083E0089581E0089582E0089583E0089579
:101A700040913606509137064617570720F4BA01B1
:101A8000FC0140E03EC061157105D1F74091E800CE
:101A90004E774093E800F4CF80912F06882309F415
:101AA00048C0853009F447C08091E80083FD3FC0FD
:101AB0008091E80082FD35C08091E80080FF21C060
:101AC0009091F3008091F200392F20E090E0822B7A
:101AD000932B07C044914093F100319661507040C0
:101AE00001966115710519F08830910598F341E070
:101AF0008830910509F040E08091E8008E7780936E
:101B0000E8006115710541F6442331F60AC0809161
:101B10002F06882371F0853071F08091E80083FDF5
:101B20000CC08091E80082FFF2CF80E0089581E050
:101B3000089582E0089583E0089581E00895982F44
:101B40002AC09093E900981739F07091EC00209129
:101B5000ED005091F00003C0242F762F50E021FFBC
:101B600019C03091EB003E7F3093EB003091ED00D7
:101B70003D7F3093ED003091EB0031603093EB000E
:101B80007093EC002093ED005093F0002091EE0054
:101B900027FF08C09F5F9730A0F28F708093E90005
:101BA00081E0089580E008950F931F93CF93DF9312
:101BB000162FEC0100E02AC09881992329F16B814E
:101BC000E981FA812C81892F8F70873018F5629511
:101BD000660F660F607C991F9927991F692B223029
:101BE00010F096E001C092E028E030E040E003C051
:101BF0004F5F220F331F2E173F07D0F34295407FD0
:101C0000492B9DDF882331F00F5F25960117A1F640
:101C100081E001C080E0DF91CF911F910F91089585
:101C20008091300687FF13C004C080912F0688235F
:101C3000B9F08091E80082FFF8CF8091E8008B77BF
:101C40008093E800089580912F06882349F08091C1
:101C5000E80080FFF8CF8091E8008E778093E8005D
:101C600008958091E4009091E50045E601C0C90126
:101C70002091EC0020FF23C02091E80020FD15C03A
:101C800020912F06222399F0253099F02091EB0026
:101C900025FD11C02091E4003091E5002817390797
:101CA00039F3415021F784E0089580E0089582E0FF
:101CB000089583E0089581E0089580E008952091DB
:101CC000E80022FFDDCFF9CF0F931F93CF93DF936F
:101CD0004BD052D0C8EDD0E088818F77888388813F
:101CE0008068888388818F7D888319BC10922F0635
:101CF00010922B0610922D0610922C0600EE10E08A
:101D0000F80180818B7F808388818160888380E077
:101D100060E042E014DFE1EEF0E080818E7F8083BE
:101D2000E2EEF0E080818160808380818860808342
:101D3000F80180818E7F8083888180618883DF9134
:101D4000CF911F910F910895E8EDF0E080818F7E93
:101D50008083E7EDF0E080818160808384E082BF52
:101D600081E080932E06B0CFE8EDF0E080818E7F99
:101D700080831092E20008951092DA001092E10040
:101D800008951F920F920FB60F9211242F933F9335
:101D90004F935F936F937F938F939F93AF93BF9373
:101DA000EF93FF938091E10082FF0BC08091E200EE
:101DB00082FF07C08091E1008B7F8093E1000E9449
:101DC00063048091DA0080FF1FC08091D80080FFFB
:101DD0001BC08091DA008E7F8093DA008091D90059
:101DE00080FF0DC080E189BD82E189BD09B400FE9C
:101DF000FDCF81E080932F060E944C0405C019BCE2
:101E000010922F060E944E048091E10080FF18C0BE
:101E10008091E20080FF14C08091E2008E7F809369
:101E2000E2008091E20080618093E2008091D8001E
:101E300080628093D80019BC85E080932F06D2D1B0
:101E40008091E10084FF2FC08091E20084FF2BC0CD
:101E500080E189BD82E189BD09B400FEFDCF80919A
:101E6000D8008F7D8093D8008091E1008F7E809391
:101E7000E1008091E2008F7E8093E2008091E20099
:101E800081608093E20080912B06882311F084E02A
:101E900007C08091E30087FF02C083E001C081E0BA
:101EA00080932F069FD18091E10083FF22C0809113
:101EB000E20083FF1EC08091E100877F8093E100F4
:101EC00082E080932F0610922B068091E1008E7F96
:101ED0008093E1008091E2008E7F8093E200809108
:101EE000E20080618093E20080E060E042E027DE73
:101EF00079D1FF91EF91BF91AF919F918F917F9198
:101F00006F915F914F913F912F910F900FBE0F9066
:101F10001F9018951F93CF93DF93CDB7DEB7AC9783
:101F20000FB6F894DEBF0FBECDBF80E0E0E3F6E071
:101F30009091F10091938F5F8830D1F70E945F04F8
:101F40008091E80083FF36C18091300620913106F0
:101F5000253009F484C0263040F42130A1F121302D
:101F600070F0233009F026C12EC0283009F4F3C0E8
:101F7000293009F402C1263009F01CC193C0803811
:101F800021F0823809F016C108C080912C0690918A
:101F90002D06992371F082600CC0809134068F70F9
:101FA0008093E9009091EB0081E095FF80E0109232
:101FB000E9009091E800977F9093E8008093F1000A
:101FC0001092F100D3C0882319F0823009F0F2C0DA
:101FD00090E08F719070009729F08230910509F0A0
:101FE000E9C00BC080913206813009F0E3C0233094
:101FF00009F080E080932D062CC080913206882362
:1020000041F5209134062F7009F4D4C02093E900E3
:102010008091EB0080FF1DC080913106833021F458
:102020008091EB00806213C08091EB00806180930F
:10203000EB0081E090E002C0880F991F2A95E2F73B
:102040008093EA001092EA008091EB008860809310
:10205000EB001092E9008091E800877F8AC0882316
:1020600009F0A8C0109132061F778091E3008078B4
:10207000812B8093E3008091E800877F8093E800C4
:10208000CFDD8091E80080FFFCCF8091E300806885
:102090008093E300112311F083E001C082E080937C
:1020A0002F0688C08058823008F084C080913206A4
:1020B0009091330623E08C3D9207A9F583E08C8351
:1020C0008AE28B835FB7F894DE01139680E090E09C
:1020D0004EE061E2E42FF0E060935700E49180FF6E
:1020E00003C0E295EF704F5FEF702E2F30E0EA30C3
:1020F00018F0295C3F4F02C0205D3F4F13963C9380
:102100002E931297019612968431910519F75FBFAD
:102110008091E800877F8093E800CE0103966AE211
:1021200070E0F2DB12C060913406AE014F5F5F4F8A
:1021300027D8BC01009709F43DC08091E800877F53
:102140008093E80089819A8193DC8091E8008B7705
:102150008093E8002FC0803869F58091E800877F80
:102160008093E80080912B068093F1008091E80035
:102170008E778093E80054DD1DC08823D9F49091B8
:1021800032069230B8F48091E800877F8093E800AF
:1021900090932B0645DD80912B06882321F48091B6
:1021A000E30087FF02C084E001C081E080932F0636
:1021B0000E9450048091E80083FF0AC08091E800EB
:1021C000877F8093E8008091EB0080628093EB0032
:1021D000AC960FB6F894DEBF0FBECDBFDF91CF91A6
:1021E0001F9108950895CF9380912F068823A9F019
:1021F0008091E9008F709091EC0090FF02C0C0E8E0
:1022000001C0C0E0C82B1092E9008091E80083FF74
:1022100001C080DECF70C093E900CF9108956F9226
:102220007F928F929F92AF92BF92CF92DF92EF9266
:10223000FF920F931F93CF93DF9300D00F92CDB7F0
:10224000DEB77C016DB67EB68091E80083FF0AC1DF
:10225000F701808190E020913406309135062817EF
:10226000390709F0FFC080913106833009F4A1C01D
:10227000843030F4813071F0823009F0F3C0D6C080
:102280008A3009F4BBC08B3009F4A4C0893009F04E
:10229000E9C051C080913006813A09F0E3C09DB693
:1022A0008EB61B821A828091320600913306898392
:1022B000F70140858DB79EB7841B91090FB6F8943E
:1022C0009EBF0FBE8DBFCDB6DEB60894C11CD11C1B
:1022D000BC2CAD2CC60160E070E050E031D3402F43
:1022E0004150C701BE016F5F7F4F96018E010E5FA7
:1022F0001F4F0E946F04F70186819781009721F09C
:102300004085B60150E013D31092E9008091E800B7
:10231000877F8093E8008981882311F08093F10002
:102320006A817B818B2D9A2DEFDA8091E8008B7783
:102330008093E8003BC080913006813209F092C062
:102340009DB68EB60091360610913706C0903206C3
:10235000D09033068DB79EB7801B910B0FB6F894C3
:102360009EBF0FBE8DBFADB6BEB60894A11CB11CFA
:102370008091E800877F8093E800C501B8012ADBDF
:102380008091E8008E778093E80081E090E0CC2097
:1023900011F480E090E04D2D41509501280F391F38
:1023A000081B190BC7016C2D0E9405089DBE8EBE2F
:1023B00059C080913006813A09F054C08091E800FC
:1023C000877F8093E8008091E80080FFFCCFF701D1
:1023D000818540C080913006813209F043C08091F0
:1023E000E800877F8093E8001BDC9091320681E053
:1023F000992309F480E0F701818734C08091300689
:10240000813281F58091E800877F8093E80008DCC5
:102410008091320690913306807036E096958795CC
:102420003A95E1F7F701958784871CC080913006C3
:10243000813AC1F48091E800877F8093E800809121
:10244000E80080FFFCCFF7018485958596958795F8
:10245000969587958093F1008091E8008E77809320
:10246000E800DEDB0FB6F8947EBE0FBE6DBE0F90A7
:102470000F900F90DF91CF911F910F91FF90EF90F0
:10248000DF90CF90BF90AF909F908F907F906F9094
:102490000895CF93DF93FC010996DC0187E0ED01FD
:1024A00019928A95E9F781E0818784EF91E0958719
:1024B000848783E08483CF01019661E075DBDF913F
:1024C000CF9108954F925F926F927F928F929F92D9
:1024D000AF92BF92CF92DF92EF92FF920F931F9332
:1024E000CF93DF9300D00F92CDB7DEB77C014DB60E
:1024F0005EB680912F06843009F092C08091E4008E
:102500009091E500F701228533852817390709F4F2
:1025100087C081818F708093E9008091E80085FFFA
:102520007FC07DB66EB640858DB79EB7841B91097E
:102530000FB6F8949EBF0FBE8DBF0DB71EB70F5FCD
:102540001F4F19821B821A82B02EA12EC80160E093
:1025500070E050E0F5D1C701BE016F5F7F4F40E0F2
:1025600098018E010E5F1F4F0E946F04182FF70114
:1025700084859585009759F081E090E02685378520
:102580002115310511F080E090E04C0102C0882453
:102590009924F701C680D780C114D10491F04A81F3
:1025A0005B818B2D9A2DB601B5D101E0009709F41E
:1025B00000E0F7014085C6016B2D7A2D50E0B7D1C0
:1025C00001C000E08A819B81009709F1112329F461
:1025D000002319F481149104D1F0F70184859585C5
:1025E0009787868781818F708093E900898188230E
:1025F00011F08093F1006A817B818B2D9A2D40E050
:1026000050E032D98091E8008E778093E800809185
:10261000E4009091E500F701938782877DBE6EBE4E
:102620000FB6F8945EBE0FBE4DBE0F900F900F9088
:10263000DF91CF911F910F91FF90EF90DF90CF909E
:10264000BF90AF909F908F907F906F905F904F90D2
:1026500008950CD0AEC0A6D040F09DD030F021F44B
:102660005F3F19F08FC05111D8C092C0B3D098F31A
:102670009923C9F35523B1F3951B550BBB27AA2703
:1026800062177307840738F09F5F5F4F220F331F75
:10269000441FAA1FA9F333D00E2E3AF0E0E830D041
:1026A00091505040E695001CCAF729D0FE2F27D044
:1026B000660F771F881FBB1F261737074807AB0712
:1026C000B0E809F0BB0B802DBF01FF2793585F4F87
:1026D0002AF09E3F510568F055C09FC05F3FECF364
:1026E000983EDCF3869577956795B795F7959F5F4C
:1026F000C9F7880F911D9695879597F90895E1E0A0
:10270000660F771F881FBB1F621773078407BA07FE
:1027100020F0621B730B840BBA0BEE1F88F7E09559
:10272000089504D06894B11178C008955BD088F002
:102730009F5790F0B92F9927B751A0F0D1F0660FAD
:10274000771F881F991F1AF0BA95C9F712C0B130C8
:1027500081F062D0B1E008955FC0672F782F88279D
:10276000B85F39F0B93FCCF3869577956795B39507
:10277000D9F73EF490958095709561957F4F8F4F76
:102780009F4F089597F99F6780E870E060E0089593
:102790009FEF80EC089500240A9416161706180679
:1027A0000906089500240A94121613061406050655
:1027B0000895092E0394000C11F4882352F0BB0FE6
:1027C00040F4BF2B11F460FF04C06F5F7F4F8F4F49
:1027D0009F4F089557FD9058440F551F59F05F3F84
:1027E00071F04795880F97FB991F61F09F3F79F033
:1027F00087950895121613061406551FF2CF4695B5
:10280000F1DF08C0161617061806991FF1CF869536
:102810007105610508940895E894BB27662777271A
:10282000CB0197F908950BD0C4CFB5DF28F0BADFFC
:1028300018F0952309F0A6CFABCF1124EECFCADF55
:10284000A0F3959FD1F3950F50E0551F629FF001C3
:10285000729FBB27F00DB11D639FAA27F00DB11D1C
:10286000AA1F649F6627B00DA11D661F829F2227A5
:10287000B00DA11D621F739FB00DA11D621F839F2C
:10288000A00D611D221F749F3327A00D611D231F02
:10289000849F600D211D822F762F6A2F11249F5750
:1028A00050408AF0E1F088234AF0EE0FFF1FBB1F73
:1028B000661F771F881F91505040A9F79E3F510512
:1028C00070F060CFAACF5F3FECF3983EDCF38695C3
:1028D00077956795B795F795E7959F5FC1F7FE2BBD
:1028E000880F911D9695879597F90895AA1BBB1B94
:1028F00051E107C0AA1FBB1FA617B70710F0A61B00
:10290000B70B881F991F5A95A9F780959095BC0120
:10291000CD010895FB01DC0104C08D910190801967
:1029200021F441505040C8F7881B990B0895FB01D2
:10293000DC0102C001900D9241505040D8F708953B
:10294000DC0101C06D9341505040E0F70895F894C8
:02295000FFCFB7
:1029520001000400060007006C05F9010A000000EE
:102962000000000000000000000000000000000065
:102972000000000000000000000000000000000055
:102982000000000000000000000000000000000045
:102992000000000000000000000000000000000035
:1029A2000000000000000000000000000000000025
:1029B2000000000000000000000000000000000015
:1029C2000000000000000000000000000000000005
:1029D20000000000000000000000000000000000F5
:1029E20000000000000000004843000048430000CF
:1029F2004843000048430081080000014003FF00F3
:102A0200000000000000E280681000000039601140
:102A12009746D704D80400000000AD46060246607F
:102A2200AF7960000068C604C70400000000AD462C
:102A320006024660937860000064BF04C004000090
:102A42000000AD4606024660917560000065BF0455
:102A5200C00400000000E280681000000039148CFD
:102A620072E0B504B60400000000AD4606024660FE
:102A72009D7361000066B504B60400000000AD4617
:102A820006024660A57860000067AB04AC04000053
:102A92000000E280681000000039148C72E37304B5
:102AA200740400000000AD4606024660E178600052
:102AB200006D8A048B0400000000AD4606024660E9
:102AC200D57B6000006C7B047C0400000000AD46F6
:102AD20006024660CD756100006B7B047C04000039
:102AE2000000AD4606024660C3766100006A4B04F0
:102AF2004C0400000000E280681000000039148CD1
:102B0200732A6E046F0400000000E2806810000067
:102B12000039148C732D5B045C0400000000AD4688
:102B220006024660E97A6000006E650466040000F1
:102B320000009B05E305A4032A2928272625242330
:102B42002221201F28333E49545F6A76818C97A246
:102B5200ADB8C3CFDAE5F0FBF9EFE5DBD1C7BEB420
:102B6200AAA0968C83796F655B52483E342A202056
:102B72002122232425262728292B2C2DA1200000C1
:0C2B820000000200A101000000000000A3
:00000001FF
