:1000000098C20000D0C20000CEC20000CCC20000E6
:10001000CAC20000C8C20000C6C20000C4C20000BC
:10002000C2C20000C0C200000C94160FBCC2000087
:10003000BAC20000B8C20000B6C20000B4C20000DC
:10004000B2C20000B0C20000AEC20000ACC20000EC
:10005000AAC200000C94F209A6C20000A4C20000CB
:10006000A2C20000A0C200009EC200009CC200000C
:100070009AC2000098C2000096C2000094C200001C
:1000800092C2000090C200008EC200008CC200002C
:100090008AC2000088C2000086C2000084C200003C
:1000A00082C2000080C200007EC20000084749569C
:1000B000455F524F43000D474956455F4C49444FF9
:1000C00043414E45000D474956455F50524F504FF2
:1000D000464F4C0010474956455F414E54494249EE
:1000E0004F54494353000D474956455F4B455441D2
:1000F0004D494E45000D474956455F46454E5441D2
:100100004E594C000D474956455F4D4F5250484996
:100110004E45000E474956455F45544F4D494441B1
:1001200054450004484541540004424C49500006DF
:10013000616972776179000D41524D5F525F495696
:100140005F43415448000E41524D5F4C5F4553435D
:100150004841525F35000E41524D5F4C5F4553435D
:100160004841525F34000E41524D5F4C5F4553434E
:100170004841525F33000E41524D5F4C5F4553433F
:100180004841525F32000E41524D5F4C5F45534330
:100190004841525F3100024F32000E4859504552DB
:1001A00056454E54494C415445001C4D41494E530F
:1001B00054454D5F56454E54494C4154494F4E5F4E
:1001C00045545F54554245000742564D5F4F4646E1
:1001D000001356454E54494C4154494F4E5F4554C7
:1001E0005F5455424500114143543D3138732C5002
:1001F000524F583D3139732C002C034C00550046AA
:100200000041002000470065006E00650072006933
:1002100000630020004800490044002000440065BD
:10022000006D006F00000018034400650061006E5F
:10023000002000430061006D006500720061000055
:10024000000403090409022200010100C03209046C
:100250000000010300000009211101000122CA0170
:10026000070581030800051201100100000008EBDA
:100270000340200100010200010600FF0901A10165
:1002800085010902150026FF00750895FEB102855B
:10029000020902150026FF00750895FFB1028503CB
:1002A0000905150026FF007508950C8100850409D5
:1002B00006150026FF0075089508B1028505090797
:1002C000150026FF007508950C81028506090815A2
:1002D0000026FF0075089510B10285070909150071
:1002E00026FF007508950D810285FF090A15002675
:1002F000FF0075089508B10285FE090B150026FF61
:100300000075089508B1028508090C150026FF0044
:100310007508950481028508090C150026FF0075F3
:1003200008950491028509090C150026FF0075083F
:10033000950481028509090C150026FF00750895B2
:10034000049102850A090C150026FF007508950422
:100350008102850A090C150026FF00750895049195
:1003600002850B090C150026FF0075089504810213
:10037000850B090C150026FF007508950491028570
:100380000C090C150026FF00750895048102850CE8
:10039000090C150026FF00750895049102850D09CA
:1003A0000C150026FF00750895048102850D090CC7
:1003B000150026FF00750895049102850E090C159D
:1003C0000026FF00750895048102850E090C1500B2
:1003D00026FF00750895049102850F090015002677
:1003E000FF0075089504B1028510090D150026FF60
:1003F000007508954081028511090D150026FF0042
:100400007508950191028512090E150026FF0075E9
:100410000895FF81028512090E150026FF00750858
:1004200095FF91028513090F150026FF00750895A9
:10043000FF81028513090F150026FF00750895FF3F
:100440009102C0024F32000A54454D505F50524F46
:100450004245000850554C53455F4F5800074250E5
:100460005F4355464600034543470006464C554901
:1004700044530003524F4300084C49444F43414EFC
:1004800045000850524F504F464F4C000B414E54C0
:100490004942494F5449435300084B4554414D4943
:1004A0004E45000846454E54414E594C00084D4FAC
:1004B000525048494E4500055355434353000945A2
:1004C000544F4D4944415445000456454E54000391
:1004D00042564D000D41524D5F525F49565F4341B8
:1004E00054480003524F4300084C49444F43414E87
:1004F00045000850524F504F464F4C000B414E5450
:100500004942494F5449435300084B4554414D49D2
:100510004E45000846454E54414E594C00084D4F3B
:10052000525048494E45000945544F4D49444154A5
:10053000450011241FBECFEFDAE0DEBFCDBF04B609
:1005400003FE1BC080913F0690914006A09141069A
:10055000B09142068A3C2CEA920722E4A2072CEDD5
:10056000B20759F410923F061092400610924106CD
:1005700010924206E0E0F8E3099513E0A0E0B1E054
:10058000ECEFF9E202C005900D92AE33B107D9F756
:1005900016E0AEE3B3E001C01D92AF33B107E1F75F
:1005A000C1D10C94FC142CCD25B1982F917090954D
:1005B0002160922395B92BB1982F9072909520626B
:1005C00092239BB998B180789F77892B88B9089539
:1005D0008091E00081608093E000F8948FEF9DE3CC
:1005E000A9E481509040A040E1F700C000008AECEF
:1005F0009CEAA2E4BCED80933F0690934006A09352
:100600004106B09342062DE088E190E00FB6F894E1
:10061000A895809360000FBE20936000FFCF982FB5
:100620009F7185FF04C080917B00806203C0809130
:100630007B008F7D80937B0080917C00807E892B66
:1006400080937C0080917A00806480937A0080910E
:100650007A0086FDFCCF8091780090917900392F47
:1006600020E090E0822B932B08950F931F93CF935C
:10067000DF930AE815E0C0E0D0E0CE01D0DFF8015A
:10068000819391938F012196C930D105B1F7DF9104
:10069000CF911F910F910895CAD6DC01CB018093B1
:1006A000740590937505A0937605B093770508952A
:1006B000BED6AB01BC0180916E05882331F58091D7
:1006C000740590917505A0917605B09177058452D7
:1006D0009A4FAF4FBF4F481759076A077B07A8F0DB
:1006E00081E080936E05809198059091990505961B
:1006F00090930D0180930C01809194059091950544
:10070000059690930B0180930A0180916E058823D2
:10071000D1F0F1E0209198053091990580910C017C
:1007200090910D012817390708F4F0E0E1E02091DD
:1007300094053091950580910A0190910B0128173D
:10074000390718F401C0F0E0E0E0809152058823F9
:1007500049F481E090E020916605222329F480E0AD
:1007600090E002C081E090E020913E03233029F523
:10077000FF2309F084C0EE2309F081C08091660553
:10078000882309F07CC080914E0490914F04A09181
:100790005004B091510488579C4EAF4FBF4F48173B
:1007A00059076A077B0708F48BC081E080936505D1
:1007B0001092520510923E030895009709F480C0EC
:1007C0002150223040F1FF2319F4EE2391F40895D3
:1007D000EE2309F043C04093840550938505609350
:1007E00086057093870582E080933E038FE695E04F
:1007F0000DC04093840550938505609386057093E2
:10080000870581E080933E0388E895E09093090195
:100810008093080108958091840590918505A091A9
:100820008605B091870588519C4FAF4FBF4F481741
:1008300059076A077B07B0F0FF2319F4EE2331F460
:1008400015C080916605882349F004C081E080933B
:10085000880512C081E080937D050EC081E0809301
:1008600053050AC0FF23A1F4EE2351F5E0910801DE
:10087000F091090181E0808383E080933E034093FF
:100880004E0450934F0460935004709351040895A4
:10089000EE23B1F080916605882321F081E08093FA
:1008A0007D0503C081E08093530583E080933E0380
:1008B00040934E0450934F0460935004709351043E
:1008C000089584B7877F84BF88E10FB6F89480933A
:1008D0006000109260000FBEEAE7F0E08081876060
:1008E000808380818068808380E480937C0090E0B6
:1008F00080E80FB6F89480936100909361000FBE7A
:10090000808180648083769A84B18E6084B984B15A
:10091000806C84B9209A289A559A5D9A3F9A479894
:100920000C94F90ECEDF50D581E03EDE7894B4DE33
:1009300088EA91E00E94B7120E94481196DEB8DE64
:10094000F7CF80EA31CE81E02FCE88EA91E00E9495
:100950009E129091E20094609093E200882311F03F
:1009600080E201C081E820CE88EA91E00C94641115
:100970008091B6019091B701009729F0019790936B
:10098000B7018093B60108958F929F92AF92BF9264
:10099000CF92DF92EF92FF920F931F93CF93DF934B
:1009A000CDB7DEB72B970FB6F894DEBF0FBECDBF25
:1009B0005B0179014801442309F45EC0423009F02B
:1009C00065C3DB018C91843031F440D5870127D693
:1009D00088E090E018C08630D9F458E9C52E51E07F
:1009E000D52E8901D6016D917D918D919D916D01DD
:1009F000A801AAD40C5F1F4FB8EACB16B1E0DB0602
:100A000089F780E190E0F4019183808381E03FC326
:100A10008130A9F4D90181E18D9380E090E00196C5
:100A2000FC01EA51FE4FE491ED9381319105B9F754
:100A30008EEF90E0D40111969C938E93E7CF823095
:100A400089F4D90186E08D9380E090E00196FC0165
:100A5000E15DFE4FE491ED9386309105B9F78FEF9C
:100A600090E0D1CF8F3009F011C380913E03D901BE
:100A70008C9384E090E0C7CFDB010C910730A1F4A8
:100A80008091140190911501009709F4FFC28EE046
:100A900091E008D4B70134D48DE090E0F401918363
:100AA0008083D5010C93B2CF033009F03FC0FE0123
:100AB0003496A0E0B1E088E00D9001928150E1F71A
:100AC000CE010496B7019E01245F3F4FDC01ED91FA
:100AD000FD91CD01EE0FFF1FE657FA4F4181DB017B
:100AE00011964C93119740814C936E5F7F4F821704
:100AF000930761F784E5C82E85E0D82E8701085F4B
:100B00001F4FF60161917191819191916F01A8013F
:100B10001BD40C5F1F4FF4E6CF16F5E0DF0689F714
:100B200083E0D5018C9388E190E06DCF002309F03C
:100B3000ADC280916905882309F43AC0E091E602CC
:100B4000F091E7028081843409F0A0C2818186316E
:100B500009F09CC21B821A82CF010A96BE016F5F08
:100B60007F4FAE014E5F5F4FC0D5882309F48EC220
:100B70008A819B81009709F489C21ED699818A8156
:100B80002B81D7019D93E82FF22F03C024912D9341
:100B900031962E2F281B2917C8F383E1D5018C939A
:100BA0008FEF90E0F40191838083109269052ECF3E
:100BB00080917D058823C9F0D90183E18D9380E080
:100BC00090E00196FC01EF52FE4FE491ED938331EA
:100BD0009105B9F782E1D5018C938FEF90E0F40194
:100BE0009183808310927D0511CF809165058823C4
:100BF000C9F0D90187E08D9380E090E00196FC0177
:100C0000E853FE4FE491ED9387309105B9F782E107
:100C1000D5018C938FEF90E0F40191838083109243
:100C20006505F4CE809188058823C9F0D9018CE14F
:100C30008D9380E090E00196FC01E655FE4FE49133
:100C4000ED938C319105B9F782E1D5018C938FEF4B
:100C500090E0F4019183808310928805D7CE809133
:100C600053058823C9F0D9018EE08D9380E090E090
:100C70000196FC01E656FE4FE491ED938E3091050E
:100C8000B9F782E1D5018C938FEF90E0F401918365
:100C9000808310925305BACE809182058823C9F0D3
:100CA00082E0D9018C93E7E9F1E0849111968C936D
:100CB00011973196E4911296EC9382E1FB018083C7
:100CC0008FEF90E0D40111969C938E931092820541
:100CD0009DCE809178058823D1F0D90184E08D9351
:100CE00080E090E00196FC01E75DFE4FE491ED931A
:100CF00084309105B9F782E1F50180838FEF90E0B0
:100D0000D40111969C938E93109278057FCE80919A
:100D100068058823D1F0D90184E08D9380E090E0CC
:100D20000196FC01ED5DFE4FE491ED938430910559
:100D3000B9F782E1F50180838FEF90E0D40111963D
:100D40009C938E931092680561CE809170058823E4
:100D5000D1F0D9018EE08D9380E090E00196FC0106
:100D6000ED5EFE4FE491ED938E309105B9F782E18F
:100D7000F50180838FEF90E0D40111969C938E93C0
:100D80001092700543CE809173058823D1F0D9016C
:100D90008DE08D9380E090E00196FC01EC5FFE4FCA
:100DA000E491ED938D309105B9F782E1F5018083EF
:100DB0008FEF90E0D40111969C938E93109273055F
:100DC00025CE809181058823D1F0D9018DE08D93C6
:100DD00080E090E00196FC01EB50FF4FE491ED9331
:100DE0008D309105B9F782E1F50180838FEF90E0B6
:100DF000D40111969C938E931092810507CE809119
:100E000064058823D1F0D9018DE08D9380E090E0D6
:100E10000196FC01EA51FF4FE491ED938D3091056D
:100E2000B9F782E1F50180838FEF90E0D40111964C
:100E30009C938E9310926405E9CD8091830588235D
:100E4000D1F0D90180E18D9380E090E00196FC0122
:100E5000EC52FF4FE491ED9380319105B9F782E1B7
:100E6000F50180838FEF90E0D40111969C938E93CF
:100E700010928305CBCD80917B058823D1F0D901D9
:100E80008DE08D9380E090E00196FC01EB53FF4FE5
:100E9000E491ED938D309105B9F782E1F5018083FE
:100EA0008FEF90E0D40111969C938E9310927B0566
:100EB000ADCD809189058823D1F0D9018DE08D9346
:100EC00080E090E00196FC01EA54FF4FE491ED933D
:100ED0008D309105B9F782E1F50180838FEF90E0C5
:100EE000D40111969C938E93109289058FCD809199
:100EF0007A058823D1F0D90188E08D9380E090E0D5
:100F00000196FC01E455FF4FE491ED938830910583
:100F1000B9F782E1F50180838FEF90E0D40111965B
:100F20009C938E9310927A0571CD809167058130E4
:100F3000D9F4D9018EE08D9380E090E00196FC0118
:100F4000EA57FE4FE491ED938E309105B9F782E1B7
:100F5000F50180838FEF90E0D40111969C938E93DE
:100F600082E08093670552CD80917E058130D9F46F
:100F7000D9018EE08D9380E090E00196FC01EA5863
:100F8000FE4FE491ED938E309105B9F782E1F501C2
:100F900080838FEF90E0D40111969C938E9382E032
:100FA00080937E0533CD80917C058130D9F4D901C1
:100FB0008EE08D9380E090E00196FC01EA59FE4FAF
:100FC000E491ED938E309105B9F782E1F5018083CC
:100FD0008FEF90E0D40111969C938E9382E08093E2
:100FE0007C0514CD809152048130D9F4D9018EE072
:100FF0008D9380E090E00196FC01EA5AFE4FE49167
:10100000ED938E309105B9F782E1F50180838FEF82
:1010100090E0D40111969C938E9382E080935204C9
:10102000F5CC809179058130D9F4D9018EE08D938A
:1010300080E090E00196FC01EA5BFE4FE491ED93C5
:101040008E309105B9F782E1F50180838FEF90E052
:10105000D40111969C938E9382E080937905D6CC2F
:101060008091140190911501009781F08EE091E03C
:1010700019D1B70145D18DE090E0F40191838083CF
:1010800087E0D5018C9381E88FDAC0CC80E02B9685
:101090000FB6F894DEBF0FBECDBFDF91CF911F9189
:1010A0000F91FF90EF90DF90CF90BF90AF909F9007
:1010B0008F9008950F931F93CF93DF93E9014130F1
:1010C000B1F1423009F0ACC0623051F481E080935C
:1010D0004103888180934003898180933F03A0C0AE
:1010E000643021F4C901C4D22AD29AC0663091F486
:1010F00008E911E0CE0146D1DC01CB01F801819372
:101100009193A193B1938F012496F1E0083A1F07C0
:1011100089F786C06F3F19F481EA46DA59DA6F30F1
:1011200009F07EC056D381E08093680579C06131B3
:1011300061F0623120F46D3009F072C056C0623146
:1011400071F1633109F06CC006C08881882309F011
:1011500067C0B5D265C08981863561F48A818534DE
:10116000D9F48B818E34C1F48C818435A9F44093F9
:10117000660512C0823449F48A81863569F48B8110
:101180008D3451F44093520507C08F3429F48A817D
:10119000823311F440938205CE0147D341C0898147
:1011A000833501F58A818435E9F48B818F34D1F45C
:1011B0008C818035B9F40FD310923E031092520502
:1011C000109266051092840510928505109286058E
:1011D0001092870510924E0410924F041092500402
:1011E00010925104CE018AD31BC0C901CBD020E09C
:1011F00030E040E752E40E947E139B01AC0160E0C6
:1012000070E080E89FE30E947E1320E030E04AE730
:1012100054E40E9468140E94E613DC01CB01DED284
:10122000DF91CF911F910F910895933089F0943001
:1012300028F4913049F1923061F505C09132D1F036
:10124000923239F51CC082E290E0E5E4F2E025C07C
:10125000813041F0813018F08230D9F406C0E1E4E9
:10126000F2E005C0E7E2F2E002C0E9EFF1E08491CC
:1012700090E013C089E090E0E7E5F2E00EC08AEC70
:1012800091E0E9E7F2E009C082E190E0E7E6F2E010
:1012900004C080E090E0E0E0F0E0DA011196FC9319
:1012A000EE930895CF93DF93FC01268137812115BA
:1012B0003105D9F0C481D581CE010196608171815B
:1012C0000E94CB149583848321503040378326833A
:1012D0002DE030E0C29FC001C39F900DD29F900DC2
:1012E000112408968E0F9F1F02C080E090E0DF91CE
:1012F000CF910895FA019083818372836383089567
:10130000EF92FF920F931F93CF93DF93EC017B013A
:10131000288139814A815B816C817D818E819F81A9
:1013200087017DD1688579858A859B85A701485F7E
:101330005F4FE0DF8C85F7018487DF91CF911F91AC
:101340000F91FF90EF900895CF93DF9300D000D0DE
:10135000CDB7DEB7DC01CB0189839A83AB83BC8335
:10136000DE011196FA0180E090E02D912193019623
:1013700084309105D1F70F900F900F900F90DF916F
:10138000CF910895CF93DF9300D000D0CDB7DEB7D3
:10139000FC01DE01119680E090E021912D930196F1
:1013A00084309105D1F759814A813B812C81852F69
:1013B000942FA32FB22FBC01CD010F900F900F904F
:1013C0000F90DF91CF91089584B5826084BDEEE6E1
:1013D000F0E080818260808389EF87BD85B583607E
:1013E00085BD08951F920F920FB60F9211248F930F
:1013F0009F93AF93BF938091490490914A04A09129
:101400004B04B0914C040196A11DB11D8093490479
:1014100090934A04A0934B04B0934C04BF91AF91B6
:101420009F918F910F900FBE0F901F9018950F9363
:101430001F930091490410914A0420914B0430916C
:101440004C04B801C9011F910F910895DF92EF92EA
:10145000FF920F931F93CF93DF9300914904109154
:101460004A0420914B0430914C0440E050E0BA0112
:10147000F0904104B0914204A0914304D090440400
:101480008091450490914604E0904704E09148041F
:10149000F00ED1E0F01608F0D0E0B10FC1E0B117C6
:1014A00008F0C0E0DB0FF1E0DB1708F0F0E0CF2B35
:1014B000A20FB1E0A21708F0B0E0CA0FF1E0CA171E
:1014C00008F0F0E0BF2BF32FFD0DA1E0F31708F0BB
:1014D000A0E0BF0FDD24D394BF1708F0DD24AD29B1
:1014E000F1E0841708F0F0E0A80FDD24D394A817EA
:1014F00008F0DD24FD2981E0951708F080E0F90F60
:10150000DD24D394F91708F0DD248D2991E0E61647
:1015100008F090E08E0D21E08E1508F020E0922B6F
:101520002F2D3D2F4C2F5B2F6A2F7F2F9E0FDF918A
:10153000CF911F910F91FF90EF90DF900895DF9270
:10154000EF92FF920F931F93CF93DF93F901DA018C
:10155000EB010091490410914A0420914B04309111
:101560004C04DE2ED01AEE24E394ED1508F0EE24A0
:10157000EF2FE11BFF24F394FE1708F0FF24FE2F4A
:10158000FE19EF2EF1E0EE1508F0F0E0FF2AFA2F39
:10159000F21BE1E0AF1708F0E0E0AF2FAF19FF2436
:1015A000F394FA1708F0FF24EF29FB2FF31B3F2FCA
:1015B00021E0BF1708F020E0532F5E1B41E03517F4
:1015C00008F040E0242B4C2F421B21E0C41708F008
:1015D00020E03D2F321B21E0D31708F020E0682FD8
:1015E000621B262F61E0821708F060E0961BD09204
:1015F0004104E0924204A093430450934404409376
:101600004504309346042093470490934804DF91A7
:10161000CF911F910F91FF90EF90DF9008950F935E
:101620001F93CF93DF93CDB7DEB728970FB6F8940B
:10163000DEBF0FBECDBF29833A834B835C836D83AE
:101640007E838F839887DE011996F801CE0101967B
:101650002E912193A817B907D9F728960FB6F894B9
:10166000DEBF0FBECDBFDF91CF911F910F910895C7
:10167000CF93DF93CDB7DEB728970FB6F894DEBFD0
:101680000FBECDBFDC011896FE01319680E090E0E0
:101690002E912193019688309105D1F729813A81C5
:1016A0004B815C816D817E818F81988528960FB6F4
:1016B000F894DEBF0FBECDBFDF91CF91089580912A
:1016C000C80085FFFCCF83E48093CE008091C800E2
:1016D00085FFFCCF83E08093CE008091C80085FF1A
:1016E000FCCF81E08093CE0008954F925F926F927D
:1016F0007F928F929F92AF92BF92CF92DF92EF92A2
:10170000FF920F931F93CF93DF935C013B012A015C
:101710008EDE6B017C0100E010E024E1822E912C32
:10172000089DE001099DD00D189DD00D1124C854CD
:10173000DE4FC501BE014CE050E00E94DF1400976F
:1017400021F588899989AA89BB89A7019601281B57
:10175000390B4A0B5B0BDA01C901C88AD98AEA8ABC
:10176000FB8A893833E1930730E0A30730E0B30701
:1017700050F0EC85FD85E491D301EC938E859F8537
:10178000F2019183808381E006C00F5F1F4F0F300D
:10179000110531F680E0DF91CF911F910F91FF90FD
:1017A000EF90DF90CF90BF90AF909F908F907F9001
:1017B0006F905F904F9008953ADEDC01CB018093EB
:1017C000E6059093E705A093E805B093E9052F9A05
:1017D00008952F9A089510922A06089521E02093E3
:1017E0002A068534910514F484E490E09093E9028C
:1017F0008093E8020895DC0180E090E00AC02D911A
:10180000FB01E80FF91FE4912E1748F0E21750F0A2
:101810000196841795079CF380E090E008958FEF80
:101820009FEF089581E090E008950F931F93CF9369
:10183000DF93EC011881412F1A3008F049E0CE0106
:1018400067E275E050E0D7DF009711F481E04FC008
:10185000012F193008F008E0CE016DE175E0402F4E
:1018600050E0C9DF009711F482E041C0CE0163E18E
:1018700075E0402F50E0BFDF009711F483E037C0E0
:10188000CE0169E075E0402F50E0B5DF009711F41C
:1018900084E02DC0412F1C3008F04BE0CE016CEFEE
:1018A00074E050E0A8DF009711F485E020C0CE017D
:1018B00062EF74E0402F50E09EDF009711F486E065
:1018C00016C0CE0168EE74E0402F50E094DF009720
:1018D00011F487E00CC0412F143008F043E0CE0132
:1018E00063EE74E050E087DF009719F488E080939E
:1018F0004D04DF91CF911F910F91089564ED74E035
:101900004DE050E078DF009719F481E080932F06D6
:101910000895AF92BF92CF92DF92EF92FF921F9302
:10192000CF93DF93EC017B016A01F0D1182F88235C
:10193000A9F5C114D10439F0F60120813181E21AF0
:10194000F30AC20FD31FAA24BB2423C08091E8004E
:1019500085FD16C08091E8008E778093E80098D4CA
:10196000C114D10449F0F601808191818A0D9B1D3B
:101970009183808315E012C0C9D1882351F00DC036
:1019800089918093F1000894E108F1080894A11C62
:10199000B11CE114F104D1F601C0182F812FDF91A1
:1019A000CF911F91FF90EF90DF90CF90BF90AF90BD
:1019B000089540913D0650913E064617570720F482
:1019C000BA01FC0140E03DC061157105D1F74091BD
:1019D000E8004E774093E800F4CF809136068823E4
:1019E00009F447C0853009F446C08091E80083FDC2
:1019F0003EC08091E80082FD34C08091E80080FF05
:101A000020C09091F3008091F200392F20E090E007
:101A1000822B932B06C041914093F100615070409E
:101A200001966115710519F088309105A0F341E028
:101A30008830910509F040E08091E8008E7780932E
:101A4000E8006115710549F6442339F60AC0809112
:101A50003606882371F0853071F08091E80083FDAF
:101A60000CC08091E80082FFF2CF80E0089581E011
:101A7000089582E0089583E0089581E00895611556
:101A8000710529F44091E8004B774093E800582F06
:101A9000492F2BC0809136068823D9F18530A9F1D2
:101AA0008091E80083FD33C08091E80082FFF2CF8F
:101AB000E52FF42F08C08091F10081935E2F4F2F06
:101AC0006150704069F05E2F4F2F9091F30080912C
:101AD000F200392F20E090E0822B932B009759F7EA
:101AE0008091E8008B778093E8006115710591F68D
:101AF00006C080913606882361F0853061F08091C0
:101B0000E80080FFF6CF80E0089583E0089581E04B
:101B1000089582E0089583E0089540913D06509134
:101B20003E064617570720F4BA01FC0140E03EC0CC
:101B300061157105D1F74091E8004E774093E800B8
:101B4000F4CF80913606882309F448C0853009F423
:101B500047C08091E80083FD3FC08091E80082FD8E
:101B600035C08091E80080FF21C09091F300809102
:101B7000F200392F20E090E0822B932B07C0449194
:101B80004093F100319661507040019661157105E6
:101B900019F08830910598F341E08830910509F0FB
:101BA00040E08091E8008E778093E8006115710530
:101BB00041F6442331F60AC080913606882371F03D
:101BC000853071F08091E80083FD0CC08091E800C1
:101BD00082FFF2CF80E0089581E0089582E00895C9
:101BE00083E0089581E00895982F2AC09093E9003A
:101BF000981739F07091EC002091ED005091F000B1
:101C000003C0242F762F50E021FF19C03091EB0044
:101C10003E7F3093EB003091ED003D7F3093ED003F
:101C20003091EB0031603093EB007093EC00209327
:101C3000ED005093F0002091EE0027FF08C09F5F59
:101C40009730A0F28F708093E90081E0089580E0E2
:101C500008950F931F93CF93DF93162FEC0100E0AD
:101C60002AC09881992329F16B81E981FA812C811D
:101C7000892F8F70873018F56295660F660F607C2C
:101C8000991F9927991F692B223010F096E001C007
:101C900092E028E030E040E003C04F5F220F331FA6
:101CA0002E173F07D0F34295407F492B9DDF8823B5
:101CB00031F00F5F25960117A1F681E001C080E0A9
:101CC000DF91CF911F910F9108958091370687FF83
:101CD00013C004C0809136068823B9F08091E800D3
:101CE00082FFF8CF8091E8008B778093E800089519
:101CF00080913606882349F08091E80080FFF8CF74
:101D00008091E8008E778093E80008958091E40048
:101D10009091E50045E601C0C9012091EC0020FF4B
:101D200023C02091E80020FD15C020913606222313
:101D300099F0253099F02091EB0025FD11C02091FC
:101D4000E4003091E5002817390739F3415021F7B5
:101D500084E0089580E0089582E0089583E0089586
:101D600081E0089580E008952091E80022FFDDCF12
:101D7000F9CF0F931F93CF93DF934BD052D0C8ED81
:101D8000D0E088818F778883888180688883888184
:101D90008F7D888319BC10923606109232061092FD
:101DA00034061092330600EE10E0F80180818B7F3C
:101DB000808388818160888380E060E042E014DF76
:101DC000E1EEF0E080818E7F8083E2EEF0E08081C2
:101DD00081608083808188608083F80180818E7F2C
:101DE0008083888180618883DF91CF911F910F91DB
:101DF0000895E8EDF0E080818F7E8083E7EDF0E0EC
:101E000080818160808384E082BF81E08093350699
:101E1000B0CFE8EDF0E080818E7F80831092E20009
:101E200008951092DA001092E10008951F920F9227
:101E30000FB60F9211242F933F934F935F936F939D
:101E40007F938F939F93AF93BF93EF93FF93809173
:101E5000E10082FF0BC08091E20082FF07C0809109
:101E6000E1008B7F8093E1000E94B8048091DA004A
:101E700080FF1FC08091D80080FF1BC08091DA00D6
:101E80008E7F8093DA008091D90080FF0DC080E1C1
:101E900089BD82E189BD09B400FEFDCF81E0809358
:101EA00036060E94A10405C019BC109236060E9495
:101EB000A3048091E10080FF18C08091E20080FFC0
:101EC00014C08091E2008E7F8093E2008091E20056
:101ED00080618093E2008091D80080628093D80076
:101EE00019BC85E080933606D2D18091E10084FF51
:101EF0002FC08091E20084FF2BC080E189BD82E188
:101F000089BD09B400FEFDCF8091D8008F7D8093FC
:101F1000D8008091E1008F7E8093E1008091E20003
:101F20008F7E8093E2008091E20081608093E200E6
:101F300080913206882311F084E007C08091E3008D
:101F400087FF02C083E001C081E0809336069FD105
:101F50008091E10083FF22C08091E20083FF1EC0D8
:101F60008091E100877F8093E10082E080933606D4
:101F7000109232068091E1008E7F8093E100809183
:101F8000E2008E7F8093E2008091E2008061809386
:101F9000E20080E060E042E027DE79D1FF91EF913E
:101FA000BF91AF919F918F917F916F915F914F9171
:101FB0003F912F910F900FBE0F901F9018951F9378
:101FC000CF93DF93CDB7DEB7AC970FB6F894DEBFF3
:101FD0000FBECDBF80E0E7E3F6E09091F100919372
:101FE0008F5F8830D1F70E94B4048091E80083FFAE
:101FF00036C18091370620913806253009F484C017
:10200000263040F42130A1F1213070F0233009F066
:1020100026C12EC0283009F4F3C0293009F402C1CA
:10202000263009F01CC193C0803821F0823809F0B5
:1020300016C108C08091330690913406992371F03F
:1020400082600CC080913B068F708093E900909174
:10205000EB0081E095FF80E01092E9009091E800AC
:10206000977F9093E8008093F1001092F100D3C025
:10207000882319F0823009F0F2C090E08F719070DF
:10208000009729F08230910509F0E9C00BC08091DA
:102090003906813009F0E3C0233009F080E08093F5
:1020A00034062CC080913906882341F520913B06E7
:1020B0002F7009F4D4C02093E9008091EB0080FFD9
:1020C0001DC080913806833021F48091EB0080623E
:1020D00013C08091EB0080618093EB0081E090E081
:1020E00002C0880F991F2A95E2F78093EA001092A8
:1020F000EA008091EB0088608093EB001092E90089
:102100008091E800877F8AC0882309F0A8C01091D9
:1021100039061F778091E3008078812B8093E3005C
:102120008091E800877F8093E800CFDD8091E80010
:1021300080FFFCCF8091E30080688093E30011234F
:1021400011F083E001C082E08093360688C0805899
:10215000823008F084C08091390690913A0623E0DD
:102160008C3D9207A9F583E08C838AE28B835FB76D
:10217000F894DE01139680E090E04EE061E2E42FF7
:10218000F0E060935700E49180FF03C0E295EF70A8
:102190004F5FEF702E2F30E0EA3018F0295C3F4F90
:1021A00002C0205D3F4F13963C932E9312970196E9
:1021B00012968431910519F75FBF8091E800877FFF
:1021C0008093E800CE0103966AE270E0F2DB12C071
:1021D00060913B06AE014F5F5F4F27D8BC0100976F
:1021E00009F43DC08091E800877F8093E8008981F1
:1021F0009A8193DC8091E8008B778093E8002FC070
:10220000803869F58091E800877F8093E8008091AD
:1022100032068093F1008091E8008E778093E80089
:1022200054DD1DC08823D9F4909139069230B8F45A
:102230008091E800877F8093E8009093320645DD27
:1022400080913206882321F48091E30087FF02C049
:1022500084E001C081E0809336060E94A50480914D
:10226000E80083FF0AC08091E800877F8093E80040
:102270008091EB0080628093EB00AC960FB6F894EF
:10228000DEBF0FBECDBFDF91CF911F91089508959E
:10229000CF93809136068823A9F08091E9008F7052
:1022A0009091EC0090FF02C0C0E801C0C0E0C82BD4
:1022B0001092E9008091E80083FF01C080DECF70BA
:1022C000C093E900CF9108956F927F928F929F9271
:1022D000AF92BF92CF92DF92EF92FF920F931F9334
:1022E000CF93DF9300D00F92CDB7DEB77C016DB6F0
:1022F0007EB68091E80083FF0AC1F701808190E0FB
:1023000020913B0630913C062817390709F0FFC0A1
:1023100080913806833009F4A1C0843030F48130D4
:1023200071F0823009F0F3C0D6C08A3009F4BBC026
:102330008B3009F4A4C0893009F0E9C051C0809104
:102340003706813A09F0E3C09DB68EB61B821A8229
:102350008091390600913A068983F70140858DB74F
:102360009EB7841B91090FB6F8949EBF0FBE8DBF18
:10237000CDB6DEB60894C11CD11CBC2CAD2CC60158
:1023800060E070E050E031D3402F4150C701BE0102
:102390006F5F7F4F96018E010E5F1F4F0E94C40436
:1023A000F70186819781009721F04085B60150E0C2
:1023B00013D31092E9008091E800877F8093E800B2
:1023C0008981882311F08093F1006A817B818B2DB4
:1023D0009A2DEFDA8091E8008B778093E8003BC07C
:1023E00080913706813209F092C09DB68EB6009179
:1023F0003D0610913E06C0903906D0903A068DB742
:102400009EB7801B910B0FB6F8949EBF0FBE8DBF79
:10241000ADB6BEB60894A11CB11C8091E800877FC0
:102420008093E800C501B8012ADB8091E8008E772F
:102430008093E80081E090E0CC2011F480E090E00F
:102440004D2D41509501280F391F081B190BC7014D
:102450006C2D0E945A089DBE8EBE59C080913706D1
:10246000813A09F054C08091E800877F8093E800AA
:102470008091E80080FFFCCFF701818540C080910A
:102480003706813209F043C08091E800877F80934E
:10249000E8001BDC9091390681E0992309F480E083
:1024A000F701818734C080913706813281F58091B0
:1024B000E800877F8093E80008DC809139069091DE
:1024C0003A06807036E0969587953A95E1F7F701E0
:1024D000958784871CC080913706813AC1F480912A
:1024E000E800877F8093E8008091E80080FFFCCFC0
:1024F000F701848595859695879596958795809320
:10250000F1008091E8008E778093E800DEDB0FB663
:10251000F8947EBE0FBE6DBE0F900F900F90DF91AE
:10252000CF911F910F91FF90EF90DF90CF90BF90D0
:10253000AF909F908F907F906F900895CF93DF938F
:10254000FC010996DC0187E0ED0119928A95E9F713
:1025500081E0818784EF91E09587848783E084839D
:10256000CF01019661E075DBDF91CF9108954F9225
:102570005F926F927F928F929F92AF92BF92CF9213
:10258000DF92EF92FF920F931F93CF93DF9300D0D0
:102590000F92CDB7DEB77C014DB65EB680913606A0
:1025A000843009F092C08091E4009091E500F70139
:1025B000228533852817390709F487C081818F70F8
:1025C0008093E9008091E80085FF7FC07DB66EB6FC
:1025D00040858DB79EB7841B91090FB6F8949EBFB6
:1025E0000FBE8DBF0DB71EB70F5F1F4F19821B8225
:1025F0001A82B02EA12EC80160E070E050E0F5D143
:10260000C701BE016F5F7F4F40E098018E010E5FF2
:102610001F4F0E94C404182FF701848595850097E9
:1026200059F081E090E0268537852115310511F0BC
:1026300080E090E04C0102C088249924F701C68014
:10264000D780C114D10491F04A815B818B2D9A2DE2
:10265000B601B5D101E0009709F400E0F70140852B
:10266000C6016B2D7A2D50E0B7D101C000E08A8100
:102670009B81009709F1112329F4002319F4811497
:102680009104D1F0F70184859585978786878181AC
:102690008F708093E9008981882311F08093F10085
:1026A0006A817B818B2D9A2D40E050E032D9809158
:1026B000E8008E778093E8008091E4009091E50037
:1026C000F701938782877DBE6EBE0FB6F8945EBE1B
:1026D0000FBE4DBE0F900F900F90DF91CF911F91C5
:1026E0000F91FF90EF90DF90CF90BF90AF909F90B1
:1026F0008F907F906F905F904F9008950CD0AEC0F8
:10270000A6D040F09DD030F021F45F3F19F08FC08B
:102710005111D8C092C0B3D098F39923C9F355236F
:10272000B1F3951B550BBB27AA27621773078407C4
:1027300038F09F5F5F4F220F331F441FAA1FA9F37A
:1027400033D00E2E3AF0E0E830D091505040E6956C
:10275000001CCAF729D0FE2F27D0660F771F881FCD
:10276000BB1F261737074807AB07B0E809F0BB0BBC
:10277000802DBF01FF2793585F4F2AF09E3F5105E0
:1027800068F055C09FC05F3FECF3983EDCF3869540
:1027900077956795B795F7959F5FC9F7880F911D56
:1027A0009695879597F90895E1E0660F771F881F42
:1027B000BB1F621773078407BA0720F0621B730BF5
:1027C000840BBA0BEE1F88F7E095089504D0689447
:1027D000B11178C008955BD088F09F5790F0B92F61
:1027E0009927B751A0F0D1F0660F771F881F991F66
:1027F0001AF0BA95C9F712C0B13081F062D0B1E0D9
:1028000008955FC0672F782F8827B85F39F0B93FE8
:10281000CCF3869577956795B395D9F73EF4909567
:102820008095709561957F4F8F4F9F4F089597F9D1
:102830009F6780E870E060E008959FEF80EC089566
:1028400000240A941616170618060906089500248F
:102850000A9412161306140605060895092E039409
:10286000000C11F4882352F0BB0F40F4BF2B11F47D
:1028700060FF04C06F5F7F4F8F4F9F4F089557FDDC
:102880009058440F551F59F05F3F71F04795880FDE
:1028900097FB991F61F09F3F79F087950895121675
:1028A00013061406551FF2CF4695F1DF08C0161621
:1028B00017061806991FF1CF8695710561050894D2
:1028C0000895E894BB2766277727CB0197F90895E9
:1028D0000BD0C4CFB5DF28F0BADF18F0952309F08C
:1028E000A6CFABCF1124EECFCADFA0F3959FD1F3D3
:1028F000950F50E0551F629FF001729FBB27F00DAE
:10290000B11D639FAA27F00DB11DAA1F649F662702
:10291000B00DA11D661F829F2227B00DA11D621F51
:10292000739FB00DA11D621F839FA00D611D221F0B
:10293000749F3327A00D611D231F849F600D211DEF
:10294000822F762F6A2F11249F5750408AF0E1F092
:1029500088234AF0EE0FFF1FBB1F661F771F881FDB
:1029600091505040A9F79E3F510570F060CFAACF1B
:102970005F3FECF3983EDCF3869577956795B795C6
:10298000F795E7959F5FC1F7FE2B880F911D9695F0
:10299000879597F90895AA1BBB1B51E107C0AA1F91
:1029A000BB1FA617B70710F0A61BB70B881F991FF0
:1029B0005A95A9F780959095BC01CD010895FB012A
:1029C000DC0104C08D910190801921F441505040E8
:1029D000C8F7881B990B0895FB01DC0102C0019028
:1029E0000D9241505040D8F70895DC0101C06D931D
:0C29F00041505040E0F70895F894FFCFEC
:1029FC0001000400060007006F05FF03FF030A0037
:102A0C0000000000000000000000000000000000BA
:102A1C0000000000000000000000000000000000AA
:102A2C00000000000000000000000000000000009A
:102A3C00000000000000000000000000000000008A
:102A4C00000000000000000000000000000000007A
:102A5C00000000000000000000000000000000006A
:102A6C00000000000000000000000000000000005A
:102A7C00000000000000000000000000000000004A
:102A8C000000000000000000000048430000484324
:102A9C000000484300004843008108000001420345
:102AAC00FF00000000000000E28068100000003908
:102ABC0060119746CF04D00400000000AD4606021A
:102ACC004660AF7960000068BE04BF0400000000DF
:102ADC00AD4606024660937860000064B704B80403
:102AEC0000000000AD46060246609175600000656E
:102AFC00B704B80400000000E28068100000003940
:102B0C00148C72E0AD04AE0400000000AD46060269
:102B1C0046609D7361000066AD04AE0400000000C9
:102B2C00AD4606024660A57860000067A304A404C5
:102B3C0000000000E280681000000039148C72E381
:102B4C006B046C0400000000AD4606024660E178A0
:102B5C006000006D8204830400000000AD46060294
:102B6C004660D57B6000006C7304740400000000A8
:102B7C00AD4606024660CD756100006B73047404AB
:102B8C0000000000AD4606024660C3766100006A94
:102B9C004304440400000000E28068100000003987
:102BAC00148C732A6604670400000000E28068102D
:102BBC0000000039148C732D5304540400000000E1
:102BCC00AD4606024660E97A6000006E5D045E0464
:102BDC0000000000A205EA05A4032A2928272625BF
:102BEC0024232221201F28333E49545F6A76818C8E
:102BFC0097A2ADB8C3CFDAE5F0FBF9EFE5DBD1C7AF
:102C0C00BEB4AAA0968C83796F655B52483E342A79
:102C1C0020202122232425262728292B2C2DA120D6
:0E2C2C00000000000200A101000000000000F6
:00000001FF
