:10000000D7C100000FC200000DC200000BC20000EB
:1000100009C2000007C2000005C2000003C20000C0
:1000200001C20000FFC100000C94730AFBC1000074
:10003000F9C10000F7C10000F5C10000F3C10000E4
:10004000F1C10000EFC10000EDC10000EBC10000F4
:10005000E9C1000023C60000E5C10000E3C10000C3
:10006000E1C10000DFC10000DDC10000DBC1000014
:10007000D9C10000D7C10000D5C10000D3C1000024
:10008000D1C10000CFC10000CDC10000CBC1000034
:10009000C9C10000C7C10000C5C10000C3C1000044
:1000A000C1C10000BFC10000BDC100001D6F766569
:1000B00072707265737375726520696E206C656607
:1000C000742062726F6E63687573001E6F7665725E
:1000D000707265737375726520696E2072696768E6
:1000E000742062726F6E6368757300176F76657245
:1000F000707265737375726520696E2073746F6DAD
:10010000616368007D52455350495241544F5259E2
:100110005F524154453D38662C544944414C5F562A
:100120004F4C554D453D39662C4C554E475F564F0B
:100130004C554D455F544F54414C3D3130662C4C2D
:10014000554E475F564F4C554D455F4C3D313166DE
:100150002C4C554E475F564F4C554D455F523D31E7
:1001600032662C48454152545F524154453D31332B
:10017000662C4152543D3134662C4143543D313854
:10018000732C002C034C0055004600410020004712
:100190000065006E00650072006900630020004881
:1001A00000490044002000440065006D006F00001D
:1001B0000018034400650061006E002000430061E8
:1001C000006D00650072006100000004030904096D
:1001D000022200010100C0320904000001030000F6
:1001E0000009211101000122AC010705810308006B
:1001F000051201100100000008EB0340200100017E
:100200000200010600FF0901A10185010902150094
:1002100026FF00750895FFB1028502090515002625
:10022000FF0075089522B10185030905150026FF19
:100230000075089518810085040906150026FF0041
:1002400075089508B10285050907150026FF007598
:1002500008950C810285060908150026FF0075081F
:100260009510B10285070909150026FF007508954C
:100270000D810285FF090A150026FF007508950803
:10028000B10285FE090B150026FF0075089508B11F
:10029000028508090C150026FF00750895048102E7
:1002A0008508090C150026FF007508950491028544
:1002B00009090C150026FF007508950481028509BF
:1002C000090C150026FF00750895049102850A099E
:1002D0000C150026FF00750895048102850A090C9B
:1002E000150026FF00750895049102850B090C1571
:1002F0000026FF00750895048102850B090C150086
:1003000026FF00750895049102850C090C1500263E
:10031000FF00750895048102850C090C150026FF65
:1003200000750895049102850D090C150026FF0043
:10033000750895048102850D090C150026FF0075CE
:100340000895049102850E090C150026FF0075081A
:1003500095048102850E090C150026FF007508958D
:10036000049102850F0900150026FF00750895010C
:1003700081028510090D150026FF00750895408142
:10038000028511090D150026FF00750895019102DF
:100390008512090E150026FF0075089580810285DB
:1003A00012090E150026FF00750895809102C00005
:1003B00011241FBECFEFDAE0DEBFCDBF04B603FECF
:1003C0001BC080916C0390916D03A0916E03B0915E
:1003D0006F038A3C2CEA920722E4A2072CEDB207B5
:1003E00059F410926C0310926D0310926E031092E8
:1003F0006F03E0E0F8E3099511E0A0E0B1E0E4E18B
:10040000FEE102C005900D92AA3FB107D9F713E0B3
:10041000AAEFB1E001C01D92AC36B107E1F736D1C9
:100420000C94080FEDCD25B1982F91709095216017
:10043000922395B92BB1982F9072909520629223B8
:100440009BB998B180789F77892B88B9089580915E
:10045000E00081608093E000F8948FEF9DE3A9E4D1
:1004600081509040A040E1F700C000008AEC9CEA77
:10047000A2E4BCED80936C0390936D03A0936E0394
:10048000B0936F032DE088E190E00FB6F894A89543
:10049000809360000FBE20936000FFCF982F97706D
:1004A00083FF04C080917B00806203C080917B0049
:1004B0008F7D80937B0080917C00887F892B809347
:1004C0007C0080917A00806480937A0080917A0029
:1004D00086FDFCCF8091780090917900392F20E043
:1004E00090E0822B932B08950F931F93CF93DF936C
:1004F00006EC12E0C0E0D0E0CE01D0DFF80181933D
:1005000091938F012196CC30D105B1F7DF91CF9136
:100510001F910F910895EF92FF920F931F93CF9326
:10052000E2D3AB01BC012091080130910901E091B7
:10053000D402F091D5022E173F0718F58091A90239
:100540009091AA02A091AB02B091AC027A018B010A
:10055000E81AF90A0A0B1B0BD801C701893E03E010
:10056000900700E0A00700E0B00758F04093A90210
:100570005093AA026093AB027093AC0281E0809327
:10058000A5028091D0029091D1022817390718F561
:100590008091B5029091B602A091B702B091B802D5
:1005A0007A018B01E81AF90A0A0B1B0BD801C70163
:1005B000893E03E0900700E0A00700E0B00758F094
:1005C0004093B5025093B6026093B7027093B8029D
:1005D00081E0809394022E173F0718F58091C202A4
:1005E0009091C302A091C402B091C5027A018B011F
:1005F000E81AF90A0A0B1B0BD801C701893E03E070
:10060000900700E0A00700E0B00758F04093C20256
:100610005093C3026093C4027093C50281E080933B
:10062000A702CF911F910F91FF90EF90089584B78B
:10063000877F84BF88E10FB6F894809360001092A2
:1006400060000FBEEAE7F0E087E080838081806889
:10065000808380E480937C0090E080E80FB6F8947B
:1006600080936100909361000FBE808180648083DD
:10067000769A84B18E6084B987B1806C87B9209AEC
:10068000289A559A5D9A3F9A479810C7D0DFF8D2BA
:1006900081E0C9DE78948EEC91E00E94100E0E94F9
:1006A000A10C22DF38DFF7CF80EABDCE81E0BBCEE0
:1006B0008EEC91E00E94F70D9091E200946090938F
:1006C000E200882311F080E201C081E8ACCE8EEC1C
:1006D00091E00C94BD0C8091DC019091DD010097BC
:1006E00029F001979093DD018093DC0108954F92EA
:1006F0005F926F927F928F929F92AF92BF92CF92B2
:10070000DF92EF92FF920F931F93CF93DF93CDB7BA
:10071000DEB72A970FB6F894DEBF0FBECDBF3B0100
:10072000790128011A821982442309F47DC04230DC
:1007300009F066C19091FF01DB018C919130B9F510
:100740008230A9F58091FE0190E0936060E0AE01F7
:100750004F5F5F4FC6D12091FD0130E02817390768
:10076000E8F4F701908381834091FD0150E0841B00
:10077000950B9283838329813A812E5F3F4F240F0B
:10078000351FD701149680E090E0F901E80FF91FBA
:10079000E491ED9301968E319105B9F782E290E0F4
:1007A000D20111969C938E931092FF010AC084305F
:1007B00051F4A8D287018FD388E090E0F2019183B1
:1007C000808381E01EC18630B9F45EEBC52E51E016
:1007D000D52E8701D6016D917D918D919D916D01F1
:1007E000A8010ED20C5F1F4FBEECCB16B1E0DB06AA
:1007F00089F780E190E0E2CF813009F001C1D701B3
:100800008DE78D9380E090E00196FC01EC5FFE4F58
:10081000E491ED938D379105B9F78FEF90E0D20118
:1008200011969C938E93CDCFFB0100810730A9F4E4
:1008300080913A0190913B01009709F4E1C084E373
:1008400091E08CD1B701B8D18DE090E0D201119642
:100850009C938E93F3010083A4C0033009F03FC042
:10086000FE013396A0E0B1E088E00D900192815046
:10087000E1F7CE010396B7019E01255F3F4FDC01F2
:10088000ED91FD91CD01EE0FFF1FEA53FD4F418128
:10089000DB0111964C93119740814C936E5F7F4F13
:1008A0008217930761F785E9C82E82E0D82E870169
:1008B000085F1F4FF60161917191819191916F01D4
:1008C000A8019ED10C5F1F4FF5EACF16F2E0DF06BC
:1008D00089F783E0D3018C9388E190E06FCF0830F3
:1008E00009F48EC0093009F48BC00A3009F488C0BD
:1008F0000B3009F485C00C3009F482C00D3009F4C6
:100900007FC00E3009F47CC0002309F079C08091CB
:10091000A6028823B1F0E091E801F091E901D90144
:1009200080E090E021912D93019680349105D1F7DC
:1009300020E1D3012C93F201918380831092A602CF
:1009400040CF8091A5028823C9F0D90187E18D931A
:1009500080E090E00196FC01E551FF4FE491ED93BA
:1009600087319105B9F782E1D3018C9380E890E05B
:10097000F201918380831092A50223CF80913A01E6
:1009800090913B01009781F084E391E0E7D0B701BB
:1009900013D18DE090E0D2018D939C9387E0F30119
:1009A000808381E840DD0DCF8091DE02882341F114
:1009B0008090AD029090AE02A090AF02B090B002D5
:1009C0002091B9023091BA024091BB025091BC0211
:1009D0006091BD027091BE028091BF029091C002F1
:1009E000870179D2A701485F5F4FC501B401DED00E
:1009F0001092DE0285E0D3018C938CE090E0DECE95
:100A000080E02A960FB6F894DEBF0FBECDBFDF910F
:100A1000CF911F910F91FF90EF90DF90CF90BF90FB
:100A2000AF909F908F907F906F905F904F900895C0
:100A30000F931F93CF93DF93C901413079F1423077
:100A400009F04AC0623059F421E02093FF01FC0113
:100A500020812093FE0181818093FD013DC064309F
:100A600019F462D2C8D138C0663099F4E9010EEBAE
:100A700011E0CE01E3D0DC01CB01F8018193919329
:100A8000A193B1938F012496F1E00E3C1F0789F7E3
:100A900023C06F3F09F581EAC6DCD9DC683061F418
:100AA000CDD0DC01CB0180930E0190930F01A09378
:100AB0001001B093110110C0693071F06A3061F01B
:100AC0006B3051F06C3041F06D3031F06E3021F010
:100AD000613111F450D264D2DF91CF911F910F9107
:100AE0000895933089F0943028F4913049F1923090
:100AF00061F505C09132D1F0923239F51CC082E225
:100B000090E0EFECF1E025C0813041F0813018F049
:100B10008230D9F406C0EBECF1E005C0E1EBF1E086
:100B200002C0E3E8F1E0849190E013C089E090E036
:100B3000E1EEF1E00EC08CEA91E0E3E0F2E009C002
:100B400082E190E0E1EFF1E004C080E090E0E0E0DD
:100B5000F0E0DA011196FC93EE930895CF93DF93C2
:100B6000FC012681378121153105D9F0C481D58159
:100B7000CE010196608171810E94D70E9583848396
:100B800021503040378326832DE030E0C29FC001E2
:100B9000C39F900DD29F900D112408968E0F9F1F1A
:100BA00002C080E090E0DF91CF910895FA01908338
:100BB0008183728363830895EF92FF920F931F9353
:100BC000CF93DF93EC017B01288139814A815B81DE
:100BD0006C817D818E819F8187017DD1688579853A
:100BE0008A859B85A701485F5F4FE0DF8C85F70111
:100BF0008487DF91CF911F910F91FF90EF9008951F
:100C0000CF93DF9300D000D0CDB7DEB7DC01CB01AE
:100C100089839A83AB83BC83DE011196FA0180E05D
:100C200090E02D912193019684309105D1F70F909A
:100C30000F900F900F90DF91CF910895CF93DF9396
:100C400000D000D0CDB7DEB7FC01DE01119680E008
:100C500090E021912D93019684309105D1F759812F
:100C60004A813B812C81852F942FA32FB22FBC0169
:100C7000CD010F900F900F900F90DF91CF910895BD
:100C800084B5826084BDEEE6F0E08081826080837E
:100C900089EF87BD85B5836085BD08951F920F924A
:100CA0000FB60F9211248F939F93AF93BF938091B0
:100CB000880290918902A0918A02B0918B020196DC
:100CC000A11DB11D8093880290938902A0938A028E
:100CD000B0938B02BF91AF919F918F910F900FBEF8
:100CE0000F901F9018950F931F93009188021091F9
:100CF000890220918A0230918B02B801C9011F91AB
:100D00000F910895DF92EF92FF920F931F93CF936D
:100D1000DF93009188021091890220918A0230911C
:100D20008B0240E050E0BA01F0908002B091810265
:100D3000A0918202D09083028091840290918502DA
:100D4000E0908602E0918702F00ED1E0F01608F004
:100D5000D0E0B10FC1E0B11708F0C0E0DB0FF1E067
:100D6000DB1708F0F0E0CF2BA20FB1E0A21708F0DC
:100D7000B0E0CA0FF1E0CA1708F0F0E0BF2BF32F84
:100D8000FD0DA1E0F31708F0A0E0BF0FDD24D39420
:100D9000BF1708F0DD24AD29F1E0841708F0F0E07A
:100DA000A80FDD24D394A81708F0DD24FD2981E0E5
:100DB000951708F080E0F90FDD24D394F91708F0B7
:100DC000DD248D2991E0E61608F090E08E0D21E0FB
:100DD0008E1508F020E0922B2F2D3D2F4C2F5B2FEE
:100DE0006A2F7F2F9E0FDF91CF911F910F91FF9060
:100DF000EF90DF900895DF92EF92FF920F931F9391
:100E0000CF93DF93F901DA01EB0100918802109191
:100E1000890220918A0230918B02DE2ED01AEE24B4
:100E2000E394ED1508F0EE24EF2FE11BFF24F3947B
:100E3000FE1708F0FF24FE2FFE19EF2EF1E0EE154D
:100E400008F0F0E0FF2AFA2FF21BE1E0AF1708F0FC
:100E5000E0E0AF2FAF19FF24F394FA1708F0FF2456
:100E6000EF29FB2FF31B3F2F21E0BF1708F020E0F5
:100E7000532F5E1B41E0351708F040E0242B4C2F28
:100E8000421B21E0C41708F020E03D2F321B21E077
:100E9000D31708F020E0682F621B262F61E082172D
:100EA00008F060E0961BD0928002E0928102A0934D
:100EB00082025093830240938402309385022093F0
:100EC000860290938702DF91CF911F910F91FF903F
:100ED000EF90DF9008950F931F93CF93DF93CDB7DB
:100EE000DEB728970FB6F894DEBF0FBECDBF2983BB
:100EF0003A834B835C836D837E838F839887DE0187
:100F00001996F801CE0101962E912193A817B907E1
:100F1000D9F728960FB6F894DEBF0FBECDBFDF918C
:100F2000CF911F910F910895CF93DF93CDB7DEB787
:100F300028970FB6F894DEBF0FBECDBFDC01189620
:100F4000FE01319680E090E02E9121930196883049
:100F50009105D1F729813A814B815C816D817E8138
:100F60008F81988528960FB6F894DEBF0FBECDBF4F
:100F7000DF91CF91089580E090E0E091E601F0915B
:100F8000E701A091E801B091E901A80FB91F1C92F7
:100F9000E80FF91F108201968034910571F70895CA
:100FA0008091C80085FFFCCF83E48093CE008091C0
:100FB000C80085FFFCCF83E08093CE008091C800FD
:100FC00085FFFCCF81E08093CE000895AF92BF9261
:100FD000CF92DF92EF92FF921F93CF93DF93EC01BA
:100FE0007B016A01F0D1182F8823A9F5C114D1041F
:100FF00039F0F60120813181E21AF30AC20FD31FC2
:10100000AA24BB2423C08091E80085FD16C08091EE
:10101000E8008E778093E80094D4C114D10449F09D
:10102000F601808191818A0D9B1D9183808315E05B
:1010300012C0C9D1882351F00DC089918093F1006D
:101040000894E108F1080894A11CB11CE114F10412
:10105000D1F601C0182F812FDF91CF911F91FF9002
:10106000EF90DF90CF90BF90AF90089540916A03CA
:1010700050916B034617570720F4BA01FC0140E07A
:101080003DC061157105D1F74091E8004E7740935E
:10109000E800F4CF80916303882309F447C08530CA
:1010A00009F446C08091E80083FD3EC08091E800CD
:1010B00082FD34C08091E80080FF20C09091F30051
:1010C0008091F200392F20E090E0822B932B06C014
:1010D00041914093F1006150704001966115710596
:1010E00019F088309105A0F341E08830910509F0AE
:1010F00040E08091E8008E778093E80061157105EB
:1011000049F6442339F60AC080916303882371F0BD
:10111000853071F08091E80083FD0CC08091E8007B
:1011200082FFF2CF80E0089581E0089582E0089583
:1011300083E0089581E008956115710529F44091D7
:10114000E8004B774093E800582F492F2BC080913F
:1011500063038823D9F18530A9F18091E80083FDEC
:1011600033C08091E80082FFF2CFE52FF42F08C052
:101170008091F10081935E2F4F2F6150704069F094
:101180005E2F4F2F9091F3008091F200392F20E0D5
:1011900090E0822B932B009759F78091E8008B7792
:1011A0008093E8006115710591F606C08091630394
:1011B000882361F0853061F08091E80080FFF6CFF0
:1011C00080E0089583E0089581E0089582E0089525
:1011D00083E0089540916A0350916B0346175707C7
:1011E00020F4BA01FC0140E03EC061157105D1F761
:1011F0004091E8004E774093E800F4CF809163037C
:10120000882309F448C0853009F447C08091E8007C
:1012100083FD3FC08091E80082FD35C08091E800E9
:1012200080FF21C09091F3008091F200392F20E0DF
:1012300090E0822B932B07C044914093F1003196AC
:101240006150704001966115710519F08830910563
:1012500098F341E08830910509F040E08091E80082
:101260008E778093E8006115710541F6442331F6CD
:101270000AC080916303882371F0853071F08091FA
:10128000E80083FD0CC08091E80082FFF2CF80E08F
:10129000089581E0089582E0089583E0089581E053
:1012A0000895982F2AC09093E900981739F070910B
:1012B000EC002091ED005091F00003C0242F762F18
:1012C00050E021FF19C03091EB003E7F3093EB00DE
:1012D0003091ED003D7F3093ED003091EB003160B7
:1012E0003093EB007093EC002093ED005093F000EE
:1012F0002091EE0027FF08C09F5F9730A0F28F700B
:101300008093E90081E0089580E008950F931F9392
:10131000CF93DF93162FEC0100E02AC09881992328
:1013200029F16B81E981FA812C81892F8F708730B7
:1013300018F56295660F660F607C991F9927991FB3
:10134000692B223010F096E001C092E028E030E0F6
:1013500040E003C04F5F220F331F2E173F07D0F32B
:101360004295407F492B9DDF882331F00F5F259602
:101370000117A1F681E001C080E0DF91CF911F91BC
:101380000F9108958091640387FF13C004C080917A
:1013900063038823B9F08091E80082FFF8CF809141
:1013A000E8008B778093E800089580916303882399
:1013B00049F08091E80080FFF8CF8091E8008E77B7
:1013C0008093E80008958091E4009091E50045E65F
:1013D00001C0C9012091EC0020FF23C02091E8004A
:1013E00020FD15C020916303222399F0253099F048
:1013F0002091EB0025FD11C02091E4003091E50023
:101400002817390739F3415021F784E0089580E027
:10141000089582E0089583E0089581E0089580E0D2
:1014200008952091E80022FFDDCFF9CF0F931F939D
:10143000CF93DF934BD052D0C8EDD0E088818F7727
:10144000888388818068888388818F7D888319BCA0
:101450001092630310925F03109261031092600375
:1014600000EE10E0F80180818B7F808388818160AD
:10147000888380E060E042E014DFE1EEF0E080810C
:101480008E7F8083E2EEF0E08081816080838081C6
:1014900088608083F80180818E7F8083888180616D
:1014A0008883DF91CF911F910F910895E8EDF0E0CF
:1014B00080818F7E8083E7EDF0E080818160808392
:1014C00084E082BF81E080936203B0CFE8EDF0E07A
:1014D00080818E7F80831092E20008951092DA005E
:1014E0001092E10008951F920F920FB60F921124EF
:1014F0002F933F934F935F936F937F938F939F931C
:10150000AF93BF93EF93FF938091E10082FF0AC0F6
:101510008091E20082FF06C08091E1008B7F809382
:10152000E100D9D88091DA0080FF1DC08091D800F9
:1015300080FF19C08091DA008E7F8093DA0080915D
:10154000D90080FF0CC080E189BD82E189BD09B46A
:1015500000FEFDCF81E080936303A6D804C019BCD0
:1015600010926303A3D88091E10080FF18C080919E
:10157000E20080FF14C08091E2008E7F8093E20041
:101580008091E20080618093E2008091D8008062C7
:101590008093D80019BC85E080936303D1D18091FA
:1015A000E10084FF2FC08091E20084FF2BC080E126
:1015B00089BD82E189BD09B400FEFDCF8091D800CC
:1015C0008F7D8093D8008091E1008F7E8093E10031
:1015D0008091E2008F7E8093E2008091E200816042
:1015E0008093E20080915F03882311F084E007C0BC
:1015F0008091E30087FF02C083E001C081E0809317
:1016000063039ED18091E10083FF22C08091E200BC
:1016100083FF1EC08091E100877F8093E10082E01C
:101620008093630310925F038091E1008E7F80932B
:10163000E1008091E2008E7F8093E2008091E200E1
:1016400080618093E20080E060E042E02ADE78D1B1
:10165000FF91EF91BF91AF919F918F917F916F918A
:101660005F914F913F912F910F900FBE0F901F9060
:1016700018951F93CF93DF93CDB7DEB7AC970FB616
:10168000F894DEBF0FBECDBF80E0E4E6F3E09091BA
:10169000F10091938F5F8830D1F719D88091E800DD
:1016A00083FF36C18091640320916503253009F4DE
:1016B00084C0263040F42130A1F1213070F0233075
:1016C00009F026C12EC0283009F4F3C0293009F4EE
:1016D00002C1263009F01CC193C0803821F0823845
:1016E00009F016C108C080916003909161039923AD
:1016F00071F082600CC0809168038F708093E90064
:101700009091EB0081E095FF80E01092E9009091CC
:10171000E800977F9093E8008093F1001092F10029
:10172000D3C0882319F0823009F0F2C090E08F71A5
:101730009070009729F08230910509F0E9C00BC044
:1017400080916603813009F0E3C0233009F080E026
:10175000809361032CC080916603882341F520911A
:1017600068032F7009F4D4C02093E9008091EB0046
:1017700080FF1DC080916503833021F48091EB00D0
:10178000806213C08091EB0080618093EB0081E068
:1017900090E002C0880F991F2A95E2F78093EA0033
:1017A0001092EA008091EB0088608093EB00109229
:1017B000E9008091E800877F8AC0882309F0A8C0EB
:1017C000109166031F778091E3008078812B8093CE
:1017D000E3008091E800877F8093E800D3DD80916B
:1017E000E80080FFFCCF8091E30080688093E300F5
:1017F000112311F083E001C082E08093630388C06D
:101800008058823008F084C080916603909167030D
:1018100023E08C3D9207A9F583E08C838AE28B83D9
:101820005FB7F894DE01139680E090E04EE061E24D
:10183000E42FF0E060935700E49180FF03C0E2954D
:10184000EF704F5FEF702E2F30E0EA3018F0295C18
:101850003F4F02C0205D3F4F13963C932E9312974B
:10186000019612968431910519F75FBF8091E800C7
:10187000877F8093E800CE0103966AE270E0F6DB92
:1018800012C060916803AE014F5F5F4F2AD9BC015F
:10189000009709F43DC08091E800877F8093E800BD
:1018A00089819A8197DC8091E8008B778093E800AA
:1018B0002FC0803869F58091E800877F8093E80029
:1018C00080915F038093F1008091E8008E77809390
:1018D000E80058DD1DC08823D9F49091660392304A
:1018E000B8F48091E800877F8093E80090935F03CD
:1018F00049DD80915F03882321F48091E30087FF15
:1019000002C084E001C081E0809363030E94580319
:101910008091E80083FF0AC08091E800877F809370
:10192000E8008091EB0080628093EB00AC960FB6EC
:10193000F894DEBF0FBECDBFDF91CF911F91089508
:101940000895CF93809163038823A9F08091E900E3
:101950008F709091EC0090FF02C0C0E801C0C0E021
:10196000C82B1092E9008091E80083FF01C081DE5E
:10197000CF70C093E900CF9108956F927F928F92BC
:101980009F92AF92BF92CF92DF92EF92FF920F930E
:101990001F93CF93DF9300D00F92CDB7DEB77C01BA
:1019A0006DB67EB68091E80083FF0AC1F7018081A1
:1019B00090E020916803309169032817390709F0F6
:1019C000FFC080916503833009F4A1C0843030F4F6
:1019D000813071F0823009F0F3C0D6C08A3009F44A
:1019E000BBC08B3009F4A4C0893009F0E9C051C0F4
:1019F00080916403813A09F0E3C09DB68EB61B82E4
:101A00001A8280916603009167038983F7014085FC
:101A10008DB79EB7841B91090FB6F8949EBF0FBE79
:101A20008DBFCDB6DEB60894C11CD11CBC2CAD2C2C
:101A3000C60160E070E050E0E4D1402F4150C701A2
:101A4000BE016F5F7F4F96018E010E5F1F4F0E9498
:101A50007703F70186819781009721F04085B601D1
:101A600050E0C6D11092E9008091E800877F809312
:101A7000E8008981882311F08093F1006A817B81DD
:101A80008B2D9A2DF3DA8091E8008B778093E80014
:101A90003BC080916403813209F092C09DB68EB63E
:101AA00000916A0310916B03C0906603D0906703A6
:101AB0008DB79EB7801B910B0FB6F8949EBF0FBEDB
:101AC0008DBFADB6BEB60894A11CB11C8091E800D4
:101AD000877F8093E800C501B8012EDB8091E80084
:101AE0008E778093E80081E090E0CC2011F480E0D4
:101AF00090E04D2D41509501280F391F081B190BFF
:101B0000C7016C2D0E9418059DBE8EBE59C08091E4
:101B10006403813A09F054C08091E800877F809384
:101B2000E8008091E80080FFFCCFF701818540C08C
:101B300080916403813209F043C08091E800877F7F
:101B40008093E8001FDC9091660381E0992309F4FB
:101B500080E0F701818734C080916403813281F590
:101B60008091E800877F8093E8000CDC8091660319
:101B700090916703807036E0969587953A95E1F7E6
:101B8000F701958784871CC080916403813AC1F472
:101B90008091E800877F8093E8008091E80080FFD3
:101BA000FCCFF701848595859695879596958795C1
:101BB0008093F1008091E8008E778093E800E2DB6B
:101BC0000FB6F8947EBE0FBE6DBE0F900F900F90B3
:101BD000DF91CF911F910F91FF90EF90DF90CF9009
:101BE000BF90AF909F908F907F906F900895CF930C
:101BF000DF93FC010996DC0187E0ED0119928A95DB
:101C0000E9F781E0818784EF91E09587848783E01D
:101C10008483CF01019661E079DBDF91CF91089554
:101C20004F925F926F927F928F929F92AF92BF92EC
:101C3000CF92DF92EF92FF920F931F93CF93DF9398
:101C400000D00F92CDB7DEB77C014DB65EB6809165
:101C50006303843009F092C08091E4009091E50024
:101C6000F701228533852817390709F487C0818158
:101C70008F708093E9008091E80085FF7FC07DB67A
:101C80006EB640858DB79EB7841B91090FB6F89448
:101C90009EBF0FBE8DBF0DB71EB70F5F1F4F1982BE
:101CA0001B821A82B02EA12EC80160E070E050E0C5
:101CB000A8D0C701BE016F5F7F4F40E098018E0141
:101CC0000E5F1F4F0E947703182FF70184859585BB
:101CD000009759F081E090E0268537852115310580
:101CE00011F080E090E04C0102C088249924F701B3
:101CF000C680D780C114D10491F04A815B818B2DBD
:101D00009A2DB60168D001E0009709F400E0F701D0
:101D10004085C6016B2D7A2D50E06AD001C000E0ED
:101D20008A819B81009709F1112329F4002319F47A
:101D300081149104D1F0F701848595859787868772
:101D400081818F708093E9008981882311F08093CD
:101D5000F1006A817B818B2D9A2D40E050E036D9CD
:101D60008091E8008E778093E8008091E400909164
:101D7000E500F701938782877DBE6EBE0FB6F894AB
:101D80005EBE0FBE4DBE0F900F900F90DF91CF91B2
:101D90001F910F91FF90EF90DF90CF90BF90AF9089
:101DA0009F908F907F906F905F904F900895AA1BA7
:101DB000BB1B51E107C0AA1FBB1FA617B70710F036
:101DC000A61BB70B881F991F5A95A9F78095909568
:101DD000BC01CD010895FB01DC0104C08D9101908F
:101DE000801921F441505040C8F7881B990B089581
:101DF000FB01DC0102C001900D9241505040D8F728
:101E00000895DC0101C06D9341505040E0F7089502
:041E1000F894FFCF74
:101E140001000400060007009402000028420000AC
:101E24002842000028420000284200002842000006
:101E3400284200002842080009000A000B000C0098
:101E44000D000E000A000000000000000000000069
:101E5400000000000000000000000000000000007E
:101E6400000000000000000000000000000000006E
:101E7400000000000000000000000000000000005E
:101E8400000000000000000000000000000000004E
:101E9400000000000000000000000000000000003E
:101EA400000000000000000000000000000000002E
:101EB400000000000000000000000000000000001E
:101EC400000000000000000000000000000000000E
:101ED4004843000048430000484300004843008151
:101EE4000800000100028000000000000000010062
:101EF400040006000700DF021F03A1200000000009
:0A1F04000200A1010000000000002F
:00000001FF
