:10000000ADC20000E5C20000E3C20000E1C2000092
:10001000DFC20000DDC20000DBC20000D9C2000068
:10002000D7C20000D5C200000C94020ED1C200005D
:10003000CFC20000CDC20000CBC20000C9C2000088
:10004000C7C20000C5C20000C3C20000C1C2000098
:10005000BFC200000C94DE08BBC20000B9C20000A1
:10006000B7C20000B5C20000B3C20000B1C20000B8
:10007000AFC20000ADC20000ABC20000A9C20000C8
:10008000A7C20000A5C20000A3C20000A1C20000D8
:100090009FC200009DC200009BC2000099C20000E8
:1000A00097C2000095C2000093C20000084749565D
:1000B000455F524F43000D474956455F4C49444FF9
:1000C00043414E45000D474956455F50524F504FF2
:1000D000464F4C0010474956455F414E54494249EE
:1000E0004F54494353000D474956455F4B455441D2
:1000F0004D494E45000D474956455F46454E5441D2
:100100004E594C000D474956455F4D4F5250484996
:100110004E45000E474956455F45544F4D494441B1
:1001200054450004484541540004424C4950000ADB
:100130007275676765645F61726D000D41524D5F56
:10014000525F49565F43415448000E41524D5F4C47
:100150005F4553434841525F35000E41524D5F4C5D
:100160005F4553434841525F34000E41524D5F4C4E
:100170005F4553434841525F33000E41524D5F4C3F
:100180005F4553434841525F32000E41524D5F4C30
:100190005F4553434841525F3100024F3200164DD4
:1001A00041534B5F485950455256454E54494C4176
:1001B00054455F5054001C4D41494E5354454D5FCA
:1001C00056454E54494C4154494F4E5F45545F5437
:1001D000554245000742564D5F4F4646001356456F
:1001E0004E54494C4154494F4E5F45545F5455421B
:1001F00045001E45534F5048414745414C5F5645C9
:100200004E54494C4154494F4E5F45545F545542FA
:1002100045000F48454152545F524154453D3133EA
:10022000662C002C034C005500460041002000477E
:100230000065006E006500720069006300200048E0
:1002400000490044002000440065006D006F00007C
:100250000018034400650061006E00200043006147
:10026000006D0065007200610000000403090409CC
:10027000022200010100C032090400000103000055
:100280000009211101000122CA01070581030800AC
:10029000051201100100000008EB034020010001DD
:1002A0000200010600FF0901A101850109021500F4
:1002B00026FF00750895FEB1028502090215002689
:1002C000FF00750895FFB10285030905150026FF9B
:1002D0000075089500810085040906150026FF00B9
:1002E00075089508B10285050907150026FF0075F8
:1002F00008950C810285060908150026FF0075087F
:100300009510B10285070909150026FF00750895AB
:100310000D810285FF090A150026FF007508950862
:10032000B10285FE090B150026FF0075089508B17E
:10033000028508090C150026FF0075089504810246
:100340008508090C150026FF0075089504910285A3
:1003500009090C150026FF0075089504810285091E
:10036000090C150026FF00750895049102850A09FD
:100370000C150026FF00750895048102850A090CFA
:10038000150026FF00750895049102850B090C15D0
:100390000026FF00750895048102850B090C1500E5
:1003A00026FF00750895049102850C090C1500269E
:1003B000FF00750895048102850C090C150026FFC5
:1003C00000750895049102850D090C150026FF00A3
:1003D000750895048102850D090C150026FF00752E
:1003E0000895049102850E090C150026FF0075087A
:1003F00095048102850E090C150026FF00750895ED
:10040000049102850F0900150026FF007508950468
:10041000B1028510090D150026FF00750895408171
:10042000028511090D150026FF007508950191023E
:100430008512090E150026FF00750895FF810285BB
:1004400012090E150026FF00750895FF910285130D
:10045000090F150026FF00750895FF810285130915
:100460000F150026FF00750895FF9102C0024F325C
:10047000000A54454D505F50524F424500085055B8
:100480004C53455F4F58000742505F435546460066
:10049000034543470006464C554944530003524F19
:1004A0004300084C49444F43414E45000850524FC9
:1004B000504F464F4C000B414E544942494F54490E
:1004C000435300084B4554414D494E4500084645AD
:1004D0004E54414E594C00084D4F525048494E45DC
:1004E00000055355434353000945544F4D4944417A
:1004F0005445000456454E54000342564D000D41EC
:10050000524D5F525F49565F434154480003524F7A
:100510004300084C49444F43414E45000850524F58
:10052000504F464F4C000B414E544942494F54499D
:10053000435300084B4554414D494E45000846453C
:100540004E54414E594C00084D4F525048494E456B
:10055000000945544F4D49444154450011241FBEE4
:10056000CFEFDAE0DEBFCDBF04B603FE1BC0809143
:100570005A0690915B06A0915C06B0915D068A3C9C
:100580002CEA920722E4A2072CEDB20759F410924C
:100590005A0610925B0610925C0610925D06E0E02F
:1005A000F8E3099513E0A0E0B1E0E4EDF7E202C062
:1005B00005900D92AA33B107D9F716E0AAE3B3E08C
:1005C00001C01D92AA35B107E1F76FD00C94E81372
:1005D00017CD25B1982F917090952160922395B9F0
:1005E0002BB1982F90729095206292239BB998B16D
:1005F00080789F77892B88B908958091E000816089
:100600008093E000F8948FEF9DE3A9E4815090403F
:10061000A040E1F700C000008AEC9CEAA2E4BCED37
:1006200080935A0690935B06A0935C06B0935D0698
:100630002DE088E190E00FB6F894A89580936000D3
:100640000FBE20936000FFCF84B7877F84BF88E10F
:100650000FB6F89480936000109260000FBEEAE736
:10066000F0E080818760808380818068808380E47F
:1006700080937C0090E080E80FB6F894809361004E
:10068000909361000FBE808180648083769A84B1EC
:100690008E6084B984B1806C84B9209A289A559A66
:1006A0005D9A3F9A47980C94E50DCEDF81E091DF8B
:1006B000789484EA91E00E94A3110E943410F9CF4B
:1006C00080EA87CF81E085CF84EA91E00E948A1199
:1006D0009091E20094609093E200882311F080E210
:1006E00001C081E876CF84EA91E00C9450108091AB
:1006F000B2019091B301009729F001979093B30153
:100700008093B20108954F925F926F927F928F9281
:100710009F92AF92BF92CF92DF92EF92FF920F9390
:100720001F93CF93DF93CDB7DEB72B970FB6F89417
:10073000DEBF0FBECDBF3B0179012801442309F480
:100740005AC0423009F0AEC3DB018C91843031F4E1
:1007500069D5870150D688E090E018C08630D9F47A
:1007600054E9C52E51E0D52E8901D6016D917D91B8
:100770008D919D916D01A801E1D40C5F1F4FB4EAEA
:10078000CB16B1E0DB0689F780E190E0F2019183BE
:10079000808381E088C3813089F4D9018FE08D9313
:1007A00080E090E00196FC01EE5EFD4FE491ED9358
:1007B0008F309105B9F78EEF90E06FC3823089F4E6
:1007C000D9018AE08D9380E090E00196FC01E15D23
:1007D000FE4FE491ED938A309105B9F78FEF90E0E9
:1007E000D5CF8F3009F05EC380917A05D9018C9303
:1007F00084E090E0CBCFDB010C910730A1F4809135
:10080000100190911101009709F44CC38AE091E026
:1008100043D4B7016FD48DE090E0F20191838083DF
:10082000D3010C93B6CF033009F03FC0FE013496DC
:10083000A0E0B1E088E00D9001928150E1F7CE0197
:100840000496B7019E01245F3F4FDC01ED91FD91BD
:10085000CD01EE0FFF1FEC55FA4F4181DB011196E0
:100860004C93119740814C936E5F7F4F8217930793
:1008700061F789E5C82E85E0D82E8701085F1F4FF4
:10088000F60161917191819191916F01A80156D406
:100890000C5F1F4FF9E6CF16F5E0DF0689F783E01E
:1008A000D3018C9388E190E071CF002309F0FAC264
:1008B00080916E05882309F43AC0E091E202F0913C
:1008C000E3028081843409F0EDC28181863109F030
:1008D000E9C21B821A82CF010A96BE016F5F7F4F69
:1008E000AE014E5F5F4FEDD5882309F4DBC28A81EC
:1008F0009B81009709F4D6C24BD699818A812B81BE
:10090000D7019D93E82FF22F03C024912D933196A8
:100910002E2F281B2917C8F383E1D3018C938FEF67
:1009200090E0F2019183808310926E0532CF809126
:100930004E048823C9F0D9018EE18D9380E090E0C8
:100940000196FC01EE50FE4FE491ED938E3191053E
:10095000B9F782E1D3018C938FEF90E0F20191839C
:10096000808310924E0415CF809193058823C9F09F
:10097000D90183E18D9380E090E00196FC01E35280
:10098000FE4FE491ED9383319105B9F782E1D301F4
:100990008C938FEF90E0F201918380831092930506
:1009A000F8CE80916A058823C9F0D90187E08D933C
:1009B00080E090E00196FC01EC52FE4FE491ED9353
:1009C00087309105B9F782E1D3018C938FEF90E0E6
:1009D000F2019183808310926A05DBCE8091A2059B
:1009E0008823C9F0D9018CE18D9380E090E00196D5
:1009F000FC01EA54FE4FE491ED938C319105B9F777
:100A000082E1D3018C938FEF90E0F2019183808398
:100A10001092A205BECE809158058823C9F0D90155
:100A200086E18D9380E090E00196FC01E256FE4F56
:100A3000E491ED9386319105B9F782E1D3018C936E
:100A40008FEF90E0F2019183808310925805A1CE40
:100A50008091A0058823C9F082E0D9018C93EBE94D
:100A6000F1E0849111968C9311973196E49112964E
:100A7000EC9382E1FB0180838FEF90E0D20111962D
:100A80009C938E931092A00584CE8091810588233B
:100A9000D1F0D90184E08D9380E090E00196FC01D3
:100AA000E75DFE4FE491ED9384309105B9F782E163
:100AB000F30180838FEF90E0D20111969C938E9387
:100AC0001092810566CE80916D058823D1F0D90101
:100AD00084E08D9380E090E00196FC01ED5DFE4F97
:100AE000E491ED9384309105B9F782E1F3018083BD
:100AF0008FEF90E0D20111969C938E9310926D052A
:100B000048CE809177058823D1F0D9018EE08D936E
:100B100080E090E00196FC01ED5EFE4FE491ED93E4
:100B20008E309105B9F782E1F30180838FEF90E079
:100B3000D20111969C938E93109277052ACE8091C4
:100B40007C058823D1F0D9018DE08D9380E090E081
:100B50000196FC01EC5FFE4FE491ED938D30910521
:100B6000B9F782E1F30180838FEF90E0D201119613
:100B70009C938E9310927C050CCE80919F058823C8
:100B8000D1F0D9018DE08D9380E090E00196FC01D9
:100B9000EB50FF4FE491ED938D309105B9F782E171
:100BA000F30180838FEF90E0D20111969C938E9396
:100BB00010929F05EECD809169058823D1F0D9016F
:100BC0008DE08D9380E090E00196FC01EA51FF4FAB
:100BD000E491ED938D309105B9F782E1F3018083C3
:100BE0008FEF90E0D20111969C938E93109269053D
:100BF000D0CD8091A1058823D1F0D90180E18D93DA
:100C000080E090E00196FC01EC52FF4FE491ED93FF
:100C100080319105B9F782E1F30180838FEF90E095
:100C2000D20111969C938E931092A105B2CD809122
:100C300091058823D1F0D9018DE08D9380E090E07B
:100C40000196FC01EB53FF4FE491ED938D3091053C
:100C5000B9F782E1F30180838FEF90E0D201119622
:100C60009C938E931092910594CD8091A305882337
:100C7000D1F0D9018DE08D9380E090E00196FC01E8
:100C8000EA54FF4FE491ED938D309105B9F782E17D
:100C9000F30180838FEF90E0D20111969C938E93A5
:100CA0001092A30576CD809190058823D1F0D901CB
:100CB00088E08D9380E090E00196FC01E455FF4FC1
:100CC000E491ED9388309105B9F782E1F3018083D7
:100CD0008FEF90E0D20111969C938E931092900525
:100CE00058CD80916C058130D9F4D9018EE08D9377
:100CF00080E090E00196FC01E657FE4FE491ED9311
:100D00008E309105B9F782E1F30180838FEF90E097
:100D1000D20111969C938E9382E080936C0539CD1D
:100D200080919C058130D9F4D9018EE08D9380E0CB
:100D300090E00196FC01E658FE4FE491ED938E3071
:100D40009105B9F782E1F30180838FEF90E0D20142
:100D500011969C938E9382E080939C051ACD80918E
:100D600092058130D9F4D9018EE08D9380E090E036
:100D70000196FC01E659FE4FE491ED938E3091050A
:100D8000B9F782E1F30180838FEF90E0D2011196F1
:100D90009C938E9382E080939205FBCC80914F04CC
:100DA0008130D9F4D9018EE08D9380E090E00196F6
:100DB000FC01E65AFE4FE491ED938E309105B9F7B0
:100DC00082E1F30180838FEF90E0D20111969C9332
:100DD0008E9382E080934F04DCCC80918305813038
:100DE000D9F4D9018EE08D9380E090E00196FC016A
:100DF000E65BFE4FE491ED938E309105B9F782E109
:100E0000F30180838FEF90E0D20111969C938E9333
:100E100082E080938305BDCC8091100190911101F7
:100E2000009781F08AE091E037D1B70163D18DE07E
:100E300090E0F2019183808387E0D3018C9381E875
:100E4000C8DBA7CC8091BC05882361F18090840524
:100E500090908505A0908605B09087052091940517
:100E600030919505409196055091970560919805B0
:100E70007091990580919A0590919B058701BBD24D
:100E8000A701485F5F4FC501B4012ED11092BC0588
:100E900085E0F30180838CE090E0D20111969C9371
:100EA0008E9377CC80E02B960FB6F894DEBF0FBE02
:100EB000CDBFDF91CF911F910F91FF90EF90DF9009
:100EC000CF90BF90AF909F908F907F906F905F90EA
:100ED0004F9008950F931F93CF93DF93E901413013
:100EE000B1F1423009F096C0623051F481E0809354
:100EF0003D03888180933C03898180933B038AC0B2
:100F0000643021F4C901A0D206D284C0663091F4C5
:100F100004E911E0CE0130D1DC01CB01F80181936D
:100F20009193A193B1938F012496F1E0043A1F07A6
:100F300089F770C06F3F19F481EA4BDB5EDB6F30DD
:100F400009F068C032D381E080936D0563C06131E0
:100F500061F0623120F46D3009F05CC040C0623154
:100F600071F1633109F056C006C08881882309F009
:100F700051C091D24FC08981863561F48A81853410
:100F8000D9F48B818E34C1F48C818435A9F44093DB
:100F90006B0512C0823449F48A81863569F48B81ED
:100FA0008D3451F44093570507C08F3429F48A815A
:100FB000823311F44093A005CE0123D32BC0898145
:100FC000833551F48A81843539F48B818F3421F44F
:100FD0008C81803509F4EBD2CE017CD31BC0C901D2
:100FE000CBD020E030E040E752E40E946A129B013F
:100FF000AC0160E070E080E89FE30E946A1220E0AC
:1010000030E04AE754E40E9454130E94D212DC01FB
:10101000CB01D0D2DF91CF911F910F9108959330E2
:1010200089F0943028F4913049F1923061F505C08F
:101030009132D1F0923239F51CC082E290E0EFE6B5
:10104000F2E025C0813041F0813018F08230D9F4CF
:1010500006C0EBE6F2E005C0E1E5F2E002C0E3E243
:10106000F2E0849190E013C089E090E0E1E8F2E0E2
:101070000EC08AEC91E0E3EAF2E009C082E190E080
:10108000E1E9F2E004C080E090E0E0E0F0E0DA01C5
:101090001196FC93EE930895CF93DF93FC01268184
:1010A000378121153105D9F0C481D581CE01019652
:1010B000608171810E94B7139583848321503040F1
:1010C000378326832DE030E0C29FC001C39F900D7F
:1010D000D29F900D112408968E0F9F1F02C080E0B2
:1010E00090E0DF91CF910895FA019083818372831C
:1010F00063830895EF92FF920F931F93CF93DF9333
:10110000EC017B01288139814A815B816C817D8181
:101110008E819F8187016FD1688579858A859B85BE
:10112000A701485F5F4FE0DF8C85F7018487DF917F
:10113000CF911F910F91FF90EF900895CF93DF9380
:1011400000D000D0CDB7DEB7DC01CB0189839A8314
:10115000AB83BC83DE011196FA0180E090E02D9113
:101160002193019684309105D1F70F900F900F9045
:101170000F90DF91CF910895CF93DF9300D000D0EF
:10118000CDB7DEB7FC01DE01119680E090E0219141
:101190002D93019684309105D1F759814A813B8185
:1011A0002C81852F942FA32FB22FBC01CD010F903E
:1011B0000F900F900F90DF91CF9108951F920F9293
:1011C0000FB60F9211248F939F93AF93BF9380918B
:1011D000450490914604A0914704B09148040196BB
:1011E000A11DB11D8093450490934604A09347042C
:1011F000B0934804BF91AF919F918F910F900FBE14
:101200000F901F9018950F931F9300914504109114
:1012100046042091470430914804B801C9011F9148
:101220000F910895DF92EF92FF920F931F93CF9348
:10123000DF930091450410914604209147043091BA
:10124000480440E050E0BA01F0903D04B0913E0403
:10125000A0913F04D09040048091410490914204B9
:10126000E0904304E0914404F00ED1E0F01608F061
:10127000D0E0B10FC1E0B11708F0C0E0DB0FF1E042
:10128000DB1708F0F0E0CF2BA20FB1E0A21708F0B7
:10129000B0E0CA0FF1E0CA1708F0F0E0BF2BF32F5F
:1012A000FD0DA1E0F31708F0A0E0BF0FDD24D394FB
:1012B000BF1708F0DD24AD29F1E0841708F0F0E055
:1012C000A80FDD24D394A81708F0DD24FD2981E0C0
:1012D000951708F080E0F90FDD24D394F91708F092
:1012E000DD248D2991E0E61608F090E08E0D21E0D6
:1012F0008E1508F020E0922B2F2D3D2F4C2F5B2FC9
:101300006A2F7F2F9E0FDF91CF911F910F91FF903A
:10131000EF90DF900895DF92EF92FF920F931F936B
:10132000CF93DF93F901DA01EB01009145041091AD
:1013300046042091470430914804DE2ED01AEE2452
:10134000E394ED1508F0EE24EF2FE11BFF24F39456
:10135000FE1708F0FF24FE2FFE19EF2EF1E0EE1528
:1013600008F0F0E0FF2AFA2FF21BE1E0AF1708F0D7
:10137000E0E0AF2FAF19FF24F394FA1708F0FF2431
:10138000EF29FB2FF31B3F2F21E0BF1708F020E0D0
:10139000532F5E1B41E0351708F040E0242B4C2F03
:1013A000421B21E0C41708F020E03D2F321B21E052
:1013B000D31708F020E0682F621B262F61E0821708
:1013C00008F060E0961BD0923D04E0923E04A093AA
:1013D0003F045093400440934104309342042093CF
:1013E000430490934404DF91CF911F910F91FF909C
:1013F000EF90DF9008950F931F93CF93DF93CDB7B6
:10140000DEB728970FB6F894DEBF0FBECDBF298395
:101410003A834B835C836D837E838F839887DE0161
:101420001996F801CE0101962E912193A817B907BC
:10143000D9F728960FB6F894DEBF0FBECDBFDF9167
:10144000CF911F910F910895CF93DF93CDB7DEB762
:1014500028970FB6F894DEBF0FBECDBFDC011896FB
:10146000FE01319680E090E02E9121930196883024
:101470009105D1F729813A814B815C816D817E8113
:101480008F81988528960FB6F894DEBF0FBECDBF2A
:10149000DF91CF9108958091C80085FFFCCF83E450
:1014A0008093CE008091C80085FFFCCF83E08093BD
:1014B000CE008091C80085FFFCCF81E08093CE00F4
:1014C00008954F925F926F927F928F929F92AF9208
:1014D000BF92CF92DF92EF92FF920F931F93CF9321
:1014E000DF935C013B012A018EDE6B017C0100E091
:1014F00010E024E1822E912C089DE001099DD00D81
:10150000189DD00D1124CC54DE4FC501BE014CE016
:1015100050E00E94CB13009721F588899989AA8908
:10152000BB89A7019601281B390B4A0B5B0BDA011B
:10153000C901C88AD98AEA8AFB8A893833E19307C4
:1015400030E0A30730E0B30750F0EC85FD85E4916F
:10155000D301EC938E859F85F2019183808381E096
:1015600006C00F5F1F4F0F30110531F680E0DF918D
:10157000CF911F910F91FF90EF90DF90CF90BF9090
:10158000AF909F908F907F906F905F904F90089555
:101590003ADEDC01CB018093010690930206A09312
:1015A0000306B09304062F9A08952F9A0895109277
:1015B0004506089521E0209345068534910514F4ED
:1015C00084E490E09093E5028093E4020895DC01C6
:1015D00080E090E00AC02D91FB01E80FF91FE49133
:1015E0002E1748F0E21750F00196841795079CF3E8
:1015F00080E090E008958FEF9FEF089581E090E004
:1016000008950F931F93CF93DF93EC011881412F1F
:101610001A3008F049E0CE0161E575E050E0D7DF0F
:10162000009711F481E04FC0012F193008F008E055
:10163000CE0167E475E0402F50E0C9DF009711F458
:1016400082E041C0CE016DE375E0402F50E0BFDF86
:10165000009711F483E037C0CE0163E375E0402FBB
:1016600050E0B5DF009711F484E02DC0412F1C300D
:1016700008F04BE0CE0166E275E050E0A8DF00978D
:1016800011F485E020C0CE016CE175E0402F50E000
:101690009EDF009711F486E016C0CE0162E175E08E
:1016A000402F50E094DF009711F487E00CC0412FE9
:1016B000143008F043E0CE016DE075E050E087DFC4
:1016C000009719F488E080934904DF91CF911F912E
:1016D0000F9108956EEF74E04DE050E078DF0097D1
:1016E00019F481E080934A060895AF92BF92CF9299
:1016F000DF92EF92FF921F93CF93DF93EC017B0178
:101700006A01F0D1182F8823A9F5C114D10439F04A
:10171000F60120813181E21AF30AC20FD31FAA24F5
:10172000BB2423C08091E80085FD16C08091E800AD
:101730008E778093E80098D4C114D10449F0F60163
:10174000808191818A0D9B1D9183808315E012C059
:10175000C9D1882351F00DC089918093F10008947C
:10176000E108F1080894A11CB11CE114F104D1F6C0
:1017700001C0182F812FDF91CF911F91FF90EF9023
:10178000DF90CF90BF90AF90089540915806509150
:1017900059064617570720F4BA01FC0140E03DC046
:1017A00061157105D1F74091E8004E774093E8004C
:1017B000F4CF80915106882309F447C0853009F49D
:1017C00046C08091E80083FD3EC08091E80082FD24
:1017D00034C08091E80080FF20C09091F300809198
:1017E000F200392F20E090E0822B932B06C041912C
:1017F0004093F1006150704001966115710519F038
:1018000088309105A0F341E08830910509F040E06F
:101810008091E8008E778093E8006115710549F6A4
:10182000442339F60AC080915106882371F085302F
:1018300071F08091E80083FD0CC08091E80082FF88
:10184000F2CF80E0089581E0089582E0089583E07A
:10185000089581E008956115710529F44091E8002B
:101860004B774093E800582F492F2BC080915106A9
:101870008823D9F18530A9F18091E80083FD33C038
:101880008091E80082FFF2CFE52FF42F08C080910D
:10189000F10081935E2F4F2F6150704069F05E2FF1
:1018A0004F2F9091F3008091F200392F20E090E0CB
:1018B000822B932B009759F78091E8008B778093C8
:1018C000E8006115710591F606C0809151068823E4
:1018D00061F0853061F08091E80080FFF6CF80E014
:1018E000089583E0089581E0089582E0089583E0FB
:1018F000089540915806509159064617570720F40D
:10190000BA01FC0140E03EC061157105D1F740917C
:10191000E8004E774093E800F4CF80915106882389
:1019200009F448C0853009F447C08091E80083FD80
:101930003FC08091E80082FD35C08091E80080FFC3
:1019400021C09091F3008091F200392F20E090E0C7
:10195000822B932B07C044914093F1003196615044
:10196000704001966115710519F08830910598F362
:1019700041E08830910509F040E08091E8008E77E1
:101980008093E8006115710541F6442331F60AC0E1
:1019900080915106882371F0853071F08091E800C4
:1019A00083FD0CC08091E80082FFF2CF80E00895B3
:1019B00081E0089582E0089583E0089581E008952C
:1019C000982F2AC09093E900981739F07091EC0095
:1019D0002091ED005091F00003C0242F762F50E0AD
:1019E00021FF19C03091EB003E7F3093EB00309126
:1019F000ED003D7F3093ED003091EB00316030938E
:101A0000EB007093EC002093ED005093F0002091D8
:101A1000EE0027FF08C09F5F9730A0F28F70809381
:101A2000E90081E0089580E008950F931F93CF931C
:101A3000DF93162FEC0100E02AC09881992329F149
:101A40006B81E981FA812C81892F8F70873018F59D
:101A50006295660F660F607C991F9927991F692B05
:101A6000223010F096E001C092E028E030E040E043
:101A700003C04F5F220F331F2E173F07D0F342954D
:101A8000407F492B9DDF882331F00F5F259601179A
:101A9000A1F681E001C080E0DF91CF911F910F910D
:101AA00008958091520687FF13C004C080915106AB
:101AB0008823B9F08091E80082FFF8CF8091E80098
:101AC0008B778093E800089580915106882349F030
:101AD0008091E80080FFF8CF8091E8008E778093B6
:101AE000E80008958091E4009091E50045E601C08A
:101AF000C9012091EC0020FF23C02091E80020FDC7
:101B000015C020915106222399F0253099F020919B
:101B1000EB0025FD11C02091E4003091E50028176D
:101B2000390739F3415021F784E0089580E00895A2
:101B300082E0089583E0089581E0089580E00895AB
:101B40002091E80022FFDDCFF9CF0F931F93CF93B1
:101B5000DF934BD052D0C8EDD0E088818F77888357
:101B600088818068888388818F7D888319BC1092E2
:101B7000510610924D0610924F0610924E0600EE3E
:101B800010E0F80180818B7F808388818160888369
:101B900080E060E042E014DFE1EEF0E080818E7FE3
:101BA0008083E2EEF0E080818160808380818860C4
:101BB0008083F80180818E7F808388818061888323
:101BC000DF91CF911F910F910895E8EDF0E08081B2
:101BD0008F7E8083E7EDF0E080818160808384E008
:101BE00082BF81E080935006B0CFE8EDF0E08081C5
:101BF0008E7F80831092E20008951092DA00109296
:101C0000E10008951F920F920FB60F9211242F93A7
:101C10003F934F935F936F937F938F939F93AF9374
:101C2000BF93EF93FF938091E10082FF0BC08091FF
:101C3000E20082FF07C08091E1008B7F8093E1008A
:101C40000E9477038091DA0080FF1FC08091D80046
:101C500080FF1BC08091DA008E7F8093DA00809134
:101C6000D90080FF0DC080E189BD82E189BD09B442
:101C700000FEFDCF81E0809351060E94600305C005
:101C800019BC109251060E9462038091E10080FF0E
:101C900018C08091E20080FF14C08091E2008E7F26
:101CA0008093E2008091E20080618093E200809165
:101CB000D80080628093D80019BC85E080935106DB
:101CC000D2D18091E10084FF2FC08091E20084FF97
:101CD0002BC080E189BD82E189BD09B400FEFDCF42
:101CE0008091D8008F7D8093D8008091E1008F7E15
:101CF0008093E1008091E2008F7E8093E2008091EA
:101D0000E20081608093E20080914D06882311F00B
:101D100084E007C08091E30087FF02C083E001C038
:101D200081E0809351069FD18091E10083FF22C022
:101D30008091E20083FF1EC08091E100877F809345
:101D4000E10082E08093510610924D068091E100FF
:101D50008E7F8093E1008091E2008E7F8093E2008D
:101D60008091E20080618093E20080E060E042E0E8
:101D700027DE79D1FF91EF91BF91AF919F918F9124
:101D80007F916F915F914F913F912F910F900FBE77
:101D90000F901F9018951F93CF93DF93CDB7DEB7A9
:101DA000AC970FB6F894DEBF0FBECDBF80E0E2E582
:101DB000F6E09091F10091938F5F8830D1F70E9407
:101DC00073038091E80083FF36C180915206209111
:101DD0005306253009F484C0263040F42130A1F1A7
:101DE000213070F0233009F026C12EC0283009F4CC
:101DF000F3C0293009F402C1263009F01CC193C098
:101E0000803821F0823809F016C108C080914E0652
:101E100090914F06992371F082600CC08091560614
:101E20008F708093E9009091EB0081E095FF80E056
:101E30001092E9009091E800977F9093E8008093DA
:101E4000F1001092F100D3C0882319F0823009F01C
:101E5000F2C090E08F719070009729F08230910568
:101E600009F0E9C00BC080915406813009F0E3C04D
:101E7000233009F080E080934F062CC080915406F7
:101E8000882341F5209156062F7009F4D4C0209381
:101E9000E9008091EB0080FF1DC0809153068330E4
:101EA00021F48091EB00806213C08091EB0080618F
:101EB0008093EB0081E090E002C0880F991F2A9583
:101EC000E2F78093EA001092EA008091EB008860CC
:101ED0008093EB001092E9008091E800877F8AC030
:101EE000882309F0A8C0109154061F778091E30061
:101EF0008078812B8093E3008091E800877F809336
:101F0000E800CFDD8091E80080FFFCCF8091E30006
:101F100080688093E300112311F083E001C082E028
:101F20008093510688C08058823008F084C0809128
:101F300054069091550623E08C3D9207A9F583E065
:101F40008C838AE28B835FB7F894DE01139680E07E
:101F500090E04EE061E2E42FF0E060935700E491FE
:101F600080FF03C0E295EF704F5FEF702E2F30E0DF
:101F7000EA3018F0295C3F4F02C0205D3F4F1396B6
:101F80003C932E931297019612968431910519F77E
:101F90005FBF8091E800877F8093E800CE010396C1
:101FA0006AE270E0F2DB12C060915606AE014F5F4C
:101FB0005F4F35D8BC01009709F43DC08091E8001F
:101FC000877F8093E80089819A8193DC8091E80083
:101FD0008B778093E8002FC0803869F58091E80006
:101FE000877F8093E80080914D068093F100809177
:101FF000E8008E778093E80054DD1DC08823D9F473
:10200000909154069230B8F48091E800877F8093D5
:10201000E80090934D0645DD80914D06882321F41C
:102020008091E30087FF02C084E001C081E08093DB
:1020300051060E9464038091E80083FF0AC08091EA
:10204000E800877F8093E8008091EB0080628093B6
:10205000EB00AC960FB6F894DEBF0FBECDBFDF919C
:10206000CF911F9108950895CF93809151068823B1
:10207000A9F08091E9008F709091EC0090FF02C070
:10208000C0E801C0C0E0C82B1092E9008091E800D0
:1020900083FF01C080DECF70C093E900CF91089527
:1020A0006F927F928F929F92AF92BF92CF92DF9268
:1020B000EF92FF920F931F93CF93DF9300D00F9275
:1020C000CDB7DEB77C016DB67EB68091E80083FFA8
:1020D0000AC1F701808190E02091560630915706A1
:1020E0002817390709F0FFC080915306833009F49F
:1020F000A1C0843030F4813071F0823009F0F3C037
:10210000D6C08A3009F4BBC08B3009F4A4C0893032
:1021100009F0E9C051C080915206813A09F0E3C04C
:102120009DB68EB61B821A82809154060091550688
:102130008983F70140858DB79EB7841B91090FB63F
:10214000F8949EBF0FBE8DBFCDB6DEB60894C11CFD
:10215000D11CBC2CAD2CC60160E070E050E031D346
:10216000402F4150C701BE016F5F7F4F96018E0126
:102170000E5F1F4F0E948303F701868197810097AE
:1021800021F04085B60150E013D31092E900809110
:10219000E800877F8093E8008981882311F080938D
:1021A000F1006A817B818B2D9A2DEFDA8091E80016
:1021B0008B778093E8003BC080915206813209F012
:1021C00092C09DB68EB60091580610915906C090E7
:1021D0005406D09055068DB79EB7801B910B0FB655
:1021E000F8949EBF0FBE8DBFADB6BEB60894A11CBD
:1021F000B11C8091E800877F8093E800C501B80199
:102200002ADB8091E8008E778093E80081E090E0FF
:10221000CC2011F480E090E04D2D41509501280F25
:10222000391F081B190BC7016C2D0E946A079DBE40
:102230008EBE59C080915206813A09F054C08091F7
:10224000E800877F8093E8008091E80080FFFCCF62
:10225000F701818540C080915206813209F043C068
:102260008091E800877F8093E8001BDC9091540602
:1022700081E0992309F480E0F701818734C08091DF
:102280005206813281F58091E800877F8093E800D3
:1022900008DC8091540690915506807036E0969542
:1022A00087953A95E1F7F701958784871CC080915F
:1022B0005206813AC1F48091E800877F8093E8005C
:1022C0008091E80080FFFCCFF70184859585969585
:1022D0008795969587958093F1008091E8008E7799
:1022E0008093E800DEDB0FB6F8947EBE0FBE6DBEB5
:1022F0000F900F900F90DF91CF911F910F91FF9052
:10230000EF90DF90CF90BF90AF909F908F907F9095
:102310006F900895CF93DF93FC010996DC0187E06D
:10232000ED0119928A95E9F781E0818784EF91E0C8
:102330009587848783E08483CF01019661E075DB14
:10234000DF91CF9108954F925F926F927F928F921B
:102350009F92AF92BF92CF92DF92EF92FF920F9334
:102360001F93CF93DF9300D00F92CDB7DEB77C01E0
:102370004DB65EB680915106843009F092C08091CE
:10238000E4009091E500F70122853385281739078D
:1023900009F487C081818F708093E9008091E80003
:1023A00085FF7FC07DB66EB640858DB79EB7841B16
:1023B00091090FB6F8949EBF0FBE8DBF0DB71EB723
:1023C0000F5F1F4F19821B821A82B02EA12EC801E7
:1023D00060E070E050E0F5D1C701BE016F5F7F4F54
:1023E00040E098018E010E5F1F4F0E948303182F5B
:1023F000F70184859585009759F081E090E0268566
:1024000037852115310511F080E090E04C0102C0C4
:1024100088249924F701C680D780C114D10491F093
:102420004A815B818B2D9A2DB601B5D101E00097D1
:1024300009F400E0F7014085C6016B2D7A2D50E0CC
:10244000B7D101C000E08A819B81009709F1112377
:1024500029F4002319F481149104D1F0F701848543
:1024600095859787868781818F708093E900898120
:10247000882311F08093F1006A817B818B2D9A2D46
:1024800040E050E032D98091E8008E778093E800F8
:102490008091E4009091E500F701938782877DBEEB
:1024A0006EBE0FB6F8945EBE0FBE4DBE0F900F907D
:1024B0000F90DF91CF911F910F91FF90EF90DF90E0
:1024C000CF90BF90AF909F908F907F906F905F90D4
:1024D0004F9008950CD0AEC0A6D040F09DD030F003
:1024E00021F45F3F19F08FC05111D8C092C0B3D012
:1024F00098F39923C9F35523B1F3951B550BBB27CB
:10250000AA2762177307840738F09F5F5F4F220F77
:10251000331F441FAA1FA9F333D00E2E3AF0E0E870
:1025200030D091505040E695001CCAF729D0FE2FBC
:1025300027D0660F771F881FBB1F2617370748074E
:10254000AB07B0E809F0BB0B802DBF01FF27935804
:102550005F4F2AF09E3F510568F055C09FC05F3F16
:10256000ECF3983EDCF3869577956795B795F795EC
:102570009F5FC9F7880F911D9695879597F90895E4
:10258000E1E0660F771F881FBB1F62177307840780
:10259000BA0720F0621B730B840BBA0BEE1F88F78F
:1025A000E095089504D06894B11178C008955BD087
:1025B00088F09F5790F0B92F9927B751A0F0D1F02C
:1025C000660F771F881F991F1AF0BA95C9F712C0B6
:1025D000B13081F062D0B1E008955FC0672F782FED
:1025E0008827B85F39F0B93FCCF386957795679522
:1025F000B395D9F73EF490958095709561957F4F8E
:102600008F4F9F4F089597F99F6780E870E060E0D3
:1026100008959FEF80EC089500240A94161617067B
:1026200018060906089500240A94121613061406C3
:1026300005060895092E0394000C11F4882352F026
:10264000BB0F40F4BF2B11F460FF04C06F5F7F4FDE
:102650008F4F9F4F089557FD9058440F551F59F0C5
:102660005F3F71F04795880F97FB991F61F09F3F7F
:1026700079F087950895121613061406551FF2CFA8
:102680004695F1DF08C0161617061806991FF1CFF8
:1026900086957105610508940895E894BB2766271F
:1026A0007727CB0197F908950BD0C4CFB5DF28F079
:1026B000BADF18F0952309F0A6CFABCF1124EECFE7
:1026C000CADFA0F3959FD1F3950F50E0551F629F8D
:1026D000F001729FBB27F00DB11D639FAA27F00D7B
:1026E000B11DAA1F649F6627B00DA11D661F829FA2
:1026F0002227B00DA11D621F739FB00DA11D621F87
:10270000839FA00D611D221F749F3327A00D611DA3
:10271000231F849F600D211D822F762F6A2F112485
:102720009F5750408AF0E1F088234AF0EE0FFF1FD8
:10273000BB1F661F771F881F91505040A9F79E3F0F
:10274000510570F060CFAACF5F3FECF3983EDCF309
:10275000869577956795B795F795E7959F5FC1F74C
:10276000FE2B880F911D9695879597F90895AA1BC2
:10277000BB1B51E107C0AA1FBB1FA617B70710F06C
:10278000A61BB70B881F991F5A95A9F7809590959E
:10279000BC01CD010895FB01DC0104C08D910190C5
:1027A000801921F441505040C8F7881B990B0895B7
:1027B000FB01DC0102C001900D9241505040D8F75E
:1027C0000895DC0101C06D9341505040E0F7089539
:0427D000F894FFCFAB
:1027D4000100040006000700F9010A0000000000DF
:1027E40000000000000000000000000000000000E5
:1027F40000000000000000000000000000000000D5
:1028040000000000000000000000000000000000C4
:1028140000000000000000000000000000000000B4
:1028240000000000000000000000000000000000A4
:102834000000000000000000000000000000000094
:102844000000000000000000000000000000000084
:102854000000000000000000000000000000000074
:1028640000000000000048430000484300004843C3
:10287400000048430081080000013E03FF000000FF
:1028840000000000E28068100000003960119746E3
:10289400F904FA0400000000AD4606024660AF7970
:1028A40060000068E804E90400000000AD46060288
:1028B4004660937860000064E104E20400000000D4
:1028C400AD4606024660917560000065E104E204CD
:1028D40000000000E280681000000039148C72E0EF
:1028E400D704D80400000000AD46060246609D737C
:1028F40061000066D704D80400000000AD4606025B
:102904004660A57860000067CD04CE040000000096
:10291400E280681000000039148C72E39504960478
:1029240000000000AD4606024660E1786000006DDC
:10293400AC04AD0400000000AD4606024660D57B41
:102944006000006C9D049E0400000000AD46060279
:102954004660CD756100006B9D049E04000000007C
:10296400AD4606024660C3766100006A6D046E04DB
:1029740000000000E280681000000039148C732A03
:102984009004910400000000E28068100000003907
:10299400148C732D7D047E0400000000AD460602F5
:1029A4004660E97A6000006E870488040000000035
:1029B400BD050506A4032A29282726252423222128
:1029C400201F28333E49545F6A76818C97A2ADB8A4
:1029D400C3CFDAE5F0FBF9EFE5DBD1C7BEB4AAA0BB
:1029E400968C83796F655B52483E342A20202122DD
:1029F400232425262728292B2C2DA1200000000084
:0A2A04000200A10100000000000024
:00000001FF
