:10000000D0C1000008C2000006C2000004C2000007
:1000100002C2000000C20000FEC10000FCC10000DE
:10002000FAC10000F8C100000C94DF08F4C1000020
:10003000F2C10000F0C10000EEC10000ECC1000000
:10004000EAC10000E8C10000E6C10000E4C1000010
:10005000E2C100008DC30000DEC10000DCC1000071
:10006000DAC10000D8C10000D6C10000D4C1000030
:10007000D2C10000D0C10000CEC10000CCC1000040
:10008000CAC10000C8C10000C6C10000C4C1000050
:10009000C2C10000C0C10000BEC10000BCC1000060
:1000A000BAC10000B8C10000B6C100000E524649F6
:1000B000445F70726F78696D697479000950524FAE
:1000C000583D3139732C002C034C0055004600413B
:1000D000002000470065006E006500720069006343
:1000E0000020004800490044002000440065006DE5
:1000F000006F00000018034400650061006E0020DE
:1001000000430061006D00650072006100000004A2
:1001100003090409022200010100C03209040000A1
:10012000010300000009211101000122CA01070595
:1001300081030800051201100100000008EB0340D4
:10014000200100010200010600FF0901A101850153
:100150000902150026FF00750895FEB10285020907
:1001600002150026FF00750895FFB10285030905F9
:10017000150026FF00750895008100850409061505
:100180000026FF0075089508B102850509071500CE
:1001900026FF007508950C810285060908150026C2
:1001A000FF0075089510B10285070909150026FFA3
:1001B000007508950D810285FF090A150026FF00CC
:1001C00075089508B10285FE090B150026FF00751C
:1001D000089508B1028508090C150026FF0075086E
:1001E000950481028508090C150026FF0075089505
:1001F0000491028509090C150026FF007508950475
:1002000081028509090C150026FF007508950491E7
:1002100002850A090C150026FF0075089504810265
:10022000850A090C150026FF0075089504910285C2
:100230000B090C150026FF00750895048102850B3B
:10024000090C150026FF00750895049102850C091C
:100250000C150026FF00750895048102850C090C19
:10026000150026FF00750895049102850D090C15EF
:100270000026FF00750895048102850D090C150004
:1002800026FF00750895049102850E090C150026BD
:10029000FF00750895048102850E090C150026FFE4
:1002A00000750895049102850F0900150026FF00CE
:1002B00075089504B1028510090D150026FF00751B
:1002C00008954081028511090D150026FF0075086B
:1002D000950191028512090E150026FF00750895FB
:1002E000FF81028512090E150026FF00750895FF93
:1002F00091028513090F150026FF00750895FF81EF
:10030000028513090F150026FF00750895FF91025D
:10031000C0024F32000A54454D505F50524F424583
:10032000000850554C53455F4F58000742505F43FB
:1003300055464600034543470006464C554944533D
:100340000003524F4300084C49444F43414E45007F
:100350000850524F504F464F4C000B414E544942AB
:10036000494F5449435300084B4554414D494E456C
:10037000000846454E54414E594C00084D4F5250CE
:1003800048494E4500055355434353000945544FD2
:100390004D4944415445000456454E5400034256CD
:1003A0004D0011241FBECFEFDAE0DEBFCDBF04B693
:1003B00003FE1BC08091440490914504A091460423
:1003C000B09147048A3C2CEA920722E4A2072CED64
:1003D000B20759F410924404109245041092460456
:1003E00010924704E0E0F8E3099512E0A0E0B1E0E4
:1003F000E4ECFAE102C005900D92A437B107D9F7F9
:1004000014E0A4E7B2E001C01D92A434B107E1F703
:100410006ED00C94600DF4CD25B1982F917090950D
:100420002160922395B92BB1982F907290952062FC
:1004300092239BB998B180789F77892B88B90895CA
:100440008091E00081608093E000F8948FEF9DE35D
:10045000A9E481509040A040E1F700C000008AEC80
:100460009CEAA2E4BCED8093440490934504A093DD
:100470004604B09347042DE088E190E00FB6F8946D
:10048000A895809360000FBE20936000FFCF84B7D3
:10049000877F84BF88E10FB6F89480936000109244
:1004A00060000FBEEAE7F0E0808187608083808192
:1004B0008068808380E480937C0090E080E80FB6C1
:1004C000F89480936100909361000FBE80818064F6
:1004D0008083769A84B18E6084B984B1806C84B94B
:1004E000209A289A559A5D9A3F9A47984BC6CFDF33
:1004F00081E092DF789487E690E09093CD0080933E
:10050000CC0086E08093CA001092C80088E18093F6
:10051000C900539A5A9A15D380E191E00E947C0C4D
:100520000E940D0B1AD364D380939603F5CF80EA13
:1005300073CF81E071CF80E191E00E94630C9091D4
:10054000E20094609093E200882311F080E201C001
:1005500081E862CF80E191E00C94290B80911E012B
:1005600090911F01009729F0019790931F018093AC
:100570001E010895AF92BF92CF92DF92EF92FF9249
:100580000F931F93CF93DF9300D00F92CDB7DEB7B9
:100590006B01F22EE32E5801442309F43BC0423094
:1005A00009F078C0FB018081843039F415D10F2D1A
:1005B0001E2DFBD188E090E013C08130B1F4A22F52
:1005C000B32F89E08D9380E090E00196FC01E45424
:1005D000FF4FE491ED9389309105B9F78EEF90E0EC
:1005E000F5019183808381E056C0823009F052C0CA
:1005F000A22FB32F8EE08D9380E090E00196FC0156
:10060000E455FF4FE491ED938E309105B9F78FEFEC
:1006100090E0E6CFFB018081882309F03BC0809108
:1006200094038823B9F1E0916202F0916302808122
:10063000843481F58181863169F51B821A82CF016C
:100640000A96BE016F5F7F4FAE014E5F5F4F13D2C0
:10065000882301F18A819B810097E1F0BCD29981C6
:100660008A812B81AF2DBE2D9D93E82FF22F03C0E1
:1006700024912D9331962E2F281B2917C8F383E13F
:10068000F60180838FEF90E0F501918380831092D3
:100690009403A9CF80E00F900F900F90DF91CF913E
:1006A0001F910F91FF90EF90DF90CF90BF90AF9090
:1006B0000895F9014130C1F04230E1F4623051F463
:1006C00081E080937602808180937502818180939E
:1006D00074020895643019F4C90190D1F6C06F3FD7
:1006E00049F481EA99DEACDE613121F4808188230E
:1006F00009F4ABC10895933089F0943028F4913017
:1007000049F1923061F505C09132D1F0923239F55C
:100710001CC082E290E0E3E1F1E025C0813041F0CD
:10072000813018F08230D9F406C0EFE0F1E005C066
:10073000E5EFF0E002C0E7ECF0E0849190E013C058
:1007400089E090E0E5E2F1E00EC08AEC91E0E7E4B8
:10075000F1E009C082E190E0E5E3F1E004C080E06F
:1007600090E0E0E0F0E0DA011196FC93EE9308955A
:100770001F920F920FB60F9211248F939F93AF93F6
:10078000BF9380917E0390917F03A0918003B091ED
:1007900081030196A11DB11D80937E0390937F0379
:1007A000A0938003B0938103BF91AF919F918F91EC
:1007B0000F900FBE0F901F9018950F931F930091ED
:1007C0007E0310917F032091800330918103B80153
:1007D000C9011F910F910895DF92EF92FF920F933D
:1007E0001F93CF93DF9300917E0310917F0320919D
:1007F00080033091810340E050E0BA01F09076032D
:10080000B0917703A0917803D090790380917A0317
:1008100090917B03E0907C03E0917D03F00ED1E0AA
:10082000F01608F0D0E0B10FC1E0B11708F0C0E059
:10083000DB0FF1E0DB1708F0F0E0CF2BA20FB1E007
:10084000A21708F0B0E0CA0FF1E0CA1708F0F0E014
:10085000BF2BF32FFD0DA1E0F31708F0A0E0BF0FB1
:10086000DD24D394BF1708F0DD24AD29F1E084170F
:1008700008F0F0E0A80FDD24D394A81708F0DD24D9
:10088000FD2981E0951708F080E0F90FDD24D3946D
:10089000F91708F0DD248D2991E0E61608F090E0C4
:1008A0008E0D21E08E1508F020E0922B2F2D3D2F8C
:1008B0004C2F5B2F6A2F7F2F9E0FDF91CF911F91BF
:1008C0000F91FF90EF90DF900895DF92EF92FF92EB
:1008D0000F931F93CF93DF93F901DA01EB0100919E
:1008E0007E0310917F032091800330918103DE2EDF
:1008F000D01AEE24E394ED1508F0EE24EF2FE11B5F
:10090000FF24F394FE1708F0FF24FE2FFE19EF2EAC
:10091000F1E0EE1508F0F0E0FF2AFA2FF21BE1E01B
:10092000AF1708F0E0E0AF2FAF19FF24F394FA17E8
:1009300008F0FF24EF29FB2FF31B3F2F21E0BF1707
:1009400008F020E0532F5E1B41E0351708F040E02F
:10095000242B4C2F421B21E0C41708F020E03D2F30
:10096000321B21E0D31708F020E0682F621B262FEE
:1009700061E0821708F060E0961BD0927603E09267
:100980007703A09378035093790340937A033093CD
:100990007B0320937C0390937D03DF91CF911F9184
:1009A0000F91FF90EF90DF9008950F931F93CF93D7
:1009B000DF93CDB7DEB728970FB6F894DEBF0FBE32
:1009C000CDBF29833A834B835C836D837E838F8382
:1009D0009887DE011996F801CE0101962E91219398
:1009E000A817B907D9F728960FB6F894DEBF0FBE3F
:1009F000CDBFDF91CF911F910F910895CF93DF93DA
:100A0000CDB7DEB728970FB6F894DEBF0FBECDBFC7
:100A1000DC011896FE01319680E090E02E91219342
:100A2000019688309105D1F729813A814B815C810B
:100A30006D817E818F81988528960FB6F894DEBFF0
:100A40000FBECDBFDF91CF9108958091C80085FF83
:100A5000FCCF83E48093CE008091C80085FFFCCF5B
:100A600083E08093CE008091C80085FFFCCF81E0B9
:100A70008093CE0008954F925F926F927F928F92F3
:100A80009F92AF92BF92CF92DF92EF92FF920F931D
:100A90001F93CF93DF935C013B012A018EDE6B0134
:100AA0007C0100E010E024E1822E912C089DE00101
:100AB000099DD00D189DD00D1124C05EDE4FC501DB
:100AC000BE014CE050E0DFD7009721F58889998975
:100AD000AA89BB89A7019601281B390B4A0B5B0B1E
:100AE000DA01C901C88AD98AEA8AFB8A893833E1DE
:100AF000930730E0A30730E0B30750F0EC85FD85A5
:100B0000E491D301EC938E859F85F20191838083DC
:100B100081E006C00F5F1F4F0031110539F680E0FC
:100B2000DF91CF911F910F91FF90EF90DF90CF90C9
:100B3000BF90AF909F908F907F906F905F904F90FD
:100B400008953BDEDC01CB018093EF039093F0032B
:100B5000A093F103B093F2030895CF92DF92EF9246
:100B6000FF922BDE6B017C018091EF039091F003EB
:100B7000A091F103B091F203A7019601281B390B54
:100B80004A0B5B0B2B3F31054105510548F0C092E4
:100B9000EF03D092F003E092F103F092F20355DFFD
:100BA0008091F3039091F403A091F503B091F603C3
:100BB000C81AD90AEA0AFB0A35EFC31631E0D30690
:100BC00030E0E30630E0F30608F02F98FF90EF9056
:100BD000DF90CF900895F1DDDC01CB018093F3032A
:100BE0009093F403A093F503B093F6032F9A08951E
:100BF00053C0E0916002F091610220918203309134
:100C000083038091C80087FF03C08091CE0002C09B
:100C10008FEF9FEFE20FF31F80838091820390910B
:100C2000830301969093830380938203813091051F
:100C300081F4E0916002F09161028081843461F17D
:100C4000893151F18B3141F110928303109282036B
:100C500023C08230910504F1E0916002F0916102BD
:100C6000218130E0821793071CF480349105A4F0B1
:100C70008091620290916302F0936302E0936202BA
:100C8000909361028093600210928303109282031A
:100C900081E08093940308958091C80087FDA9CFD7
:100CA00080E00895AF92BF92CF92DF92EF92FF92D1
:100CB0001F93CF93DF93EC017B016A01F0D1182FD2
:100CC0008823A9F5C114D10439F0F60120813181BE
:100CD000E21AF30AC20FD31FAA24BB2423C08091B7
:100CE000E80085FD16C08091E8008E778093E800CB
:100CF00094D4C114D10449F0F601808191818A0D08
:100D00009B1D9183808315E012C0C9D1882351F0C7
:100D10000DC089918093F1000894E108F1080894CE
:100D2000A11CB11CE114F104D1F601C0182F812FD0
:100D3000DF91CF911F91FF90EF90DF90CF90BF9008
:100D4000AF900895409142045091430446175707CD
:100D500020F4BA01FC0140E03DC061157105D1F7F6
:100D60004091E8004E774093E800F4CF80913B0437
:100D7000882309F447C0853009F446C08091E80013
:100D800083FD3EC08091E80082FD34C08091E80080
:100D900080FF20C09091F3008091F200392F20E075
:100DA00090E0822B932B06C041914093F10061505B
:100DB000704001966115710519F088309105A0F316
:100DC00041E08830910509F040E08091E8008E779D
:100DD0008093E8006115710549F6442339F60AC08D
:100DE00080913B04882371F0853071F08091E80098
:100DF00083FD0CC08091E80082FFF2CF80E008956F
:100E000081E0089582E0089583E0089581E00895E7
:100E10006115710529F44091E8004B774093E80093
:100E2000582F492F2BC080913B048823D9F185305E
:100E3000A9F18091E80083FD33C08091E80082FF32
:100E4000F2CFE52FF42F08C08091F10081935E2F3F
:100E50004F2F6150704069F05E2F4F2F9091F3003B
:100E60008091F200392F20E090E0822B932B0097A5
:100E700059F78091E8008B778093E8006115710540
:100E800091F606C080913B04882361F0853061F0C3
:100E90008091E80080FFF6CF80E0089583E0089518
:100EA00081E0089582E0089583E00895409142042E
:100EB000509143044617570720F4BA01FC0140E063
:100EC0003EC061157105D1F74091E8004E7740931F
:100ED000E800F4CF80913B04882309F448C08530B2
:100EE00009F447C08091E80083FD3FC08091E8008D
:100EF00082FD35C08091E80080FF21C09091F30011
:100F00008091F200392F20E090E0822B932B07C0D4
:100F100044914093F1003196615070400196611503
:100F2000710519F08830910598F341E088309105FA
:100F300009F040E08091E8008E778093E800611529
:100F4000710541F6442331F60AC080913B048823A1
:100F500071F0853071F08091E80083FD0CC08091C4
:100F6000E80082FFF2CF80E0089581E0089582E0FA
:100F7000089583E0089581E00895982F2AC0909302
:100F8000E900981739F07091EC002091ED00509134
:100F9000F00003C0242F762F50E021FF19C03091BC
:100FA000EB003E7F3093EB003091ED003D7F3093BE
:100FB000ED003091EB0031603093EB007093EC006A
:100FC0002093ED005093F0002091EE0027FF08C021
:100FD0009F5F9730A0F28F708093E90081E00895C1
:100FE00080E008950F931F93CF93DF93162FEC01AA
:100FF00000E02AC09881992329F16B81E981FA8167
:101000002C81892F8F70873018F56295660F660FD7
:10101000607C991F9927991F692B223010F096E068
:1010200001C092E028E030E040E003C04F5F220FB3
:10103000331F2E173F07D0F34295407F492B9DDF8A
:10104000882331F00F5F25960117A1F681E001C0DA
:1010500080E0DF91CF911F910F91089580913C0422
:1010600087FF13C004C080913B048823B9F08091AE
:10107000E80082FFF8CF8091E8008B778093E8004A
:10108000089580913B04882349F08091E80080FF17
:10109000F8CF8091E8008E778093E80008958091E2
:1010A000E4009091E50045E601C0C9012091EC0003
:1010B00020FF23C02091E80020FD15C020913B04B3
:1010C000222399F0253099F02091EB0025FD11C0E5
:1010D0002091E4003091E5002817390739F3415099
:1010E00021F784E0089580E0089582E0089583E088
:1010F000089581E0089580E008952091E80022FF9E
:10110000DDCFF9CF0F931F93CF93DF934BD052D006
:10111000C8EDD0E088818F77888388818068888354
:1011200088818F7D888319BC10923B04109237040C
:10113000109239041092380400EE10E0F80180811A
:101140008B7F808388818160888380E060E042E0DB
:1011500014DFE1EEF0E080818E7F8083E2EEF0E04C
:10116000808181608083808188608083F8018081B4
:101170008E7F8083888180618883DF91CF911F91EA
:101180000F910895E8EDF0E080818F7E8083E7ED98
:10119000F0E080818160808384E082BF81E0809381
:1011A0003A04B0CFE8EDF0E080818E7F808310922A
:1011B000E20008951092DA001092E10008951F9263
:1011C0000F920FB60F9211242F933F934F935F937B
:1011D0006F937F938F939F93AF93BF93EF93FF93FF
:1011E0008091E10082FF0AC08091E20082FF06C088
:1011F0008091E1008B7F8093E100B0D98091DA008B
:1012000080FF1DC08091D80080FF19C08091DA0056
:101210008E7F8093DA008091D90080FF0CC080E13E
:1012200089BD82E189BD09B400FEFDCF81E08093D4
:101230003B047DD904C019BC10923B047AD980913B
:10124000E10080FF18C08091E20080FF14C080910F
:10125000E2008E7F8093E2008091E20080618093C3
:10126000E2008091D80080628093D80019BC85E0AC
:1012700080933B04D1D18091E10084FF2FC0809105
:10128000E20084FF2BC080E189BD82E189BD09B401
:1012900000FEFDCF8091D8008F7D8093D800809193
:1012A000E1008F7E8093E1008091E2008F7E809349
:1012B000E2008091E20081608093E2008091370437
:1012C000882311F084E007C08091E30087FF02C00B
:1012D00083E001C081E080933B049ED18091E100D6
:1012E00083FF22C08091E20083FF1EC08091E10055
:1012F000877F8093E10082E080933B041092370463
:101300008091E1008E7F8093E1008091E2008E7FEA
:101310008093E2008091E20080618093E20080E0AF
:1013200060E042E02ADE78D1FF91EF91BF91AF916A
:101330009F918F917F916F915F914F913F912F91ED
:101340000F900FBE0F901F9018951F93CF93DF93B0
:10135000CDB7DEB7AC970FB6F894DEBF0FBECDBFEA
:1013600080E0ECE3F4E09091F10091938F5F88309E
:10137000D1F7F0D88091E80083FF36C180913C041A
:1013800020913D04253009F484C0263040F42130FA
:10139000A1F1213070F0233009F026C12EC0283091
:1013A00009F4F3C0293009F402C1263009F01CC148
:1013B00093C0803821F0823809F016C108C08091AE
:1013C000380490913904992371F082600CC08091A7
:1013D00040048F708093E9009091EB0081E095FFCD
:1013E00080E01092E9009091E800977F9093E800E8
:1013F0008093F1001092F100D3C0882319F082305D
:1014000009F0F2C090E08F719070009729F082305F
:10141000910509F0E9C00BC080913E04813009F0CC
:10142000E3C0233009F080E0809339042CC0809120
:101430003E04882341F5209140042F7009F4D4C064
:101440002093E9008091EB0080FF1DC080913D0456
:10145000833021F48091EB00806213C08091EB0017
:1014600080618093EB0081E090E002C0880F991FBB
:101470002A95E2F78093EA001092EA008091EB004F
:1014800088608093EB001092E9008091E800877FEC
:101490008AC0882309F0A8C010913E041F7780916C
:1014A000E3008078812B8093E3008091E800877FC0
:1014B0008093E800D3DD8091E80080FFFCCF80912D
:1014C000E30080688093E300112311F083E001C002
:1014D00082E080933B0488C08058823008F084C04A
:1014E00080913E0490913F0423E08C3D9207A9F542
:1014F00083E08C838AE28B835FB7F894DE011396D6
:1015000080E090E04EE061E2E42FF0E0609357006D
:10151000E49180FF03C0E295EF704F5FEF702E2FD4
:1015200030E0EA3018F0295C3F4F02C0205D3F4FA9
:1015300013963C932E93129701961296843191053F
:1015400019F75FBF8091E800877F8093E800CE01A4
:1015500003966AE270E0F6DB12C060914004AE01CF
:101560004F5F5F4FC8D8BC01009709F43DC0809120
:10157000E800877F8093E80089819A8197DC8091D9
:10158000E8008B778093E8002FC0803869F5809160
:10159000E800877F8093E800809137048093F10012
:1015A0008091E8008E778093E80058DD1DC0882385
:1015B000D9F490913E049230B8F48091E800877F8E
:1015C0008093E8009093370449DD809137048823A5
:1015D00021F48091E30087FF02C084E001C081E034
:1015E00080933B040E949B028091E80083FF0AC025
:1015F0008091E800877F8093E8008091EB00806213
:101600008093EB00AC960FB6F894DEBF0FBECDBF53
:10161000DF91CF911F9108950895CF9380913B045E
:101620008823A9F08091E9008F709091EC0090FFE1
:1016300002C0C0E801C0C0E0C82B1092E900809150
:10164000E80083FF01C081DECF70C093E900CF9135
:1016500008956F927F928F929F92AF92BF92CF9296
:10166000DF92EF92FF920F931F93CF93DF9300D0FF
:101670000F92CDB7DEB77C016DB67EB68091E800E3
:1016800083FF0AC1F701808190E0209140043091EE
:1016900041042817390709F0FFC080913D048330C9
:1016A00009F4A1C0843030F4813071F0823009F047
:1016B000F3C0D6C08A3009F4BBC08B3009F4A4C093
:1016C000893009F0E9C051C080913C04813A09F0A9
:1016D000E3C09DB68EB61B821A8280913E040091B3
:1016E0003F048983F70140858DB79EB7841B91091C
:1016F0000FB6F8949EBF0FBE8DBFCDB6DEB6089470
:10170000C11CD11CBC2CAD2CC60160E070E050E0C7
:10171000D0D1402F4150C701BE016F5F7F4F96016E
:101720008E010E5F1F4F0E94BA02F70186819781DA
:10173000009721F04085B60150E0B2D11092E90047
:101740008091E800877F8093E8008981882311F0E9
:101750008093F1006A817B818B2D9A2DF3DA809141
:10176000E8008B778093E8003BC080913C04813295
:1017700009F092C09DB68EB60091420410914304C8
:10178000C0903E04D0903F048DB79EB7801B910B54
:101790000FB6F8949EBF0FBE8DBFADB6BEB608940F
:1017A000A11CB11C8091E800877F8093E800C501EF
:1017B000B8012EDB8091E8008E778093E80081E00D
:1017C00090E0CC2011F480E090E04D2D4150950147
:1017D000280F391F081B190BC7016C2D0E945903D4
:1017E0009DBE8EBE59C080913C04813A09F054C020
:1017F0008091E800877F8093E8008091E80080FF77
:10180000FCCFF701818540C080913C04813209F012
:1018100043C08091E800877F8093E8001FDC9091AF
:101820003E0481E0992309F480E0F701818734C008
:1018300080913C04813281F58091E800877F80931C
:10184000E8000CDC80913E0490913F04807036E00B
:10185000969587953A95E1F7F701958784871CC09F
:1018600080913C04813AC1F48091E800877F8093A5
:10187000E8008091E80080FFFCCFF7018485958522
:1018800096958795969587958093F1008091E800CD
:101890008E778093E800E2DB0FB6F8947EBE0FBE31
:1018A0006DBE0F900F900F90DF91CF911F910F9110
:1018B000FF90EF90DF90CF90BF90AF909F908F9070
:1018C0007F906F900895CF93DF93FC010996DC0120
:1018D00087E0ED0119928A95E9F781E0818784EF2D
:1018E00091E09587848783E08483CF01019661E04E
:1018F00079DBDF91CF9108954F925F926F927F9243
:101900008F929F92AF92BF92CF92DF92EF92FF920F
:101910000F931F93CF93DF9300D00F92CDB7DEB715
:101920007C014DB65EB680913B04843009F092C0D4
:101930008091E4009091E500F70122853385281716
:10194000390709F487C081818F708093E900809105
:10195000E80085FF7FC07DB66EB640858DB79EB727
:10196000841B91090FB6F8949EBF0FBE8DBF0DB7B3
:101970001EB70F5F1F4F19821B821A82B02EA12E35
:10198000C80160E070E050E094D0C701BE016F5F15
:101990007F4F40E098018E010E5F1F4F0E94BA02F8
:1019A000182FF70184859585009759F081E090E024
:1019B000268537852115310511F080E090E04C0136
:1019C00002C088249924F701C680D780C114D104AD
:1019D00091F04A815B818B2D9A2DB60154D001E0A4
:1019E000009709F400E0F7014085C6016B2D7A2DC0
:1019F00050E056D001C000E08A819B81009709F138
:101A0000112329F4002319F481149104D1F0F70172
:101A1000848595859787868781818F708093E9007B
:101A20008981882311F08093F1006A817B818B2D5D
:101A30009A2D40E050E036D98091E8008E7780936F
:101A4000E8008091E4009091E500F7019387828798
:101A50007DBE6EBE0FB6F8945EBE0FBE4DBE0F903B
:101A60000F900F90DF91CF911F910F91FF90EF900A
:101A7000DF90CF90BF90AF909F908F907F906F90AE
:101A80005F904F900895FB01DC0104C08D9101909F
:101A9000801921F441505040C8F7881B990B0895D4
:101AA000FB01DC0102C001900D9241505040D8F77B
:101AB0000895DC0101C06D9341505040E0F7089556
:041AC000F894FFCFC8
:101AC40000004843000048430000484300004843E6
:101AD4000081080000017702FF0000000000000000
:101AE400E280681000000039601197469D039E0350
:101AF40000000000AD4606024660AF796000006851
:101B04008C038D0300000000AD4606024660937806
:101B1400600000648503860300000000AD460602F1
:101B2400466091756000006585038603000000002F
:101B3400E280681000000039148C72E07B037C039F
:101B440000000000AD46060246609D736100006619
:101B54007B037C0300000000AD4606024660A578C6
:101B6400600000677103720300000000E2806810E7
:101B740000000039148C72E339033A0300000000BA
:101B8400AD4606024660E1786000006D50035103E3
:101B940000000000AD4606024660D57B6000006C84
:101BA4004103420300000000AD4606024660CD75C5
:101BB4006100006B6703680300000000AD46060285
:101BC4004660C3766100006A11031203000000003E
:101BD400E280681000000039148C732A3403350342
:101BE40000000000E280681000000039148C732D9E
:101BF4002103220300000000AD4606024660E97A94
:101C04006000006E2B032C0300000000AD460602AA
:101C14004660F5786000006F9703980300000000A9
:101C2400AF03F703A120000000000200A10100009F
:041C340000000000AC
:00000001FF
