:10000000B4C20000ECC20000EAC20000E8C2000076
:10001000E6C20000E4C20000E2C20000E0C200004C
:10002000DEC20000DCC200000C946711D8C20000E0
:10003000D6C20000D4C20000D2C20000D0C200006C
:10004000CEC20000CCC20000CAC20000C8C200007C
:10005000C6C200000C941D0BC2C20000C0C200004A
:10006000BEC20000BCC20000BAC20000B8C200009C
:10007000B6C20000B4C20000B2C20000B0C20000AC
:10008000AEC20000ACC20000AAC20000A8C20000BC
:10009000A6C20000A4C20000A2C20000A0C20000CC
:1000A0009EC200009CC200009AC200000847495648
:1000B000455F524F43000D474956455F4C49444FF9
:1000C00043414E45000D474956455F50524F504FF2
:1000D000464F4C0010474956455F414E54494249EE
:1000E0004F54494353000D474956455F4B455441D2
:1000F0004D494E45000D474956455F46454E5441D2
:100100004E594C000D474956455F4D4F5250484996
:100110004E45000E474956455F45544F4D494441B1
:1001200054450004484541540004424C49500006DF
:1001300049565F61726D000D41524D5F525F4956E5
:100140005F43415448000E41524D5F4C5F4553435D
:100150004841525F35000E41524D5F4C5F4553435D
:100160004841525F34000E41524D5F4C5F4553434E
:100170004841525F33000E41524D5F4C5F4553433F
:100180004841525F32000E41524D5F4C5F45534330
:100190004841525F3100024F3200164D41534B5FD0
:1001A000485950455256454E54494C4154455F506C
:1001B00054001C4D41494E5354454D5F56454E54D5
:1001C000494C4154494F4E5F45545F545542450098
:1001D0000742564D5F4F4646001356454E54494C14
:1001E0004154494F4E5F45545F54554245001E45AA
:1001F000534F5048414745414C5F56454E54494C3A
:100200004154494F4E5F45545F5455424500204884
:10021000454152545F524154453D3133662C414370
:10022000543D3138732C50524F583D3139732C00A6
:100230002C034C005500460041002000470065009B
:100240006E006500720069006300200048004900EC
:1002500044002000440065006D006F00000018039A
:100260004400650061006E002000430061006D00E5
:100270006500720061000000040309040902220005
:10028000010100C03209040000010300000009213F
:100290001101000122CA01070581030800051201AE
:1002A000100100000008EB034020010001020001E2
:1002B0000600FF0901A10185010902150026FF00C2
:1002C000750895FEB10285020902150026FF00752A
:1002D0000895FFB10285030905150026FF00750882
:1002E0009506810085040906150026FF007508950E
:1002F00008B10285050907150026FF007508950C51
:10030000810285060908150026FF0075089510B1C1
:100310000285070909150026FF007508950D810261
:1003200085FF090A150026FF0075089508B10285AA
:10033000FE090B150026FF0075089508B102850817
:10034000090C150026FF007508950481028508092F
:100350000C150026FF007508950491028509090C0B
:10036000150026FF007508950481028509090C1502
:100370000026FF00750895049102850A090C1500F6
:1003800026FF00750895048102850A090C150026D0
:10039000FF00750895049102850B090C150026FFD6
:1003A00000750895048102850B090C150026FF00D5
:1003B000750895049102850C090C150026FF00753F
:1003C0000895048102850C090C150026FF007508AC
:1003D00095049102850D090C150026FF00750895FE
:1003E000048102850D090C150026FF00750895048F
:1003F0009102850E090C150026FF007508950481F1
:1004000002850E090C150026FF007508950491025F
:10041000850F0900150026FF0075089504B10285B7
:1004200010090D150026FF00750895408102851101
:10043000090D150026FF0075089501910285120926
:100440000E150026FF00750895FF81028512090E22
:10045000150026FF00750895FF91028513090F15F9
:100460000026FF00750895FF81028513090F15000E
:1004700026FF00750895FF9102C0024F32000A5412
:10048000454D505F50524F4245000850554C534522
:100490005F4F58000742505F4355464600034543AF
:1004A000470006464C554944530003524F43000849
:1004B0004C49444F43414E45000850524F504F461F
:1004C0004F4C000B414E544942494F54494353004D
:1004D000084B4554414D494E45000846454E544150
:1004E0004E594C00084D4F525048494E4500055357
:1004F00055434353000945544F4D49444154450029
:100500000456454E54000342564D000D41524D5F76
:10051000525F49565F434154480003524F4300081D
:100520004C49444F43414E45000850524F504F46AE
:100530004F4C000B414E544942494F5449435300DC
:10054000084B4554414D494E45000846454E5441DF
:100550004E594C00084D4F525048494E45000945F0
:10056000544F4D4944415445000011241FBECFEF64
:10057000DAE0DEBFCDBF04B603FE1BC0809181066A
:1005800090918206A0918306B09184068A3C2CEA61
:10059000920722E4A2072CEDB20759F410928106CB
:1005A000109282061092830610928406E0E0F8E32F
:1005B000099513E0A0E0B1E0E8E7F0E302C00590A0
:1005C0000D92AA33B107D9F716E0AAE3B3E001C050
:1005D0001D92A138B107E1F7ACD00C943A1810CDB8
:1005E00025B1982F917090952160922395B92BB1E8
:1005F000982F90729095206292239BB998B1807841
:100600009F77892B88B908958091E000816080935D
:10061000E000F8948FEF9DE3A9E481509040A04062
:10062000E1F700C000008AEC9CEAA2E4BCED8093F4
:10063000810690938206A0938306B09384062DE0F2
:1006400088E190E00FB6F894A895809360000FBE03
:1006500020936000FFCF982F9F7185FF04C0809189
:100660007B00806203C080917B008F7D80937B0044
:1006700080917C00807E892B80937C0080917A0021
:10068000806480937A0080917A0086FDFCCF80910F
:10069000780090917900392F20E090E0822B932B05
:1006A00008950F931F93CF93DF9304EA15E0C0E002
:1006B000D0E0CE01D0DFF801819391938F01219694
:1006C000C930D105B1F7DF91CF911F910F910895F6
:1006D00084B7877F84BF88E10FB6F8948093600069
:1006E000109260000FBEEAE7F0E0808187608083AF
:1006F00080818068808380E480937C0090E080E843
:100700000FB6F89480936100909361000FBE8081D2
:1007100080648083769A84B18E6084B984B1806C61
:1007200084B9209A289A559A5D9A3F9A47980C94D2
:100730004A11CEDF74D781E053DF78941AD50E9436
:10074000160D84EA91E00E9409150E949A13A9DF10
:1007500084EA95E069E575E044E951E02AE031E09A
:1007600086D60E943A0DEDCF80EA3ACF81E038CFAD
:1007700084EA91E00E94F0149091E20094609093DA
:10078000E200882311F080E201C081E829CF84EAE9
:1007900091E00C94B6138091B2019091B30100974F
:1007A00029F001979093B3018093B20108954F927D
:1007B0005F926F927F928F929F92AF92BF92CF92F1
:1007C000DF92EF92FF920F931F93CF93DF93CDB7FA
:1007D000DEB72B970FB6F894DEBF0FBECDBF3B013F
:1007E00079012801442309F45BC0423009F0B7C302
:1007F000DB018C91843039F454D787010E943A0C84
:1008000088E090E018C08630D9F454E9C52E51E054
:10081000D52E8901D6016D917D918D919D916D01AE
:10082000A801BDD60C5F1F4FB4EACB16B1E0DB06C2
:1008300089F780E190E0F2019183808381E090C3A9
:10084000813089F4D90180E28D9380E090E00196B7
:10085000FC01E25FFD4FE491ED9380329105B9F721
:100860008EEF90E077C3823089F4D90186E08D93D2
:1008700080E090E00196FC01E15DFE4FE491ED9394
:1008800086309105B9F78FEF90E0D5CF8F3009F022
:1008900066C380917A05D9018C9384E090E0CBCF38
:1008A000DB010C910730A1F48091100190911101AE
:1008B000009709F454C38AE091E0B6D4B7014BD64F
:1008C0008DE090E0F20191838083D3010C93B6CF49
:1008D000033009F03FC0FE013496A0E0B1E088E0AB
:1008E0000D9001928150E1F7CE010496B7019E016F
:1008F000245F3F4FDC01ED91FD91CD01EE0FFF1F15
:10090000EC55FA4F4181DB0111964C9311974081D0
:100910004C936E5F7F4F8217930761F789E5C82E6E
:1009200085E0D82E8701085F1F4FF6016191719114
:10093000819191916F01A80132D60C5F1F4FF9E6AA
:10094000CF16F5E0DF0689F783E0D3018C9388E1C9
:1009500090E071CF002309F002C380916E058823D7
:1009600009F43BC0E091E202F091E302808184341B
:1009700009F0F5C28181863109F0F1C21B821A8229
:10098000CF010A96BE016F5F7F4FAE014E5F5F4F92
:10099000D7D7882309F4E3C28A819B81009709F4A1
:1009A000DEC20E94070D99818A812B81D7019D9318
:1009B000E82FF22F03C024912D9331962E2F281B60
:1009C0002917C8F383E1D3018C938FEF90E0F201F4
:1009D0009183808310926E0531CF80914E048823DD
:1009E000C9F0D9018EE18D9380E090E00196FC0181
:1009F000E251FE4FE491ED938E319105B9F782E11A
:100A0000D3018C938FEF90E0F20191838083109259
:100A10004E0414CF809193058823C9F0D90183E156
:100A20008D9380E090E00196FC01E752FE4FE49147
:100A3000ED9383319105B9F782E1D3018C938FEF68
:100A400090E0F2019183808310929305F7CE80911C
:100A50006A058823C9F0D90187E08D9380E090E092
:100A60000196FC01E053FE4FE491ED938730910530
:100A7000B9F782E1D3018C938FEF90E0F20191837B
:100A8000808310926A05DACE8091A2058823C9F08E
:100A9000D9018CE18D9380E090E00196FC01EE5449
:100AA000FE4FE491ED938C319105B9F782E1D301CA
:100AB0008C938FEF90E0F201918380831092A205D6
:100AC000BDCE809158058823C9F0D90186E18D9368
:100AD00080E090E00196FC01E656FE4FE491ED9334
:100AE00086319105B9F782E1D3018C938FEF90E0C5
:100AF000F2019183808310925805A0CE8091A005C9
:100B00008823C9F082E0D9018C93E7E9F1E0849170
:100B100011968C9311973196E4911296EC9382E1A1
:100B2000FB0180838FEF90E0D20111969C938E930E
:100B30001092A00583CE809181058823D1F0D90140
:100B400084E08D9380E090E00196FC01E75DFE4F2C
:100B5000E491ED9384309105B9F782E1F30180834C
:100B60008FEF90E0D20111969C938E9310928105A5
:100B700065CE80916D058823D1F0D90184E08D93F5
:100B800080E090E00196FC01ED5DFE4FE491ED9375
:100B900084309105B9F782E1F30180838FEF90E013
:100BA000D20111969C938E9310926D0547CE809141
:100BB00077058823D1F0D9018EE08D9380E090E015
:100BC0000196FC01ED5EFE4FE491ED938E309105B0
:100BD000B9F782E1F30180838FEF90E0D2011196A3
:100BE0009C938E931092770529CE80917C05882363
:100BF000D1F0D9018DE08D9380E090E00196FC0169
:100C0000EC5FFE4FE491ED938D309105B9F782E1F1
:100C1000F30180838FEF90E0D20111969C938E9325
:100C200010927C050BCE80919F058823D1F0D901CD
:100C30008DE08D9380E090E00196FC01EB50FF4F3A
:100C4000E491ED938D309105B9F782E1F301808352
:100C50008FEF90E0D20111969C938E9310929F0596
:100C6000EDCD809169058823D1F0D9018DE08D9378
:100C700080E090E00196FC01EA51FF4FE491ED9392
:100C80008D309105B9F782E1F30180838FEF90E019
:100C9000D20111969C938E9310926905CFCD8091CD
:100CA000A1058823D1F0D90180E18D9380E090E007
:100CB0000196FC01EC52FF4FE491ED9380319105D8
:100CC000B9F782E1F30180838FEF90E0D2011196B2
:100CD0009C938E931092A105B1CD809191058823AC
:100CE000D1F0D9018DE08D9380E090E00196FC0178
:100CF000EB53FF4FE491ED938D309105B9F782E10D
:100D0000F30180838FEF90E0D20111969C938E9334
:100D10001092910593CD8091A3058823D1F0D9013C
:100D20008DE08D9380E090E00196FC01EA54FF4F46
:100D3000E491ED938D309105B9F782E1F301808361
:100D40008FEF90E0D20111969C938E931092A305A1
:100D500075CD809190058823D1F0D90188E08D93DD
:100D600080E090E00196FC01E455FF4FE491ED93A3
:100D700088309105B9F782E1F30180838FEF90E02D
:100D8000D20111969C938E931092900557CD80912D
:100D90006C058130D9F4D9018EE08D9380E090E02C
:100DA0000196FC01EA57FE4FE491ED938E309105D8
:100DB000B9F782E1F30180838FEF90E0D2011196C1
:100DC0009C938E9382E080936C0538CD80919C0536
:100DD0008130D9F4D9018EE08D9380E090E00196C6
:100DE000FC01EA58FE4FE491ED938E309105B9F77E
:100DF00082E1F30180838FEF90E0D20111969C9302
:100E00008E9382E080939C0519CD8091920581306C
:100E1000D9F4D9018EE08D9380E090E00196FC0139
:100E2000EA59FE4FE491ED938E309105B9F782E1D6
:100E3000F30180838FEF90E0D20111969C938E9303
:100E400082E080939205FACC80914F048130D9F4EE
:100E5000D9018EE08D9380E090E00196FC01EA5A82
:100E6000FE4FE491ED938E309105B9F782E1F301E5
:100E700080838FEF90E0D20111969C938E9382E055
:100E800080934F04DBCC809183058130D9F4D90164
:100E90008EE08D9380E090E00196FC01EA5BFE4FCE
:100EA000E491ED938E309105B9F782E1F3018083EF
:100EB0008FEF90E0D20111969C938E9382E0809305
:100EC0008305BCCC80911001909111010097B9F07D
:100ED0008AE091E0A9D1D7018DE08D9380E090E088
:100EE0000196FC01E95CFE4FE491ED938D30910594
:100EF000B9F782E1F30180838FEF90E02BC08091FE
:100F0000BC05882361F18090840590908505A090B0
:100F10008605B09087052091940530919505409104
:100F2000960550919705609198057091990580916B
:100F30009A0590919B0587019DD4A701485F5F4F5B
:100F4000C501B40102D31092BC0585E0F301808392
:100F50008CE090E0D20111969C938E936FCC80E050
:100F60002B960FB6F894DEBF0FBECDBFDF91CF91A9
:100F70001F910F91FF90EF90DF90CF90BF90AF90B7
:100F80009F908F907F906F905F904F9008950F93F8
:100F90001F93CF93DF93E9014130B1F1423009F063
:100FA00096C0623051F481E080933D038881809344
:100FB0003C03898180933B038AC0643021F4C901DA
:100FC00082D4E8D384C0663091F404E911E0CE0104
:100FD00004D3DC01CB01F80181939193A193B193E8
:100FE0008F012496F1E0043A1F0789F770C06F3F24
:100FF00019F481EAF5DA08DB6F3009F068C014D51E
:1010000081E080936D0563C0613161F0623120F44D
:101010006D3009F05CC040C0623171F1633109F09C
:1010200056C006C08881882309F051C073D44FC0D0
:101030008981863561F48A818534D9F48B818E3437
:10104000C1F48C818435A9F440936B0512C08234BD
:1010500049F48A81863569F48B818D3451F440934B
:10106000570507C08F3429F48A81823311F44093E5
:10107000A005CE0150D52BC08981833551F48A81DA
:10108000843539F48B818F3421F48C81803509F4D7
:10109000E1D4CE01A9D51BC0C9019FD220E030E028
:1010A00040E752E40E9435169B01AC0160E070E01D
:1010B00080E89FE30E94351620E030E04AE754E4E0
:1010C0000E9460170E949D16DC01CB01C6D4DF91FF
:1010D000CF911F910F910895933089F0943028F4A7
:1010E000913049F1923061F505C09132D1F09232E0
:1010F00039F51CC082E290E0ECE7F2E025C08130D7
:1011000041F0813018F08230D9F406C0E8E7F2E00F
:1011100005C0EEE5F2E002C0E0E3F2E0849190E089
:1011200013C089E090E0EEE8F2E00EC08AEC91E0B6
:10113000E0EBF2E009C082E190E0EEE9F2E004C009
:1011400080E090E0E0E0F0E0DA011196FC93EE93AD
:101150000895CF93DF93EC01439651D5CE014D9680
:101160004ED518821D861E861F86188ADF91CF9164
:1011700008958DEB95E0EDCF8F929F92AF92CF9235
:10118000DF92EF92FF920F931F93CF93DF93EC01C7
:101190008A809B808DE090E0889EF001899EF00D12
:1011A000989EF00D1124EC0FFD1FDF0118960087AB
:1011B00011961C93119712962C93129713963C93A9
:1011C000139714964C93149715965C93159716964F
:1011D0006C93169717967C931797C08AD18AE28AE8
:1011E000F38AA48A28813981C4010196B9010E9439
:1011F000E7178A839B834E815F814F5F5F4F5F83D9
:101200004E832417350720F48C839D833F832E83E0
:10121000DF91CF911F910F91FF90EF90DF90CF90D2
:10122000AF909F908F900895CF93DF93FC0126811C
:10123000378121153105D9F0C481D581CE010196C0
:10124000608171810E94E71795838483215030402B
:10125000378326832DE030E0C29FC001C39F900DED
:10126000D29F900D112408968E0F9F1F02C080E020
:1012700090E0DF91CF910895FC01218932892115F9
:10128000310511F0439601C04D966DD5472F382F8B
:10129000292F862F942FA32FB22FBC01CD010895A3
:1012A0002F923F924F925F926F927F928F929F9276
:1012B000AF92BF92CF92DF92EF92FF920F931F9364
:1012C000CF93DF93CDB7DEB728970FB6F894DEBF84
:1012D0000FBECDBF3C011A012B0109831A832B835A
:1012E0003C83CD82DE82EF82F886FC01858596857F
:1012F000A785B0899A01AB01281B390B4A0B5B0B00
:10130000DA01C9018D3231E0930730E0A30730E004
:10131000B307C0F081E090E02189328921153105C1
:1013200011F080E090E0F301928B818B2586368668
:101330004786508A009719F0C3014D9602C0C30139
:1013400043965DD4C301439649815A816B817C8168
:1013500065D4C3014D9649815A816B817C815ED4ED
:10136000C3018ADF162F072FF82EE92EA801970157
:10137000852F942FA32FB22FBC01CD012D813E814B
:101380004F8158850E945C17F30190811816A4F4D0
:10139000913009F44BC081E0808383D1F301258330
:1013A000368347835087618772878387948721823A
:1013B0003282438254823AC09130C1F5F301818177
:1013C0009281A381B481A2019101281B390B4A0BA0
:1013D0005B0B2E3231054105510530F17581668177
:1013E000578140853185228593858485F5017083F9
:1013F0006183528343833483258396838783F301F8
:1014000081819281A381B481A2019101281B390BB2
:101410004A0B5B0BF501208731874287538781E0B8
:1014200090E0F40191838083F3011082A801970179
:10143000852F902FA32FBE2DBC01CD0128960FB66E
:10144000F894DEBF0FBECDBFDF91CF911F910F91FA
:10145000FF90EF90DF90CF90BF90AF909F908F90D4
:101460007F906F905F904F903F902F9008954F9294
:101470005F926F927F928F929F92AF92BF92CF9224
:10148000DF92EF92FF920F931F93CF93DF93CDB72D
:10149000DEB72F970FB6F894DEBF0FBECDBF8C011D
:1014A0003B016A012901EED04B015C01F80160812A
:1014B00071811A82198280E090E00E94CE168B0121
:1014C0009C01F601C080D180E280F3808DEB95E035
:1014D000B501A401A3E0AA2EB12CAC0EBD1E4E0195
:1014E0000894811C911CDCDEDC01CB01F3018083BC
:1014F0009183A283B38389819A81009779F00B81CC
:101500001C812D813E814F81588569857A85CB84E8
:10151000DC84ED84FE84C201AA242EDE2F960FB651
:10152000F894DEBF0FBECDBFDF91CF911F910F9119
:10153000FF90EF90DF90CF90BF90AF909F908F90F3
:101540007F906F905F904F900895FA019083818310
:10155000728363830895EF92FF920F931F93CF934B
:10156000DF93EC017B01288139814A815B816C81A9
:101570007D818E819F8187017DD1688579858A856E
:101580009B85A701485F5F4FE0DF8C85F70184876B
:10159000DF91CF911F910F91FF90EF900895CF931E
:1015A000DF9300D000D0CDB7DEB7DC01CB0189835B
:1015B0009A83AB83BC83DE011196FA0180E090E050
:1015C0002D912193019684309105D1F70F900F90C2
:1015D0000F900F90DF91CF910895CF93DF9300D0BC
:1015E00000D0CDB7DEB7FC01DE01119680E090E0BF
:1015F00021912D93019684309105D1F759814A812B
:101600003B812C81852F942FA32FB22FBC01CD01BC
:101610000F900F900F900F90DF91CF91089584B5A8
:10162000826084BDEEE6F0E080818260808389EF95
:1016300087BD85B5836085BD08951F920F920FB653
:101640000F9211248F939F93AF93BF938091450482
:1016500090914604A0914704B09148040196A11DC1
:10166000B11D8093450490934604A0934704B09322
:101670004804BF91AF919F918F910F900FBE0F9033
:101680001F9018950F931F930091450410914604E5
:101690002091470430914804B801C9011F910F916E
:1016A0000895DF92EF92FF920F931F93CF93DF93F2
:1016B000009145041091460420914704309148045C
:1016C00040E050E0BA01F0903D04B0913E04A0919A
:1016D0003F04D09040048091410490914204E090F6
:1016E0004304E0914404F00ED1E0F01608F0D0E09D
:1016F000B10FC1E0B11708F0C0E0DB0FF1E0DB177C
:1017000008F0F0E0CF2BA20FB1E0A21708F0B0E094
:10171000CA0FF1E0CA1708F0F0E0BF2BF32FFD0D60
:10172000A1E0F31708F0A0E0BF0FDD24D394BF17AA
:1017300008F0DD24AD29F1E0841708F0F0E0A80FEF
:10174000DD24D394A81708F0DD24FD2981E0951746
:1017500008F080E0F90FDD24D394F91708F0DD24B8
:101760008D2991E0E61608F090E08E0D21E08E15AF
:1017700008F020E0922B2F2D3D2F4C2F5B2F6A2F4E
:101780007F2F9E0FDF91CF911F910F91FF90EF90D0
:10179000DF900895DF92EF92FF920F931F93CF9304
:1017A000DF93F901DA01EB01009145041091460441
:1017B0002091470430914804DE2ED01AEE24E394A1
:1017C000ED1508F0EE24EF2FE11BFF24F394FE1734
:1017D00008F0FF24FE2FFE19EF2EF1E0EE1508F0C1
:1017E000F0E0FF2AFA2FF21BE1E0AF1708F0E0E08B
:1017F000AF2FAF19FF24F394FA1708F0FF24EF2955
:10180000FB2FF31B3F2F21E0BF1708F020E0532FE1
:101810005E1B41E0351708F040E0242B4C2F421BA3
:1018200021E0C41708F020E03D2F321B21E0D31740
:1018300008F020E0682F621B262F61E0821708F075
:1018400060E0961BD0923D04E0923E04A0933F04DA
:101850005093400440934104309342042093430446
:1018600090934404DF91CF911F910F91FF90EF90DF
:10187000DF9008950F931F93CF93DF93CDB7DEB71B
:1018800028970FB6F894DEBF0FBECDBF29833A83E9
:101890004B835C836D837E838F839887DE011996EB
:1018A000F801CE0101962E912193A817B907D9F717
:1018B00028960FB6F894DEBF0FBECDBFDF91CF9153
:1018C0001F910F910895CF93DF93CDB7DEB728977F
:1018D0000FB6F894DEBF0FBECDBFDC011896FE0137
:1018E000319680E090E02E91219301968830910509
:1018F000D1F729813A814B815C816D817E818F8115
:10190000988528960FB6F894DEBF0FBECDBFDF9145
:10191000CF9108958091C80085FFFCCF83E4809328
:10192000CE008091C80085FFFCCF83E08093CE007D
:101930008091C80085FFFCCF81E08093CE000895A0
:101940004F925F926F927F928F929F92AF92BF92CF
:10195000CF92DF92EF92FF920F931F93CF93DF937B
:101960005C013B012A018EDE6B017C0100E010E08E
:1019700024E1822E912C089DE001099DD00D189D37
:10198000D00D1124CC54DE4FC501BE014CE050E017
:101990000E941D18009721F588899989AA89BB8919
:1019A000A7019601281B390B4A0B5B0BDA01C90111
:1019B000C88AD98AEA8AFB8A893833E1930730E0FA
:1019C000A30730E0B30750F0EC85FD85E491D30127
:1019D000EC938E859F85F2019183808381E006C020
:1019E0000F5F1F4F0F30110531F680E0DF91CF916F
:1019F0001F910F91FF90EF90DF90CF90BF90AF902D
:101A00009F908F907F906F905F904F9008953ADEF7
:101A1000DC01CB018093280690932906A0932A0627
:101A2000B0932B062F9A08952F9A089583E28093FE
:101A3000800089E1809381008FEF90E0909389008E
:101A40008093880010928B0010928A0084B1806C81
:101A500084B9089510926C06089521E020936C06D5
:101A60008534910514F484E490E09093E50280932A
:101A7000E40208950F931F9380916C06882351F11F
:101A800001DE00916D0610916E0620916F06309177
:101A90007006601B710B820B930B2091E402309156
:101AA000E502442737FD4095542F0E94FB17DC01C7
:101AB000CB0184349105A105B10528F48A519D4FCD
:101AC000FC01808101C08FE190E090938B008093B6
:101AD0008A0004C010928B0010928A001F910F910F
:101AE0000895DC0180E090E00AC02D91FB01E80F31
:101AF000F91FE4912E1748F0E21750F00196841771
:101B000095079CF380E090E008958FEF9FEF089594
:101B100081E090E008950F931F93CF93DF93EC0142
:101B20001881412F1A3008F049E0CE016EE575E0CA
:101B300050E0D7DF009711F481E04FC0012F19303A
:101B400008F008E0CE0164E575E0402F50E0C9DF01
:101B5000009711F482E041C0CE016AE475E0402FA5
:101B600050E0BFDF009711F483E037C0CE0160E49E
:101B700075E0402F50E0B5DF009711F484E02DC0F0
:101B8000412F1C3008F04BE0CE0163E375E050E0DC
:101B9000A8DF009711F485E020C0CE0169E275E06E
:101BA000402F50E09EDF009711F486E016C0CE0172
:101BB0006FE175E0402F50E094DF009711F487E06B
:101BC0000CC0412F143008F043E0CE016AE175E00B
:101BD00050E087DF009719F488E080934904DF9193
:101BE000CF911F910F9108956BE075E04DE050E0AB
:101BF00078DF009719F481E0809371060895FC0165
:101C000040E050E0BA014083518362837383448390
:101C10005583668377831186108608952F923F92AD
:101C20004F925F926F927F928F929F92AF92BF92EC
:101C3000CF92DF92EF92FF920F931F93CF93DF9398
:101C400000D0CDB7DEB77C014A015B01DC011896FC
:101C50000D911C9119970F5F1F4F19961C930E93AE
:101C600018970130110569F4FC01408351836283A8
:101C7000738380E090E0DC0184839583A683B7833F
:101C80005DC0DC014D905D906D907C90CB01BA0100
:101C9000A301920185D7362E272E89839A83B80116
:101CA000882777FD8095982F0E94D0169B01AC0164
:101CB000F10179816A818F2F9E2FA72FB62FBC014A
:101CC000CD01D3D79B01AC01C301B2016AD7462E27
:101CD000772ED82EC92EC501B401A601042D172DCB
:101CE000252F342FA90198015BD79B01AC01F1018D
:101CF00079816A818F2F9E2FA72FB62FBC01CD012E
:101D00000E946017F701248135814681578149D7A8
:101D1000262FB72F442D572D6D2D7C2DF701408395
:101D2000518362837383422F5B2F682F792FD701F2
:101D300014964D935D936D937C9317970F900F902E
:101D4000DF91CF911F910F91FF90EF90DF90CF9097
:101D5000BF90AF909F908F907F906F905F904F90CB
:101D60003F902F900895CF93DF93EC01688579859C
:101D70006230710584F061507040882777FD80954E
:101D8000982F0E94D0169B01AC016C817D818E81C1
:101D90009F816BD704C060E070E080E090E0382F56
:101DA000292F862F972FA32FB22FBC01CD01DF91B2
:101DB000CF910895AF92BF92CF92DF92EF92FF92B0
:101DC0001F93CF93DF93EC017B016A01F0D1182FB1
:101DD0008823A9F5C114D10439F0F601208131819D
:101DE000E21AF30AC20FD31FAA24BB2423C0809196
:101DF000E80085FD16C08091E8008E778093E800AA
:101E000099D4C114D10449F0F601808191818A0DE1
:101E10009B1D9183808315E012C0C9D1882351F0A6
:101E20000DC089918093F1000894E108F1080894AD
:101E3000A11CB11CE114F104D1F601C0182F812FAF
:101E4000DF91CF911F91FF90EF90DF90CF90BF90E7
:101E5000AF90089540917F0650918006461757072E
:101E600020F4BA01FC0140E03DC061157105D1F7D5
:101E70004091E8004E774093E800F4CF80917806D7
:101E8000882309F447C0853009F446C08091E800F2
:101E900083FD3EC08091E80082FD34C08091E8005F
:101EA00080FF20C09091F3008091F200392F20E054
:101EB00090E0822B932B06C041914093F10061503A
:101EC000704001966115710519F088309105A0F3F5
:101ED00041E08830910509F040E08091E8008E777C
:101EE0008093E8006115710549F6442339F60AC06C
:101EF00080917806882371F0853071F08091E80038
:101F000083FD0CC08091E80082FFF2CF80E008954D
:101F100081E0089582E0089583E0089581E00895C6
:101F20006115710529F44091E8004B774093E80072
:101F3000582F492F2BC0809178068823D9F18530FE
:101F4000A9F18091E80083FD33C08091E80082FF11
:101F5000F2CFE52FF42F08C08091F10081935E2F1E
:101F60004F2F6150704069F05E2F4F2F9091F3001A
:101F70008091F200392F20E090E0822B932B009784
:101F800059F78091E8008B778093E800611571051F
:101F900091F606C080917806882361F0853061F063
:101FA0008091E80080FFF6CF80E0089583E00895F7
:101FB00081E0089582E0089583E0089540917F06CE
:101FC000509180064617570720F4BA01FC0140E003
:101FD0003EC061157105D1F74091E8004E774093FE
:101FE000E800F4CF80917806882309F448C0853052
:101FF00009F447C08091E80083FD3FC08091E8006C
:1020000082FD35C08091E80080FF21C09091F300EF
:102010008091F200392F20E090E0822B932B07C0B3
:1020200044914093F10031966150704001966115E2
:10203000710519F08830910598F341E088309105D9
:1020400009F040E08091E8008E778093E800611508
:10205000710541F6442331F60AC080917806882341
:1020600071F0853071F08091E80083FD0CC08091A3
:10207000E80082FFF2CF80E0089581E0089582E0D9
:10208000089583E0089581E00895982F2AC09093E1
:10209000E900981739F07091EC002091ED00509113
:1020A000F00003C0242F762F50E021FF19C030919B
:1020B000EB003E7F3093EB003091ED003D7F30939D
:1020C000ED003091EB0031603093EB007093EC0049
:1020D0002093ED005093F0002091EE0027FF08C000
:1020E0009F5F9730A0F28F708093E90081E00895A0
:1020F00080E008950F931F93CF93DF93162FEC0189
:1021000000E02AC09881992329F16B81E981FA8145
:102110002C81892F8F70873018F56295660F660FB6
:10212000607C991F9927991F692B223010F096E047
:1021300001C092E028E030E040E003C04F5F220F92
:10214000331F2E173F07D0F34295407F492B9DDF69
:10215000882331F00F5F25960117A1F681E001C0B9
:1021600080E0DF91CF911F910F91089580917906C2
:1021700087FF13C004C0809178068823B9F080914E
:10218000E80082FFF8CF8091E8008B778093E80029
:10219000089580917806882349F08091E80080FFB7
:1021A000F8CF8091E8008E778093E80008958091C1
:1021B000E4009091E50045E601C0C9012091EC00E2
:1021C00020FF23C02091E80020FD15C02091780653
:1021D000222399F0253099F02091EB0025FD11C0C4
:1021E0002091E4003091E5002817390739F3415078
:1021F00021F784E0089580E0089582E0089583E067
:10220000089581E0089580E008952091E80022FF7C
:10221000DDCFF9CF0F931F93CF93DF934BD052D0E5
:10222000C8EDD0E088818F77888388818068888333
:1022300088818F7D888319BC10927806109274066D
:10224000109276061092750600EE10E0F80180817B
:102250008B7F808388818160888380E060E042E0BA
:1022600014DFE1EEF0E080818E7F8083E2EEF0E02B
:10227000808181608083808188608083F801808193
:102280008E7F8083888180618883DF91CF911F91C9
:102290000F910895E8EDF0E080818F7E8083E7ED77
:1022A000F0E080818160808384E082BF81E0809360
:1022B0007706B0CFE8EDF0E080818E7F80831092CA
:1022C000E20008951092DA001092E10008951F9242
:1022D0000F920FB60F9211242F933F934F935F935A
:1022E0006F937F938F939F93AF93BF93EF93FF93DE
:1022F0008091E10082FF0BC08091E20082FF07C065
:102300008091E1008B7F8093E1000E94CB0380915C
:10231000DA0080FF1FC08091D80080FF1BC0809131
:10232000DA008E7F8093DA008091D90080FF0DC0A3
:1023300080E189BD82E189BD09B400FEFDCF81E065
:10234000809378060E94B40305C019BC10927806E9
:102350000E94B6038091E10080FF18C08091E200E6
:1023600080FF14C08091E2008E7F8093E200809114
:10237000E20080618093E2008091D80080628093C7
:10238000D80019BC85E080937806D3D18091E10014
:1023900084FF2FC08091E20084FF2BC080E189BDC3
:1023A00082E189BD09B400FEFDCF8091D8008F7D08
:1023B0008093D8008091E1008F7E8093E10080912E
:1023C000E2008F7E8093E2008091E2008160809342
:1023D000E20080917406882311F084E007C08091A8
:1023E000E30087FF02C083E001C081E080937806AC
:1023F000A0D18091E10083FF22C08091E20083FFA1
:102400001EC08091E100877F8093E10082E080938D
:102410007806109274068091E1008E7F8093E1002F
:102420008091E2008E7F8093E2008091E2008061E3
:102430008093E20080E060E042E027DE7AD1FF9105
:10244000EF91BF91AF919F918F917F916F915F912C
:102450004F913F912F910F900FBE0F901F901895A5
:102460001F93CF93DF93CDB7DEB7AC970FB6F89439
:10247000DEBF0FBECDBF80E0E9E7F6E09091F1004E
:1024800091938F5F8830D1F70E94C7038091E80055
:1024900083FF37C18091790620917A06253009F4AF
:1024A00084C0263040F42130A1F1213070F0233077
:1024B00009F027C12EC0283009F4F4C0293009F4EE
:1024C00003C1263009F01DC193C0803821F0823845
:1024D00009F017C108C0809175069091760699237E
:1024E00071F082600CC080917D068F708093E9004E
:1024F0009091EB0081E095FF80E01092E9009091CF
:10250000E800977F9093E8008093F1001092F1002B
:10251000D4C0882319F0823009F0F3C090E08F71A5
:102520009070009729F08230910509F0EAC00BC045
:1025300080917B06813009F0E4C0233009F080E00F
:10254000809376062CC080917B06882341F52091EC
:102550007D062F7009F4D5C02093E9008091EB002F
:1025600080FF1DC080917A06833021F48091EB00BA
:10257000806213C08091EB0080618093EB0081E06A
:1025800090E002C0880F991F2A95E2F78093EA0035
:102590001092EA008091EB0088608093EB0010922B
:1025A000E9008091E800877F8BC0882309F0A9C0EB
:1025B00010917B061F778091E3008078812B8093B8
:1025C000E3008091E800877F8093E800CFDD809171
:1025D000E80080FFFCCF8091E30080688093E300F7
:1025E000112311F083E001C082E08093780689C056
:1025F0008058823008F085C080917B0690917C06DF
:1026000023E08C3D9207A9F583E08C838AE28B83DB
:102610005FB7F894DE01139680E090E04EE061E24F
:10262000E42FF0E060935700E49180FF03C0E2954F
:10263000EF704F5FEF702E2F30E0EA3018F0295C1A
:102640003F4F02C0205D3F4F13963C932E9312974D
:10265000019612968431910519F75FBF8091E800C9
:10266000877F8093E800CE0103966AE270E0F2DB98
:1026700013C060917D06AE014F5F5F4F0E946C08F2
:10268000BC01009709F43DC08091E800877F8093EA
:10269000E80089819A8192DC8091E8008B778093B1
:1026A000E8002FC0803869F58091E800877F80932B
:1026B000E800809174068093F1008091E8008E77A5
:1026C0008093E80053DD1DC08823D9F490917B06E8
:1026D0009230B8F48091E800877F8093E80090936F
:1026E000740644DD80917406882321F48091E30010
:1026F00087FF02C084E001C081E0809378060E94D9
:10270000B8038091E80083FF0AC08091E800877FCA
:102710008093E8008091EB0080628093EB00AC96A0
:102720000FB6F894DEBF0FBECDBFDF91CF911F91E2
:1027300008950895CF93809178068823A9F0809119
:10274000E9008F709091EC0090FF02C0C0E801C0DA
:10275000C0E0C82B1092E9008091E80083FF01C01F
:102760007FDECF70C093E900CF9108956F927F9282
:102770008F929F92AF92BF92CF92DF92EF92FF9291
:102780000F931F93CF93DF9300D00F92CDB7DEB797
:102790007C016DB67EB68091E80083FF0AC1F70127
:1027A000808190E020917D0630917E0628173907C0
:1027B00009F0FFC080917A06833009F4A1C084300B
:1027C00030F4813071F0823009F0F3C0D6C08A3025
:1027D00009F4BBC08B3009F4A4C0893009F0E9C00A
:1027E00051C080917906813A09F0E3C09DB68EB65A
:1027F0001B821A8280917B0600917C068983F701F7
:1028000040858DB79EB7841B91090FB6F8949EBF83
:102810000FBE8DBFCDB6DEB60894C11CD11CBC2C3A
:10282000AD2CC60160E070E050E01DD4402F415057
:10283000C701BE016F5F7F4F96018E010E5F1F4F74
:102840000E94D703F70186819781009721F0408588
:10285000B60150E0FFD31092E9008091E800877F35
:102860008093E8008981882311F08093F1006A81C8
:102870007B818B2D9A2DEEDA8091E8008B77809307
:10288000E8003BC080917906813209F092C09DB684
:102890008EB600917F0610918006C0907B06D09086
:1028A0007C068DB79EB7801B910B0FB6F8949EBF28
:1028B0000FBE8DBFADB6BEB60894A11CB11C8091F1
:1028C000E800877F8093E800C501B80129DB80918B
:1028D000E8008E778093E80081E090E0CC2011F44E
:1028E00080E090E04D2D41509501280F391F081BC5
:1028F000190BC7016C2D0E94C7079DBE8EBE59C023
:1029000080917906813A09F054C08091E800877F70
:102910008093E8008091E80080FFFCCFF70181857B
:1029200040C080917906813209F043C08091E8006F
:10293000877F8093E8001ADC90917B0681E09923E1
:1029400009F480E0F701818734C0809179068132F3
:1029500081F58091E800877F8093E80007DC809113
:102960007B0690917C06807036E0969587953A9527
:10297000E1F7F701958784871CC080917906813A39
:10298000C1F48091E800877F8093E8008091E8009F
:1029900080FFFCCFF7018485958596958795969560
:1029A00087958093F1008091E8008E778093E8000E
:1029B000DDDB0FB6F8947EBE0FBE6DBE0F900F909C
:1029C0000F90DF91CF911F910F91FF90EF90DF90CB
:1029D000CF90BF90AF909F908F907F906F90089511
:1029E000CF93DF93FC010996DC0187E0ED0119929A
:1029F0008A95E9F781E0818784EF91E09587848764
:102A000083E08483CF01019661E074DBDF91CF9195
:102A100008954F925F926F927F928F929F92AF92A2
:102A2000BF92CF92DF92EF92FF920F931F93CF93BB
:102A3000DF9300D00F92CDB7DEB77C014DB65EB606
:102A400080917806843009F092C08091E4009091E2
:102A5000E500F701228533852817390709F487C077
:102A600081818F708093E9008091E80085FF7FC0AD
:102A70007DB66EB640858DB79EB7841B91090FB6A3
:102A8000F8949EBF0FBE8DBF0DB71EB70F5F1F4FCF
:102A900019821B821A82B02EA12EC80160E070E05C
:102AA00050E0E1D2C701BE016F5F7F4F40E0980167
:102AB0008E010E5F1F4F0E94D703182FF7018485E8
:102AC0009585009759F081E090E02685378521159E
:102AD000310511F080E090E04C0102C08824992477
:102AE000F701C680D780C114D10491F04A815B817F
:102AF0008B2D9A2DB601A1D201E0009709F400E0D8
:102B0000F7014085C6016B2D7A2D50E0A3D201C09C
:102B100000E08A819B81009709F1112329F40023A9
:102B200019F481149104D1F0F70184859585978774
:102B3000868781818F708093E9008981882311F0D5
:102B40008093F1006A817B818B2D9A2D40E050E0CB
:102B500031D98091E8008E778093E8008091E4007D
:102B60009091E500F701938782877DBE6EBE0FB618
:102B7000F8945EBE0FBE4DBE0F900F900F90DF9188
:102B8000CF911F910F91FF90EF90DF90CF90BF906A
:102B9000AF909F908F907F906F905F904F9008952F
:102BA0005058BB27AA270ED04DC13ED130F043D19B
:102BB00020F031F49F3F11F41EF433C10EF4E09580
:102BC000E7FB29C1E92F4FD180F3BA1762077307DA
:102BD0008407950718F071F49EF567C10EF4E0952F
:102BE0000B2EBA2FA02D0B01B90190010C01CA01C7
:102BF000A0011124FF27591B99F0593F50F4503E72
:102C000068F11A16F040A22F232F342F4427585F63
:102C1000F3CF469537952795A795F0405395C9F77B
:102C20007EF41F16BA0B620B730B840BBAF0915033
:102C3000A1F0FF0FBB1F661F771F881FC2F70EC0D2
:102C4000BA0F621F731F841F48F4879577956795A5
:102C5000B795F7959E3F08F0B3CF9395880F08F08E
:102C60009927EE0F9795879508950CD0EBC0E3D088
:102C700040F0DAD030F021F45F3F19F0CCC05111B0
:102C800015C1CFC0F0D098F39923C9F35523B1F300
:102C9000951B550BBB27AA2762177307840738F0CB
:102CA0009F5F5F4F220F331F441FAA1FA9F333D02A
:102CB0000E2E3AF0E0E830D091505040E695001CDE
:102CC000CAF729D0FE2F27D0660F771F881FBB1F9A
:102CD000261737074807AB07B0E809F0BB0B802D74
:102CE000BF01FF2793585F4F2AF09E3F510568F0C0
:102CF00092C0DCC05F3FECF3983EDCF3869577959D
:102D00006795B795F7959F5FC9F7880F911D9695C1
:102D1000879597F90895E1E0660F771F881FBB1F1D
:102D2000621773078407BA0720F0621B730B840BCA
:102D3000BA0BEE1F88F7E095089504D06894B1119E
:102D4000B5C0089598D088F09F5790F0B92F992773
:102D5000B751A0F0D1F0660F771F881F991F1AF0A6
:102D6000BA95C9F712C0B13081F09FD0B1E0089593
:102D70009CC0672F782F8827B85F39F0B93FCCF314
:102D8000869577956795B395D9F73EF4909580959C
:102D9000709561957F4F8F4F9F4F0895E89409C0BC
:102DA00097FB3EF490958095709561957F4F8F4F7E
:102DB0009F4F9923A9F0F92F96E9BB279395F69594
:102DC000879577956795B795F111F8CFFAF4BB0F12
:102DD00011F460FF1BC06F5F7F4F8F4F9F4F16C076
:102DE000882311F096E911C0772321F09EE8872F00
:102DF000762F05C0662371F096E8862F70E060E0BC
:102E00002AF09A95660F771F881FDAF7880F969534
:102E1000879597F9089597F99F6780E870E060E0DB
:102E200008959FEF80EC089500240A941616170663
:102E300018060906089500240A94121613061406AB
:102E400005060895092E0394000C11F4882352F00E
:102E5000BB0F40F4BF2B11F460FF04C06F5F7F4FC6
:102E60008F4F9F4F089557FD9058440F551F59F0AD
:102E70005F3F71F04795880F97FB991F61F09F3F67
:102E800079F087950895121613061406551FF2CF90
:102E90004695F1DF08C0161617061806991FF1CFE0
:102EA00086957105610508940895E894BB27662707
:102EB0007727CB0197F9089566D008F48FEF08952E
:102EC0000BD0C0CFB1DF28F0B6DF18F0952309F0A2
:102ED000A2CFA7CF1124EACFC6DFA0F3959FD1F3ED
:102EE000950F50E0551F629FF001729FBB27F00DB8
:102EF000B11D639FAA27F00DB11DAA1F649F66270D
:102F0000B00DA11D661F829F2227B00DA11D621F5B
:102F1000739FB00DA11D621F839FA00D611D221F15
:102F2000749F3327A00D611D231F849F600D211DF9
:102F3000822F762F6A2F11249F5750408AF0E1F09C
:102F400088234AF0EE0FFF1FBB1F661F771F881FE5
:102F500091505040A9F79E3F510570F05CCFA6CF2D
:102F60005F3FECF3983EDCF3869577956795B795D0
:102F7000F795E7959F5FC1F7FE2B880F911D9695FA
:102F8000879597F90895990F0008550FAA0BE0E867
:102F9000FEEF16161706E807F907C0F0121613061B
:102FA000E407F50798F0621B730B840B950B39F45B
:102FB0000A2661F0232B242B252B21F408950A26C1
:102FC00009F4A140A6958FEF811D811D0895AA1BCC
:102FD000BB1B51E107C0AA1FBB1FA617B70710F004
:102FE000A61BB70B881F991F5A95A9F78095909536
:102FF000BC01CD010895A1E21A2EAA1BBB1BFD0145
:103000000DC0AA1FBB1FEE1FFF1FA217B307E407C7
:10301000F50720F0A21BB30BE40BF50B661F771F1F
:10302000881F991F1A9469F76095709580959095FF
:103030009B01AC01BD01CF010895FB01DC0104C07F
:103040008D910190801921F441505040C8F7881BA0
:10305000990B0895FB01DC0102C001900D924150D3
:103060005040D8F70895DC0101C06D9341505040A5
:08307000E0F70895F894FFCF8A
:103078000100040006000700F9010A000000000032
:103088000000000000000000000000000000000038
:103098000000000000000000000000000000000028
:1030A8000000000000000000000000000000000018
:1030B8000000000000000000000000000000000008
:1030C80000000000000000000000000000000000F8
:1030D80000000000000000000000000000000000E8
:1030E80000000000000000000000000000000000D8
:1030F80000000000000000000000000000000000C8
:103108000000000000004843000048430000484316
:10311800000048430081080000013E03FF00000052
:1031280000000000E2806810000000396011974636
:103138000605070500000000AD4606024660AF79A7
:1031480060000068F504F60400000000AD460602C1
:103158004660937860000064EE04EF04000000000D
:10316800AD4606024660917560000065EE04EF0406
:1031780000000000E280681000000039148C72E042
:10318800E404E50400000000AD46060246609D73B5
:1031980061000066E404E50400000000AD46060294
:1031A8004660A57860000067DA04DB0400000000D0
:1031B800E280681000000039148C72E3A204A304B2
:1031C80000000000AD4606024660E1786000006D30
:1031D800B904BA0400000000AD4606024660D57B7B
:1031E8006000006CAA04AB0400000000AD460602B3
:1031F8004660CD756100006BAA04AB0400000000B6
:10320800AD4606024660C3766100006A7A047B0414
:1032180000000000E280681000000039148C732A56
:103228009D049E0400000000E28068100000003940
:10323800148C732D8A048B0400000000AD4606022E
:103248004660E97A6000006E94049504000000006E
:10325800E4052C06A4032A2928272625242322212D
:10326800201F28333E49545F6A76818C97A2ADB8F7
:10327800C3CFDAE5F0FBF9EFE5DBD1C7BEB4AAA00E
:10328800968C83796F655B52483E342A2020212230
:10329800232425262728292B2C2DA12000000000D7
:0A32A8000200A10100000000000078
:00000001FF
