:10000000B9C20000F1C20000EFC20000EDC2000062
:10001000EBC20000E9C20000E7C20000E5C2000038
:10002000E3C20000E1C200000C94320DDDC200000A
:10003000DBC20000D9C20000D7C20000D5C2000058
:10004000D3C20000D1C20000CFC20000CDC2000068
:10005000CBC2000032C60000C7C20000C5C200000B
:10006000C3C20000C1C20000BFC20000BDC2000088
:10007000BBC20000B9C20000B7C20000B5C2000098
:10008000B3C20000B1C20000AFC20000ADC20000A8
:10009000ABC20000A9C20000A7C20000A5C20000B8
:1000A000A3C20000A1C200009FC200000B47495636
:1000B000455F464C554944530008474956455F52F1
:1000C0004F43000D474956455F4C49444F43414E0D
:1000D00045000D474956455F50524F504F464F4CD3
:1000E0000010474956455F414E544942494F5449D3
:1000F0004353000D474956455F4B4554414D494ECA
:1001000045000D474956455F46454E54414E594CB2
:10011000000D474956455F4D4F525048494E4500E6
:100120000E474956455F45544F4D4944415445009B
:1001300004484541540004424C4950000B49565F65
:10014000696E667573696F6E000D41524D5F525F47
:1001500049565F43415448000E41524D5F4C5F4544
:1001600053434841525F35000E41524D5F4C5F454D
:1001700053434841525F34000E41524D5F4C5F453E
:1001800053434841525F33000E41524D5F4C5F452F
:1001900053434841525F32000E41524D5F4C5F4520
:1001A00053434841525F3100024F3200164D4153D4
:1001B0004B5F485950455256454E54494C41544561
:1001C0005F5054001C4D41494E5354454D5F5645B8
:1001D0004E54494C4154494F4E5F45545F5455422B
:1001E00045000742564D5F4F4646001356454E5454
:1001F000494C4154494F4E5F45545F545542450068
:100200001E45534F5048414745414C5F56454E545B
:10021000494C4154494F4E5F45545F545542450047
:10022000114143543D3138732C50524F583D3139B0
:10023000732C002C034C0055004600410020004761
:100240000065006E006500720069006300200048D0
:1002500000490044002000440065006D006F00006C
:100260000018034400650061006E00200043006137
:10027000006D0065007200610000000403090409BC
:10028000022200010100C032090400000103000045
:100290000009211101000122CA010705810308009C
:1002A000051201100100000008EB034020010001CD
:1002B0000200010600FF0901A101850109021500E4
:1002C00026FF00750895FEB1028502090215002679
:1002D000FF00750895FFB10285030905150026FF8B
:1002E0000075089506810085040906150026FF00A3
:1002F00075089508B10285050907150026FF0075E8
:1003000008950C810285060908150026FF0075086E
:100310009510B10285070909150026FF007508959B
:100320000D810285FF090A150026FF007508950852
:10033000B10285FE090B150026FF0075089508B16E
:10034000028508090C150026FF0075089504810236
:100350008508090C150026FF007508950491028593
:1003600009090C150026FF0075089504810285090E
:10037000090C150026FF00750895049102850A09ED
:100380000C150026FF00750895048102850A090CEA
:10039000150026FF00750895049102850B090C15C0
:1003A0000026FF00750895048102850B090C1500D5
:1003B00026FF00750895049102850C090C1500268E
:1003C000FF00750895048102850C090C150026FFB5
:1003D00000750895049102850D090C150026FF0093
:1003E000750895048102850D090C150026FF00751E
:1003F0000895049102850E090C150026FF0075086A
:1004000095048102850E090C150026FF00750895DC
:10041000049102850F0900150026FF007508950458
:10042000B1028510090D150026FF00750895408161
:10043000028511090D150026FF007508950191022E
:100440008512090E150026FF00750895FF810285AB
:1004500012090E150026FF00750895FF91028513FD
:10046000090F150026FF00750895FF810285130905
:100470000F150026FF00750895FF9102C0024F324C
:10048000000A54454D505F50524F424500085055A8
:100490004C53455F4F58000742505F435546460056
:1004A000034543470006464C554944530003524F09
:1004B0004300084C49444F43414E45000850524FB9
:1004C000504F464F4C000B414E544942494F5449FE
:1004D000435300084B4554414D494E45000846459D
:1004E0004E54414E594C00084D4F525048494E45CC
:1004F00000055355434353000945544F4D4944416A
:100500005445000456454E54000342564D000D41DB
:10051000524D5F525F49565F434154480006464C76
:10052000554944530003524F4300084C49444F433C
:10053000414E45000850524F504F464F4C000B4122
:100540004E544942494F5449435300084B45544186
:100550004D494E45000846454E54414E594C000801
:100560004D4F525048494E45000945544F4D49445E
:100570004154450011241FBECFEFDAE0DEBFCDBFEE
:1005800004B603FE1BC08091800690918106A09165
:100590008206B09183068A3C2CEA920722E4A207E5
:1005A0002CEDB20759F41092800610928106109239
:1005B000820610928306E0E0F8E3099513E0A0E0DC
:1005C000B1E0EEE0F6E202C005900D92A233B10771
:1005D000D9F716E0A2E3B3E001C01D92A038B1073D
:1005E000E1F7ACD00C9405130BCD25B1982F917089
:1005F00090952160922395B92BB1982F9072909588
:10060000206292239BB998B180789F77892B88B913
:1006100008958091E00081608093E000F8948FEF6E
:100620009DE3A9E481509040A040E1F700C00000A4
:100630008AEC9CEAA2E4BCED80938006909381064C
:10064000A0938206B09383062DE088E190E00FB678
:10065000F894A895809360000FBE20936000FFCFB0
:10066000982F9F7185FF04C080917B00806203C03A
:1006700080917B008F7D80937B0080917C00807EC9
:10068000892B80937C0080917A00806480937A002B
:1006900080917A0086FDFCCF80917800909179005E
:1006A000392F20E090E0822B932B08950F931F9316
:1006B000CF93DF930AEC15E0C0E0D0E0CE01D0DFAD
:1006C000F801819391938F012196C930D105B1F73B
:1006D000DF91CF911F910F91089584B7877F84BFD9
:1006E00088E10FB6F89480936000109260000FBE0E
:1006F000EAE7F0E080818760808380818068808382
:1007000080E480937C0090E080E80FB6F8948093BA
:100710006100909361000FBE808180648083769A2F
:1007200084B18E6084B984B1806C84B9209A289A8F
:10073000559A5D9A3F9A47980C94150DCEDFAFD22B
:1007400081E053DF78948CE991E00E94D4100E94FC
:10075000650FACDF8AEC95E07AD4F5CF80EA45CF1F
:1007600081E043CF8CE991E00E94BB109091E200C0
:1007700094609093E200882311F080E201C081E848
:1007800034CF8CE991E00C94810F8091AA01909173
:10079000AB01009729F001979093AB018093AA01D8
:1007A0000895EF92FF920F931F93CF93DF93DB0196
:1007B000E9017801442309F451C0423009F045C1F0
:1007C0008C91843031F4ADD28E0194D388E090E0E6
:1007D00013C08630B1F40CE811E0F8016191719119
:1007E000819191918F01AE011AD22496F1E00C39DA
:1007F0001F0799F780E190E0F7019183808381E002
:1008000025C1813081F481E1899380E090E00196F7
:10081000FC01E05EFD4FE491E99381319105B9F768
:100820008EEF90E0E9CF823081F48BE0899380E015
:1008300090E00196FC01E45CFE4FE491E9938B307B
:100840009105B9F78FEF90E0D7CF8F3009F0FDC059
:1008500080918405888384E090E0CECF8C918823BA
:1008600009F0F3C080917B058823B9F08EE089936D
:1008700080E090E00196FC01E05EFE4FE491E99398
:100880008E309105B9F782E18C938FEF90E0F701FC
:100890009183808310927B05B2CF80918605882357
:1008A000B9F08DE0899380E090E00196FC01EF5E65
:1008B000FE4FE491E9938D309105B9F782E18C9375
:1008C0008FEF90E0F701918380831092860597CF98
:1008D0008091BB058823B9F08DE0899380E090E09A
:1008E0000196FC01EE5FFE4FE491E9938D30910596
:1008F000B9F782E18C938FEF90E0F70191838083C9
:100900001092BB057CCF809167058823B9F08DE0FC
:10091000899380E090E00196FC01ED50FF4FE49157
:10092000E9938D309105B9F782E18C938FEF90E0D8
:10093000F701918380831092670561CF8091BE0596
:100940008823B9F080E1899380E090E00196FC0172
:10095000EF51FF4FE491E99380319105B9F782E1BE
:100960008C938FEF90E0F701918380831092BE0506
:1009700046CF8091A4058823B9F08DE0899380E06B
:1009800090E00196FC01EE52FF4FE491E9938D3027
:100990009105B9F782E18C938FEF90E0F701918395
:1009A00080831092A4052BCF8091C1058823B9F0D4
:1009B0008DE0899380E090E00196FC01ED53FF4FBC
:1009C000E491E9938D309105B9F782E18C938FEF33
:1009D00090E0F701918380831092C10510CF809140
:1009E000A3058823B9F088E0899380E090E0019620
:1009F000FC01E754FF4FE491E99388309105B9F782
:100A000082E18C938FEF90E0F701918380831092C5
:100A1000A305F5CE80916F058823B9F08BE089930B
:100A200080E090E00196FC01E455FF4FE491E993EA
:100A30008B309105B9F782E18C938FEF90E0F7014D
:100A40009183808310926F05DACE80E0DF91CF91A1
:100A50001F910F91FF90EF9008950F931F93CF93E5
:100A6000DF93E9014130B1F1423009F096C06230C4
:100A700051F481E080933503888180933403898128
:100A8000809333038AC0643021F4C9015CD2C2D19F
:100A900084C0663091F40CE811E0CE01DED0DC01B8
:100AA000CB01F80181939193A193B1938F01249687
:100AB000F1E00C391F0789F770C06F3F19F481EA24
:100AC00094DDA7DD6F3009F068C07AD281E08093B1
:100AD000700563C0613161F0623120F46D3009F05E
:100AE0005CC040C0623171F1633109F056C006C08C
:100AF0008881882309F051C04DD24FC08981863545
:100B000061F48A818534D9F48B818E34C1F48C816F
:100B10008435A9F440936D0512C0823449F48A816A
:100B2000863569F48B818D3451F44093550507C0A7
:100B30008F3429F48A81823311F44093BD05CE01AC
:100B400006D42BC08981833551F48A81843539F4E8
:100B50008B818F3421F48C81803509F433D2CE011E
:100B6000E9D41BC0C90179D020E030E040E752E46D
:100B70000E949B119B01AC0160E070E080E89FE364
:100B80000E949B1120E030E04AE754E40E94851265
:100B90000E940312DC01CB0118D2DF91CF911F918B
:100BA0000F910895933089F0943028F4913049F1F1
:100BB000923061F505C09132D1F0923239F51CC006
:100BC00082E290E0EFE7F2E025C0813041F0813031
:100BD00018F08230D9F406C0EBE7F2E005C0E1E698
:100BE000F2E002C0E3E3F2E0849190E013C089E018
:100BF00090E0E1E9F2E00EC08AEC91E0E3EBF2E094
:100C000009C082E190E0E1EAF2E004C080E090E017
:100C1000E0E0F0E0DA011196FC93EE930895CF93B3
:100C2000DF9300D000D0CDB7DEB7DC01CB018983E4
:100C30009A83AB83BC83DE011196FA0180E090E0D9
:100C40002D912193019684309105D1F70F900F904B
:100C50000F900F90DF91CF910895CF93DF9300D045
:100C600000D0CDB7DEB7FC01DE01119680E090E048
:100C700021912D93019684309105D1F759814A81B4
:100C80003B812C81852F942FA32FB22FBC01CD0146
:100C90000F900F900F900F90DF91CF91089584B532
:100CA000826084BDEEE6F0E080818260808389EF1F
:100CB00087BD85B5836085BD08951F920F920FB6DD
:100CC0000F9211248F939F93AF93BF9380913D0414
:100CD00090913E04A0913F04B09140040196A11D63
:100CE000B11D80933D0490933E04A0933F04B093C4
:100CF0004004BF91AF919F918F910F900FBE0F90C5
:100D00001F9018950F931F9300913D0410913E047E
:100D100020913F0430914004B801C9011F910F9107
:100D20000895DF92EF92FF920F931F93CF93DF937B
:100D300000913D0410913E0420913F043091400405
:100D400040E050E0BA01F0903504B0913604A09133
:100D50003704D09038048091390490913A04E0909F
:100D60003B04E0913C04F00ED1E0F01608F0D0E036
:100D7000B10FC1E0B11708F0C0E0DB0FF1E0DB1705
:100D800008F0F0E0CF2BA20FB1E0A21708F0B0E01E
:100D9000CA0FF1E0CA1708F0F0E0BF2BF32FFD0DEA
:100DA000A1E0F31708F0A0E0BF0FDD24D394BF1734
:100DB00008F0DD24AD29F1E0841708F0F0E0A80F79
:100DC000DD24D394A81708F0DD24FD2981E09517D0
:100DD00008F080E0F90FDD24D394F91708F0DD2442
:100DE0008D2991E0E61608F090E08E0D21E08E1539
:100DF00008F020E0922B2F2D3D2F4C2F5B2F6A2FD8
:100E00007F2F9E0FDF91CF911F910F91FF90EF9059
:100E1000DF900895DF92EF92FF920F931F93CF938D
:100E2000DF93F901DA01EB0100913D0410913E04DA
:100E300020913F0430914004DE2ED01AEE24E3943A
:100E4000ED1508F0EE24EF2FE11BFF24F394FE17BD
:100E500008F0FF24FE2FFE19EF2EF1E0EE1508F04A
:100E6000F0E0FF2AFA2FF21BE1E0AF1708F0E0E014
:100E7000AF2FAF19FF24F394FA1708F0FF24EF29DE
:100E8000FB2FF31B3F2F21E0BF1708F020E0532F6B
:100E90005E1B41E0351708F040E0242B4C2F421B2D
:100EA00021E0C41708F020E03D2F321B21E0D317CA
:100EB00008F020E0682F621B262F61E0821708F0FF
:100EC00060E0961BD0923504E0923604A09337047C
:100ED000509338044093390430933A0420933B04F0
:100EE00090933C04DF91CF911F910F91FF90EF9071
:100EF000DF9008950F931F93CF93DF93CDB7DEB7A5
:100F000028970FB6F894DEBF0FBECDBF29833A8372
:100F10004B835C836D837E838F839887DE01199674
:100F2000F801CE0101962E912193A817B907D9F7A0
:100F300028960FB6F894DEBF0FBECDBFDF91CF91DC
:100F40001F910F910895CF93DF93CDB7DEB7289708
:100F50000FB6F894DEBF0FBECDBFDC011896FE01C0
:100F6000319680E090E02E91219301968830910592
:100F7000D1F729813A814B815C816D817E818F819E
:100F8000988528960FB6F894DEBF0FBECDBFDF91CF
:100F9000CF9108958091C80085FFFCCF83E48093B2
:100FA000CE008091C80085FFFCCF83E08093CE0007
:100FB0008091C80085FFFCCF81E08093CE0008952A
:100FC0002F9A089510926B06089521E020936B06E6
:100FD0008534910514F484E490E09093DD028093CD
:100FE000DC020895813019F480937B0508958230E6
:100FF00021F481E0809386050895833021F481E017
:101000008093BB050895843021F481E080936705C7
:101010000895853021F481E08093BE0508958630DF
:1010200021F481E08093A4050895873021F481E0C4
:101030008093C1050895883021F481E08093A30551
:101040000895893019F481E080936F050895CF9257
:10105000DF92EF92FF92CF93DF93EC0153DE6B01AF
:101060007C0120917206222339F48881998132E033
:101070008130930748F43CC02130D1F588819981B3
:1010800032E080309307A0F580917205909173054E
:10109000A0917405B0917505AC01BD014C5E5F4F28
:1010A0006F4F7F4FC416D506E606F70608F131E00C
:1010B000211130E03093720686509F4FAF4FBF4FE3
:1010C0008C159D05AE05BF0558F0809170068823EC
:1010D00039F080914104882319F084DF1092410493
:1010E000C0927205D0927305E0927405F092750576
:1010F0008091A5059091A605A091A705B091A8059E
:10110000805F984DAF4FBF4FC816D906EA06FB0661
:1011100068F08091C005882349F08091700688238B
:1011200029F081E080937B051092C0058091C20573
:101130009091C305A091C405B091C505805F984DFD
:10114000AF4FBF4FC816D906EA06FB0668F080917C
:10115000AA05882349F080917006882329F081E050
:10116000809386051092AA058091510590915205B1
:10117000A0915305B0915405805F984DAF4FBF4F7C
:10118000C816D906EA06FB0668F080918305882315
:1011900049F080917006882329F081E08093BB0597
:1011A000109283058091C6059091C705A091C8054E
:1011B000B091C905805F984DAF4FBF4FC816D90693
:1011C000EA06FB0668F080914805882349F0809183
:1011D0007006882329F081E0809367051092480506
:1011E00080917C0590917D05A0917E05B0917F0551
:1011F000805F984DAF4FBF4FC816D906EA06FB0671
:1012000068F080919E05882349F0809170068823BC
:1012100029F081E08093BE0510929E05809195058E
:1012200090919605A0919705B0919805805F984D93
:10123000AF4FBF4FC816D906EA06FB0668F080918B
:101240007A05882349F080917006882329F081E08F
:101250008093A40510927A0580919F059091A00536
:10126000A091A105B091A205805F984DAF4FBF4FEF
:10127000C816D906EA06FB0668F080914604882362
:1012800049F080917006882329F081E08093C105A0
:10129000109246048091AC059091AD05A091AE05E9
:1012A000B091AF05805F984DAF4FBF4FC816D906BC
:1012B000EA06FB0668F080918205882349F0809158
:1012C0007006882329F081E08093A305109282059F
:1012D0008091690590916A05A0916B05B0916C05AC
:1012E000805F984DAF4FBF4FC816D906EA06FB0680
:1012F00068F08091BC05882349F0809170068823AE
:1013000029F081E080936F051092BC05DF91CF91A9
:10131000FF90EF90DF90CF900895DC0180E090E0A7
:101320000AC02D91FB01E80FF91FE4912E1748F038
:10133000E21750F00196841795079CF380E090E047
:1013400008958FEF9FEF089581E090E00895CF9288
:10135000DF92EF92FF920F931F93CF93DF93EC01F5
:10136000D1DC6B017C011881412F1A3008F049E073
:10137000CE0169E675E050E0D0DF009771F481E0BE
:1013800080934104C092A505D092A605E092A705DE
:10139000F092A8058093C005C4C0012F193008F051
:1013A00008E0CE016FE575E0402F50E0B6DF009712
:1013B00079F482E080934104C092C205D092C305C3
:1013C000E092C405F092C50581E08093AA05A9C00A
:1013D000CE0165E575E0402F50E09FDF009779F47E
:1013E00083E080934104C0925105D0925205E0926F
:1013F0005305F092540581E08093830592C0CE019D
:101400006BE475E0402F50E088DF009779F484E0CA
:1014100080934104C092C605D092C705E092C805EA
:10142000F092C90581E0809348057BC0412F1C30B4
:1014300008F04BE0CE016EE375E050E06EDF009700
:1014400079F485E080934104C0927C05D0927D05BB
:10145000E0927E05F0927F0581E080939E0561C059
:10146000CE0164E375E0402F50E057DF009779F438
:1014700086E080934104C0929505D0929605E09253
:101480009705F092980581E080937A054AC0CE01D5
:101490006AE275E0402F50E040DF009779F487E082
:1014A00080934104C0929F05D092A005E092A105CF
:1014B000F092A20581E08093460433C0412F14309E
:1014C00008F043E0CE0165E275E050E026DF0097CA
:1014D00079F488E080934104C092AC05D092AD05C8
:1014E000E092AE05F092AF0581E08093820519C0CD
:1014F000412F173008F046E0CE016DE175E050E075
:101500000CDF009771F489E080934104C092690573
:10151000D0926A05E0926B05F0926C0581E08093B1
:10152000BC05DF91CF911F910F91FF90EF90DF905D
:10153000CF9008956EE075E04DE050E0EEDE00974C
:1015400019F481E0809370060895AF92BF92CF9214
:10155000DF92EF92FF921F93CF93DF93EC017B0119
:101560006A01F0D1182F8823A9F5C114D10439F0EC
:10157000F60120813181E21AF30AC20FD31FAA2497
:10158000BB2423C08091E80085FD16C08091E8004F
:101590008E778093E80099D4C114D10449F0F60104
:1015A000808191818A0D9B1D9183808315E012C0FB
:1015B000C9D1882351F00DC089918093F10008941E
:1015C000E108F1080894A11CB11CE114F104D1F662
:1015D00001C0182F812FDF91CF911F91FF90EF90C5
:1015E000DF90CF90BF90AF90089540917E065091CC
:1015F0007F064617570720F4BA01FC0140E03DC0C2
:1016000061157105D1F74091E8004E774093E800ED
:10161000F4CF80917706882309F447C0853009F418
:1016200046C08091E80083FD3EC08091E80082FDC5
:1016300034C08091E80080FF20C09091F300809139
:10164000F200392F20E090E0822B932B06C04191CD
:101650004093F1006150704001966115710519F0D9
:1016600088309105A0F341E08830910509F040E011
:101670008091E8008E778093E8006115710549F646
:10168000442339F60AC080917706882371F08530AB
:1016900071F08091E80083FD0CC08091E80082FF2A
:1016A000F2CF80E0089581E0089582E0089583E01C
:1016B000089581E008956115710529F44091E800CD
:1016C0004B774093E800582F492F2BC08091770625
:1016D0008823D9F18530A9F18091E80083FD33C0DA
:1016E0008091E80082FFF2CFE52FF42F08C08091AF
:1016F000F10081935E2F4F2F6150704069F05E2F93
:101700004F2F9091F3008091F200392F20E090E06C
:10171000822B932B009759F78091E8008B77809369
:10172000E8006115710591F606C08091770688235F
:1017300061F0853061F08091E80080FFF6CF80E0B5
:10174000089583E0089581E0089582E0089583E09C
:10175000089540917E0650917F064617570720F462
:10176000BA01FC0140E03EC061157105D1F740911E
:10177000E8004E774093E800F4CF80917706882305
:1017800009F448C0853009F447C08091E80083FD22
:101790003FC08091E80082FD35C08091E80080FF65
:1017A00021C09091F3008091F200392F20E090E069
:1017B000822B932B07C044914093F10031966150E6
:1017C000704001966115710519F08830910598F304
:1017D00041E08830910509F040E08091E8008E7783
:1017E0008093E8006115710541F6442331F60AC083
:1017F00080917706882371F0853071F08091E80040
:1018000083FD0CC08091E80082FFF2CF80E0089554
:1018100081E0089582E0089583E0089581E00895CD
:10182000982F2AC09093E900981739F07091EC0036
:101830002091ED005091F00003C0242F762F50E04E
:1018400021FF19C03091EB003E7F3093EB003091C7
:10185000ED003D7F3093ED003091EB00316030932F
:10186000EB007093EC002093ED005093F00020917A
:10187000EE0027FF08C09F5F9730A0F28F70809323
:10188000E90081E0089580E008950F931F93CF93BE
:10189000DF93162FEC0100E02AC09881992329F1EB
:1018A0006B81E981FA812C81892F8F70873018F53F
:1018B0006295660F660F607C991F9927991F692BA7
:1018C000223010F096E001C092E028E030E040E0E5
:1018D00003C04F5F220F331F2E173F07D0F34295EF
:1018E000407F492B9DDF882331F00F5F259601173C
:1018F000A1F681E001C080E0DF91CF911F910F91AF
:1019000008958091780687FF13C004C08091770600
:101910008823B9F08091E80082FFF8CF8091E80039
:101920008B778093E800089580917706882349F0AB
:101930008091E80080FFF8CF8091E8008E77809357
:10194000E80008958091E4009091E50045E601C02B
:10195000C9012091EC0020FF23C02091E80020FD68
:1019600015C020917706222399F0253099F0209117
:10197000EB0025FD11C02091E4003091E50028170F
:10198000390739F3415021F784E0089580E0089544
:1019900082E0089583E0089581E0089580E008954D
:1019A0002091E80022FFDDCFF9CF0F931F93CF9353
:1019B000DF934BD052D0C8EDD0E088818F778883F9
:1019C00088818068888388818F7D888319BC109284
:1019D000770610927306109275061092740600EE48
:1019E00010E0F80180818B7F80838881816088830B
:1019F00080E060E042E014DFE1EEF0E080818E7F85
:101A00008083E2EEF0E08081816080838081886065
:101A10008083F80180818E7F8083888180618883C4
:101A2000DF91CF911F910F910895E8EDF0E0808153
:101A30008F7E8083E7EDF0E080818160808384E0A9
:101A400082BF81E080937606B0CFE8EDF0E0808140
:101A50008E7F80831092E20008951092DA00109237
:101A6000E10008951F920F920FB60F9211242F9349
:101A70003F934F935F936F937F938F939F93AF9316
:101A8000BF93EF93FF938091E10082FF0BC08091A1
:101A9000E20082FF07C08091E1008B7F8093E1002C
:101AA0000E94C5038091DA0080FF1FC08091D8009A
:101AB00080FF1BC08091DA008E7F8093DA008091D6
:101AC000D90080FF0DC080E189BD82E189BD09B4E4
:101AD00000FEFDCF81E0809377060E94AE0305C033
:101AE00019BC109277060E94B0038091E10080FF3C
:101AF00018C08091E20080FF14C08091E2008E7FC8
:101B00008093E2008091E20080618093E200809106
:101B1000D80080628093D80019BC85E08093770656
:101B2000D3D18091E10084FF2FC08091E20084FF37
:101B30002BC080E189BD82E189BD09B400FEFDCFE3
:101B40008091D8008F7D8093D8008091E1008F7EB6
:101B50008093E1008091E2008F7E8093E20080918B
:101B6000E20081608093E20080917306882311F087
:101B700084E007C08091E30087FF02C083E001C0DA
:101B800081E080937706A0D18091E10083FF22C09D
:101B90008091E20083FF1EC08091E100877F8093E7
:101BA000E10082E080937706109273068091E10055
:101BB0008E7F8093E1008091E2008E7F8093E2002F
:101BC0008091E20080618093E20080E060E042E08A
:101BD00027DE7AD1FF91EF91BF91AF919F918F91C5
:101BE0007F916F915F914F913F912F910F900FBE19
:101BF0000F901F9018951F93CF93DF93CDB7DEB74B
:101C0000AC970FB6F894DEBF0FBECDBF80E0E8E71B
:101C1000F6E09091F10091938F5F8830D1F70E94A8
:101C2000C1038091E80083FF37C18091780620913D
:101C30007906253009F484C0263040F42130A1F122
:101C4000213070F0233009F027C12EC0283009F46C
:101C5000F4C0293009F403C1263009F01DC193C036
:101C6000803821F0823809F017C108C080917406CD
:101C700090917506992371F082600CC080917C066A
:101C80008F708093E9009091EB0081E095FF80E0F8
:101C90001092E9009091E800977F9093E80080937C
:101CA000F1001092F100D4C0882319F0823009F0BD
:101CB000F3C090E08F719070009729F08230910509
:101CC00009F0EAC00BC080917A06813009F0E4C0C7
:101CD000233009F080E0809375062CC080917A064D
:101CE000882341F520917C062F7009F4D5C02093FC
:101CF000E9008091EB0080FF1DC080917906833060
:101D000021F48091EB00806213C08091EB00806130
:101D10008093EB0081E090E002C0880F991F2A9524
:101D2000E2F78093EA001092EA008091EB0088606D
:101D30008093EB001092E9008091E800877F8BC0D0
:101D4000882309F0A9C010917A061F778091E300DB
:101D50008078812B8093E3008091E800877F8093D7
:101D6000E800CFDD8091E80080FFFCCF8091E300A8
:101D700080688093E300112311F083E001C082E0CA
:101D80008093770689C08058823008F085C08091A2
:101D90007A0690917B0623E08C3D9207A9F583E0BB
:101DA0008C838AE28B835FB7F894DE01139680E020
:101DB00090E04EE061E2E42FF0E060935700E491A0
:101DC00080FF03C0E295EF704F5FEF702E2F30E081
:101DD000EA3018F0295C3F4F02C0205D3F4F139658
:101DE0003C932E931297019612968431910519F720
:101DF0005FBF8091E800877F8093E800CE01039663
:101E00006AE270E0F2DB13C060917C06AE014F5FC6
:101E10005F4F0E94D205BC01009709F43DC080913C
:101E2000E800877F8093E80089819A8192DC809125
:101E3000E8008B778093E8002FC0803869F58091A7
:101E4000E800877F8093E800809173068093F1001B
:101E50008091E8008E778093E80053DD1DC08823D1
:101E6000D9F490917A069230B8F48091E800877F97
:101E70008093E8009093730644DD80917306882375
:101E800021F48091E30087FF02C084E001C081E07B
:101E9000809377060E94B2038091E80083FF0AC016
:101EA0008091E800877F8093E8008091EB0080625A
:101EB0008093EB00AC960FB6F894DEBF0FBECDBF9B
:101EC000DF91CF911F9108950895CF938091770668
:101ED0008823A9F08091E9008F709091EC0090FF29
:101EE00002C0C0E801C0C0E0C82B1092E900809198
:101EF000E80083FF01C07FDECF70C093E900CF917F
:101F000008956F927F928F929F92AF92BF92CF92DD
:101F1000DF92EF92FF920F931F93CF93DF9300D046
:101F20000F92CDB7DEB77C016DB67EB68091E8002A
:101F300083FF0AC1F701808190E020917C063091F7
:101F40007D062817390709F0FFC080917906833094
:101F500009F4A1C0843030F4813071F0823009F08E
:101F6000F3C0D6C08A3009F4BBC08B3009F4A4C0DA
:101F7000893009F0E9C051C080917806813A09F0B2
:101F8000E3C09DB68EB61B821A8280917A060091BC
:101F90007B068983F70140858DB79EB7841B910925
:101FA0000FB6F8949EBF0FBE8DBFCDB6DEB60894B7
:101FB000C11CD11CBC2CAD2CC60160E070E050E00F
:101FC0001DD3402F4150C701BE016F5F7F4F960167
:101FD0008E010E5F1F4F0E94D103F701868197810A
:101FE000009721F04085B60150E0FFD21092E90041
:101FF0008091E800877F8093E8008981882311F031
:102000008093F1006A817B818B2D9A2DEEDA80918D
:10201000E8008B778093E8003BC08091780681329E
:1020200009F092C09DB68EB600917E0610917F0693
:10203000C0907A06D0907B068DB79EB7801B910B1F
:102040000FB6F8949EBF0FBE8DBFADB6BEB6089456
:10205000A11CB11C8091E800877F8093E800C50136
:10206000B80129DB8091E8008E778093E80081E059
:1020700090E0CC2011F480E090E04D2D415095018E
:10208000280F391F081B190BC7016C2D0E942D0545
:102090009DBE8EBE59C080917806813A09F054C029
:1020A0008091E800877F8093E8008091E80080FFBE
:1020B000FCCFF701818540C080917806813209F01C
:1020C00043C08091E800877F8093E8001ADC9091FC
:1020D0007A0681E0992309F480E0F701818734C012
:1020E00080917806813281F58091E800877F809326
:1020F000E80007DC80917A0690917B06807036E0DC
:10210000969587953A95E1F7F701958784871CC0E6
:1021100080917806813AC1F48091E800877F8093AE
:10212000E8008091E80080FFFCCFF7018485958569
:1021300096958795969587958093F1008091E80014
:102140008E778093E800DDDB0FB6F8947EBE0FBE7D
:102150006DBE0F900F900F90DF91CF911F910F9157
:10216000FF90EF90DF90CF90BF90AF909F908F90B7
:102170007F906F900895CF93DF93FC010996DC0167
:1021800087E0ED0119928A95E9F781E0818784EF74
:1021900091E09587848783E08483CF01019661E095
:1021A00074DBDF91CF9108954F925F926F927F928F
:1021B0008F929F92AF92BF92CF92DF92EF92FF9257
:1021C0000F931F93CF93DF9300D00F92CDB7DEB75D
:1021D0007C014DB65EB680917706843009F092C0DE
:1021E0008091E4009091E500F7012285338528175E
:1021F000390709F487C081818F708093E90080914D
:10220000E80085FF7FC07DB66EB640858DB79EB76E
:10221000841B91090FB6F8949EBF0FBE8DBF0DB7FA
:102220001EB70F5F1F4F19821B821A82B02EA12E7C
:10223000C80160E070E050E0E1D1C701BE016F5F0E
:102240007F4F40E098018E010E5F1F4F0E94D10327
:10225000182FF70184859585009759F081E090E06B
:10226000268537852115310511F080E090E04C017D
:1022700002C088249924F701C680D780C114D104F4
:1022800091F04A815B818B2D9A2DB601A1D101E09D
:10229000009709F400E0F7014085C6016B2D7A2D07
:1022A00050E0A3D101C000E08A819B81009709F131
:1022B000112329F4002319F481149104D1F0F701BA
:1022C000848595859787868781818F708093E900C3
:1022D0008981882311F08093F1006A817B818B2DA5
:1022E0009A2D40E050E031D98091E8008E778093BC
:1022F000E8008091E4009091E500F70193878287E0
:102300007DBE6EBE0FB6F8945EBE0FBE4DBE0F9082
:102310000F900F90DF91CF911F910F91FF90EF9051
:10232000DF90CF90BF90AF909F908F907F906F90F5
:102330005F904F9008950CD0AEC0A6D040F09DD0D5
:1023400030F021F45F3F19F08FC05111D8C092C016
:10235000B3D098F39923C9F35523B1F3951B550BCB
:10236000BB27AA2762177307840738F09F5F5F4F68
:10237000220F331F441FAA1FA9F333D00E2E3AF0A9
:10238000E0E830D091505040E695001CCAF729D0C3
:10239000FE2F27D0660F771F881FBB1F2617370712
:1023A0004807AB07B0E809F0BB0B802DBF01FF2742
:1023B00093585F4F2AF09E3F510568F055C09FC06B
:1023C0005F3FECF3983EDCF3869577956795B7957C
:1023D000F7959F5FC9F7880F911D9695879597F997
:1023E0000895E1E0660F771F881FBB1F6217730710
:1023F0008407BA0720F0621B730B840BBA0BEE1F25
:1024000088F7E095089504D06894B11178C00895D4
:102410005BD088F09F5790F0B92F9927B751A0F063
:10242000D1F0660F771F881F991F1AF0BA95C9F768
:1024300012C0B13081F062D0B1E008955FC0672F63
:10244000782F8827B85F39F0B93FCCF38695779518
:102450006795B395D9F73EF4909580957095619501
:102460007F4F8F4F9F4F089597F99F6780E870E0E7
:1024700060E008959FEF80EC089500240A941616FA
:10248000170618060906089500240A941216130662
:10249000140605060895092E0394000C11F48823F0
:1024A00052F0BB0F40F4BF2B11F460FF04C06F5F0C
:1024B0007F4F8F4F9F4F089557FD9058440F551FE2
:1024C00059F05F3F71F04795880F97FB991F61F0B6
:1024D0009F3F79F087950895121613061406551F2D
:1024E000F2CF4695F1DF08C0161617061806991F99
:1024F000F1CF86957105610508940895E894BB278E
:1025000066277727CB0197F908950BD0C4CFB5DFA5
:1025100028F0BADF18F0952309F0A6CFABCF11242D
:10252000EECFCADFA0F3959FD1F3950F50E0551F72
:10253000629FF001729FBB27F00DB11D639FAA2718
:10254000F00DB11DAA1F649F6627B00DA11D661F67
:10255000829F2227B00DA11D621F739FB00DA11D88
:10256000621F839FA00D611D221F749F3327A00D42
:10257000611D231F849F600D211D822F762F6A2FDE
:1025800011249F5750408AF0E1F088234AF0EE0F63
:10259000FF1FBB1F661F771F881F91505040A9F770
:1025A0009E3F510570F060CFAACF5F3FECF3983E9D
:1025B000DCF3869577956795B795F795E7959F5FD7
:1025C000C1F7FE2B880F911D9695879597F9089571
:1025D000FB01DC0104C08D910190801921F4415070
:1025E0005040C8F7881B990B0895FB01DC0102C01D
:1025F00001900D9241505040D8F70895DC0101C080
:0E2600006D9341505040E0F70895F894FFCFDD
:10260E00F9010A00000000000000000000000000B8
:10261E0000000000000000000000000000000000AC
:10262E00000000000000000000000000000000009C
:10263E00000000000000000000000000000000008C
:10264E00000000000000000000000000000000007C
:10265E00000000000000000000000000000000006C
:10266E00000000000000000000000000000000005C
:10267E00000000000000000000000000000000004C
:10268E0000000000000000000000000000004843B1
:10269E000000484300004843000048430081080002
:1026AE0000013603FF00000000000000E280681009
:1026BE00000000396011974609050A050000000068
:1026CE00AD4606024660AF7960000068F804F90472
:1026DE0000000000AD46060246609378600000647C
:1026EE00F104F20400000000AD460602466091754A
:1026FE0060000065F104F20400000000E280681042
:10270E0000000039148C72E0E704E80400000000B9
:10271E00AD46060246609D7361000066E704E8045C
:10272E0000000000AD4606024660A5786000006716
:10273E00DD04DE0400000000E280681000000039B5
:10274E00148C72E3A504A60400000000AD46060238
:10275E004660E1786000006DBC04BD04000000001E
:10276E00AD4606024660D57B6000006CAD04AE043B
:10277E0000000000AD4606024660CD756100006B9C
:10278E00AD04AE0400000000AD4606024660C376FE
:10279E006100006A7D047E0400000000E280681083
:1027AE0000000039148C732AA004A104000000005C
:1027BE00E280681000000039148C732D8D048E0495
:1027CE0000000000AD4606024660E97A6000006E29
:1027DE009704980400000000E3052B06A4032A29A1
:1027EE002827262524232221201F28333E49545FE3
:1027FE006A76818C97A2ADB8C3CFDAE5F0FBF9EF1C
:10280E00E5DBD1C7BEB4AAA0968C83796F655B5207
:10281E00483E342A20202122232425262728292B0E
:10282E002C2DA120000000000200A10100000000DC
:02283E00000098
:00000001FF
