:100000004DC1000085C1000083C1000081C1000016
:100010007FC100007DC100007BC1000079C10000EC
:1000200077C1000075C100000C94500C71C1000034
:100030006FC100006DC100006BC1000069C100000C
:1000400067C1000065C1000063C1000061C100001C
:100050005FC1000051C700005BC1000059C1000032
:1000600057C1000055C1000053C1000051C100003C
:100070004FC100004DC100004BC1000049C100004C
:1000800047C1000045C1000043C1000041C100005C
:100090003FC100003DC100003BC1000039C100006C
:1000A00037C1000035C1000033C100002C034C00F3
:1000B0005500460041002000470065006E006500C5
:1000C00072006900630020004800490044002000DD
:1000D000440065006D006F000000180344006500D7
:1000E00061006E002000430061006D006500720039
:1000F000610000000403090409022200010100C09C
:10010000320904000001030000000921110100016F
:10011000227001070581030800051201100100008B
:100120000008EB0340200100010200010600FF0966
:1001300001A10185010902150026FF00750895221D
:10014000B10285020905150026FF0075089522B148
:100150000185030905150026FF0075089518810023
:1001600085040906150026FF0075089508B102856B
:10017000050907150026FF007508950C8102850604
:100180000908150026FF0075089510B102850709BA
:1001900009150026FF007508950D810285FF090AE3
:1001A000150026FF0075089508B10285FE090B159C
:1001B0000026FF0075089508B1028508090C150096
:1001C00026FF007508950481028508090C15002694
:1001D000FF007508950491028509090C150026FF9A
:1001E000007508950481028509090C150026FF0099
:1001F000750895049102850A090C150026FF007503
:100200000895048102850A090C150026FF0075086F
:1002100095049102850B090C150026FF00750895C1
:10022000048102850B090C150026FF007508950452
:100230009102850C090C150026FF007508950481B4
:1002400002850C090C150026FF0075089504910223
:10025000850D090C150026FF00750895048102859F
:100260000D090C150026FF00750895049102850EF6
:10027000090C150026FF00750895048102850E09FA
:100280000C150026FF00750895049102850F0900E2
:10029000150026FF00750895018102C011241FBEBC
:1002A000CFEFDAE0DEBFCDBF04B603FE1BC0809106
:1002B000130390911403A0911503B09116038A3C87
:1002C0002CEA920722E4A2072CEDB20759F410920F
:1002D0001303109214031092150310921603E0E01A
:1002E000F8E3099511E0A0E0B1E0E4EAF5E202C02C
:1002F00005900D92A43FB107D9F713E0A4EFB1E048
:1003000001C01D92A331B107E1F713D10C94D012B3
:1003100077CE25B1982F917090952160922395B951
:100320002BB1982F90729095206292239BB998B12F
:1003300080789F77892B88B908958091E00081604B
:100340008093E000F8948FEF9DE3A9E48150904002
:10035000A040E1F700C000008AEC9CEAA2E4BCEDFA
:100360008093130390931403A0931503B093160383
:100370002DE088E190E00FB6F894A8958093600096
:100380000FBE20936000FFCF982F977083FF04C0AB
:1003900080917B00806203C080917B008F7D809381
:1003A0007B0080917C00887F892B80937C008091EA
:1003B0007A00806480937A0080917A0086FDFCCF79
:1003C0008091780090917900392F20E090E0822B85
:1003D000932B08950F931F93CF93DF9301E512E0C2
:1003E000C0E0D0E0CE01D0DFF801819391938F017E
:1003F0002196CC30D105B1F7DF91CF911F910F91AC
:100400000895CF9381E0669980E0C091F401CC23F8
:1004100021F0C13009F061C023C0882309F45DC018
:100420009FD5209328023093290240932A025093AB
:100430002B0260932C0270932D0280932E029093D6
:100440002F027FD5DC01CB018093450290934602B9
:10045000A0934702B093480281E08093F4013DC02D
:100460008823D9F56ED5DC01CB011092F4012091DF
:100470002802209349022091290220934A022091C8
:100480002A0220934B0220912B0220934C022091B0
:100490002C0220934D0220912D0220934E02209198
:1004A0002E0220934F0220912F0220935002409160
:1004B0004502509146026091470270914802841BA8
:1004C000950BA60BB70B8093410290934202A09329
:1004D0004302B0934402C0936902CF91089584B758
:1004E000877F84BF88E10FB6F894809360001092F4
:1004F00060000FBEEAE7F0E087E0808380818068DB
:10050000808380E480937C0090E080E80FB6F894CC
:1005100080936100909361000FBE8081806480832E
:10052000769A209A289A559A5D9A3F9A47980C9401
:10053000330CD5DFD3D481E0ECDE789419D28CEC87
:1005400091E00E94F20F0E94830E44DF81E592E069
:1005500060E372E04CEB51E022E331E09FD351DFE6
:10056000EECF80EAD6CE81E0D4CE8CEC91E00E9432
:10057000D90F9091E20094609093E200882311F0EB
:1005800080E201C081E8C5CE8CEC91E00C949F0E16
:100590008091DA019091DB01009729F00197909307
:1005A000DB018093DA0108954F925F926F927F9200
:1005B0008F929F92AF92BF92CF92DF92EF92FF9273
:1005C0000F931F93CF93DF93CDB7DEB72A970FB664
:1005D000F894DEBF0FBECDBF3B01790128011A821E
:1005E0001982442309F466C0423009F014C1909185
:1005F000F901DB018C919130B9F58230A9F5809138
:10060000F80190E0936060E0AE014F5F5F4F63D10F
:100610002091F70130E028173907E8F4F7019083BB
:1006200081834091F70150E0841B950B9283838373
:1006300029813A812E5F3F4F240F351FD701149631
:1006400080E090E0F901E80FF91FE491ED93019645
:100650008E319105B9F782E290E0D20111969C9318
:100660008E931092F9010AC0843051F479D4870135
:1006700060D588E090E0F2019183808381E0CCC076
:10068000863009F0C8C05CEBC52E51E0D52E87013D
:10069000D6016D917D918D919D916D01A801DED363
:1006A0000C5F1F4FBCECCB16B1E0DB0689F780E195
:1006B00090E0E1CFDB010C910730A1F4809138018B
:1006C00090913901009709F4A6C082E391E0C3D16B
:1006D000B701A0D38DE090E0F20191838083D30134
:1006E0000C936AC0033009F03FC0FE013396A0E0CE
:1006F000B1E088E00D9001928150E1F7CE010396C0
:10070000B7019E01255F3F4FDC01ED91FD91CD01C9
:10071000EE0FFF1FEF5AFD4F4181DB0111964C9305
:10072000119740814C936E5F7F4F8217930761F75B
:1007300080E3C82E82E0D82E8701085F1F4FF601A4
:1007400061917191819191916F01A80187D30C5FA3
:100750001F4FF0E4CF16F2E0DF0689F783E0D30104
:100760008C9388E190E087CF083009F454C00930B9
:1007700009F451C00A3009F44EC00B3009F44BC0E3
:100780000C3009F448C00D3009F445C00E3009F4AE
:1007900042C08091380190913901009781F082E345
:1007A00091E059D1B70136D38DE090E0D2018D931D
:1007B0009C9387E0F301808381E8ABDD5FCF80917C
:1007C0006902882341F18090410290904202A090FA
:1007D0004302B09044022091490230914A02409174
:1007E0004B0250914C0260914D0270914E028091EB
:1007F0004F029091500287019CD4A701485F5F4F40
:10080000C501B40101D31092690285E0D3018C9334
:100810008CE090E030CF80E02A960FB6F894DEBFEF
:100820000FBECDBFDF91CF911F910F91FF90EF9041
:10083000DF90CF90BF90AF909F908F907F906F9000
:100840005F904F9008950F931F93CF93DF93C9014B
:10085000413079F1423009F039C0623059F421E079
:100860002093F901FC0120812093F801818180937C
:10087000F7012CC0643019F485D4EBD327C066305F
:1008800099F4E9010CEB11E0CE0106D3DC01CB01B8
:10089000F80181939193A193B1938F012496F1E094
:1008A0000C3C1F0789F712C06F3F81F481EA31DDEC
:1008B00044DD683059F4F0D2DC01CB0180930C01A7
:1008C00090930D01A0930E01B0930F01DF91CF9192
:1008D0001F910F910895933089F0943028F491304E
:1008E00049F1923061F505C09132D1F0923239F57B
:1008F0001CC082E290E0E8EFF0E025C0813041F0DA
:10090000813018F08230D9F406C0E4EFF0E005C081
:10091000EAEDF0E002C0ECEAF0E0849190E013C070
:1009200089E090E0EAE0F1E00EC080E791E0ECE2DF
:10093000F1E009C082E190E0EAE1F1E004C080E08A
:1009400090E0E0E0F0E0DA011196FC93EE93089578
:10095000CF93DF93EC0143963CD4CE014D9639D42E
:1009600018821D861E861F86188ADF91CF910895F2
:100970000F931F93CF93DF93C0E0D0E007E210E026
:10098000C09FC001C19F900DD09F900D112486592A
:100990009D4FDEDF2196C430D10591F7DF91CF91D5
:1009A0001F910F9108958F929F92AF92CF92DF92F5
:1009B000EF92FF920F931F93CF93DF93EC018A8006
:1009C0009B808DE090E0889EF001899EF00D989EBE
:1009D000F00D1124EC0FFD1FDF0118960087119612
:1009E0001C93119712962C93129713963C9313977E
:1009F00014964C93149715965C93159716966C93D2
:100A0000169717967C931797C08AD18AE28AF38A41
:100A1000A48A28813981C4010196B9010E949F12DC
:100A20008A839B834E815F814F5F5F4F5F834E83DD
:100A30002417350720F48C839D833F832E83DF9119
:100A4000CF911F910F91FF90EF90DF90CF90AF90DB
:100A50009F908F900895CF93DF93FC01268137817B
:100A600021153105D9F0C481D581CE01019660816F
:100A700071810E949F129583848321503040378377
:100A800026832DE030E0C29FC001C39F900DD29F0E
:100A9000900D112408968E0F9F1F02C080E090E0F9
:100AA000DF91CF910895FC0121893289211531050B
:100AB00011F0439601C04D9640D4472F382F292F6F
:100AC000862F942FA32FB22FBC01CD0108952F9212
:100AD0003F924F925F926F927F928F929F92AF92CE
:100AE000BF92CF92DF92EF92FF920F931F93CF931B
:100AF000DF93CDB7DEB728970FB6F894DEBF0FBEF1
:100B0000CDBF3C011A012B0109831A832B833C833F
:100B1000CD82DE82EF82F886FC0185859685A785E9
:100B2000B0899A01AB01281B390B4A0B5B0BDA0128
:100B3000C9018D3231E0930730E0A30730E0B307FD
:100B4000C0F081E090E0218932892115310511F052
:100B500080E090E0F301928B818B25863686478674
:100B6000508A009719F0C3014D9602C0C301439605
:100B700030D3C301439649815A816B817C8138D33C
:100B8000C3014D9649815A816B817C8131D3C30168
:100B90008ADF162F072FF82EE92EA8019701852F3F
:100BA000942FA32FB22FBC01CD012D813E814F8107
:100BB00058850E941412F30190811816A4F4913004
:100BC00009F44BC081E08083CBD1F30125833683C8
:100BD0004783508761877287838794872182328217
:100BE000438254823AC09130C1F5F30181819281F0
:100BF000A381B481A2019101281B390B4A0B5B0B25
:100C00002E3231054105510530F1758166815781DC
:100C100040853185228593858485F50170836183C4
:100C2000528343833483258396838783F3018181B1
:100C30009281A381B481A2019101281B390B4A0B37
:100C40005B0BF501208731874287538781E090E075
:100C5000F40191838083F3011082A8019701852F0D
:100C6000902FA32FBE2DBC01CD0128960FB6F8946E
:100C7000DEBF0FBECDBFDF91CF911F910F91FF90CF
:100C8000EF90DF90CF90BF90AF909F908F907F902C
:100C90006F905F904F903F902F9008952F923F92CA
:100CA0004F925F926F927F928F929F92AF92BF927C
:100CB000CF92DF92EF92FF920F931F93CF93DF9328
:100CC000CDB7DEB7A5970FB6F894DEBF0FBECDBF88
:100CD00099A388A3162F072F3BA32AA34CA35DA398
:100CE00030D16C8F7D8F8E8F9F8FDE011396ECED50
:100CF000F1E088E04CA15DA101900D928150E1F7F7
:100D0000CE0103969B8F8A8F488F598F212E302ECC
:100D100066247724EA8DFB8D41905190FB8FEA8FFA
:100D2000F201EE0FFF1F88A199A1E80FF91F608162
:100D300071811A821982E88DF98D81909190A1902C
:100D4000B190F98FE88F87E290E0689E6001699E1C
:100D5000D00C789ED00C1124EAE6F2E0CE0EDF1E15
:100D600080E090E00E9486118B019C01C6014C8DB1
:100D70005D8D6E8D7F8D75016401ABE0AA2EB12C67
:100D8000AC0EBD1E4E010894811C911CA0DEDC013E
:100D9000CB01F10181939193A193B1931F018981BB
:100DA0009A81009781F00B851C852D853E854F85A6
:100DB000588969897A89CB88DC88ED88FE888AA180
:100DC0009BA1A42CF0DD0894611C711CF4E06F164B
:100DD000710409F09FCFA5960FB6F894DEBF0FBE41
:100DE000CDBFDF91CF911F910F91FF90EF90DF90DA
:100DF000CF90BF90AF909F908F907F906F905F90BB
:100E00004F903F902F900895FA01908381837283D1
:100E100063830895EF92FF920F931F93CF93DF9315
:100E2000EC017B01288139814A815B816C817D8164
:100E30008E819F8187017DD1688579858A859B8593
:100E4000A701485F5F4FE0DF8C85F7018487DF9162
:100E5000CF911F910F91FF90EF900895CF93DF9363
:100E600000D000D0CDB7DEB7DC01CB0189839A83F7
:100E7000AB83BC83DE011196FA0180E090E02D91F6
:100E80002193019684309105D1F70F900F900F9028
:100E90000F90DF91CF910895CF93DF9300D000D0D2
:100EA000CDB7DEB7FC01DE01119680E090E0219124
:100EB0002D93019684309105D1F759814A813B8168
:100EC0002C81852F942FA32FB22FBC01CD010F9021
:100ED0000F900F900F90DF91CF91089584B58260AD
:100EE00084BDEEE6F0E080818260808389EF87BD7B
:100EF00085B5836085BD08951F920F920FB60F923E
:100F000011248F939F93AF93BF938091240290916C
:100F10002502A0912602B09127020196A11DB11DC4
:100F20008093240290932502A0932602B093270277
:100F3000BF91AF919F918F910F900FBE0F901F9017
:100F400018950F931F930091240210912502209170
:100F5000260230912702B801C9011F910F9108950F
:100F6000DF92EF92FF920F931F93CF93DF93009145
:100F7000240210912502209126023091270240E0A0
:100F800050E0BA01F0901C02B0911D02A0911E0227
:100F9000D0901F028091200290912102E0902202C5
:100FA000E0912302F00ED1E0F01608F0D0E0B10F8E
:100FB000C1E0B11708F0C0E0DB0FF1E0DB1708F08B
:100FC000F0E0CF2BA20FB1E0A21708F0B0E0CA0FFB
:100FD000F1E0CA1708F0F0E0BF2BF32FFD0DA1E000
:100FE000F31708F0A0E0BF0FDD24D394BF1708F07B
:100FF000DD24AD29F1E0841708F0F0E0A80FDD242E
:10100000D394A81708F0DD24FD2981E0951708F096
:1010100080E0F90FDD24D394F91708F0DD248D2941
:1010200091E0E61608F090E08E0D21E08E1508F0B4
:1010300020E0922B2F2D3D2F4C2F5B2F6A2F7F2FDF
:101040009E0FDF91CF911F910F91FF90EF90DF9056
:101050000895DF92EF92FF920F931F93CF93DF9348
:10106000F901DA01EB01009124021091250220918F
:10107000260230912702DE2ED01AEE24E394ED15DD
:1010800008F0EE24EF2FE11BFF24F394FE1708F085
:10109000FF24FE2FFE19EF2EF1E0EE1508F0F0E030
:1010A000FF2AFA2FF21BE1E0AF1708F0E0E0AF2FC4
:1010B000AF19FF24F394FA1708F0FF24EF29FB2F50
:1010C000F31B3F2F21E0BF1708F020E0532F5E1BDA
:1010D00041E0351708F040E0242B4C2F421B21E063
:1010E000C41708F020E03D2F321B21E0D31708F091
:1010F00020E0682F621B262F61E0821708F060E075
:10110000961BD0921C02E0921D02A0931E025093E7
:101110001F024093200230932102209322029093D9
:101120002302DF91CF911F910F91FF90EF90DF90FD
:1011300008950F931F93CF93DF93CDB7DEB7289712
:101140000FB6F894DEBF0FBECDBF29833A834B8321
:101150005C836D837E838F839887DE011996F80107
:10116000CE0101962E912193A817B907D9F7289699
:101170000FB6F894DEBF0FBECDBFDF91CF911F91A8
:101180000F910895CF93DF93CDB7DEB728970FB6B1
:10119000F894DEBF0FBECDBFDC011896FE0131967C
:1011A00080E090E02E912193019688309105D1F74F
:1011B00029813A814B815C816D817E818F81988507
:1011C00028960FB6F894DEBF0FBECDBFDF91CF914A
:1011D0000895FC0140E050E0BA01408351836283EE
:1011E00073834483558366837783118610860895BD
:1011F0002F923F924F925F926F927F928F929F9227
:10120000AF92BF92CF92DF92EF92FF920F931F9314
:10121000CF93DF9300D0CDB7DEB77C014A015B01ED
:10122000DC0118960D911C9119970F5F1F4F1996AD
:101230001C930E9318970130110569F4FC0140834B
:1012400051836283738380E090E0DC018483958323
:10125000A683B7835DC0DC014D905D906D907C905E
:10126000CB01BA01A301920184D7362E272E8983A0
:101270009A83B801882777FD8095982F0E9488115E
:101280009B01AC01F10179816A818F2F9E2FA72FDD
:10129000B62FBC01CD01D2D79B01AC01C301B20175
:1012A00069D7462E772ED82EC92EC501B401A601C6
:1012B000042D172D252F342FA90198015AD79B01F2
:1012C000AC01F10179816A818F2F9E2FA72FB62F54
:1012D000BC01CD010E941812F7012481358146819D
:1012E000578148D7262FB72F442D572D6D2D7C2D94
:1012F000F7014083518362837383422F5B2F682FF2
:10130000792FD70114964D935D936D937C93179726
:101310000F900F90DF91CF911F910F91FF90EF9061
:10132000DF90CF90BF90AF909F908F907F906F9005
:101330005F904F903F902F900895CF93DF93EC01F3
:1013400068857985623071057CF06150704088272E
:1013500077FD8095982FDCD79B01AC016C817D8156
:101360008E819F816BD704C060E070E080E090E0E8
:10137000382F292F862F972FA32FB22FBC01CD01F5
:10138000DF91CF910895AF92BF92CF92DF92EF920B
:10139000FF921F93CF93DF93EC017B016A01F0D1A1
:1013A000182F8823A9F5C114D10439F0F601208142
:1013B0003181E21AF30AC20FD31FAA24BB2423C02F
:1013C0008091E80085FD16C08091E8008E778093BB
:1013D000E80099D4C114D10449F0F60180819181CB
:1013E0008A0D9B1D9183808315E012C0C9D188238B
:1013F00051F00DC089918093F1000894E108F10843
:101400000894A11CB11CE114F104D1F601C0182FFD
:10141000812FDF91CF911F91FF90EF90DF90CF90C0
:10142000BF90AF9008954091110350911203461759
:10143000570720F4BA01FC0140E03DC06115710579
:10144000D1F74091E8004E774093E800F4CF8091C7
:101450000A03882309F447C0853009F446C0809107
:10146000E80083FD3EC08091E80082FD34C0809199
:10147000E80080FF20C09091F3008091F200392FA6
:1014800020E090E0822B932B06C041914093F10025
:101490006150704001966115710519F08830910511
:1014A000A0F341E08830910509F040E08091E80028
:1014B0008E778093E8006115710549F6442339F66B
:1014C0000AC080910A03882371F0853071F0809101
:1014D000E80083FD0CC08091E80082FFF2CF80E03D
:1014E000089581E0089582E0089583E0089581E001
:1014F00008956115710529F44091E8004B774093F8
:10150000E800582F492F2BC080910A038823D9F176
:101510008530A9F18091E80083FD33C08091E80017
:1015200082FFF2CFE52FF42F08C08091F100819364
:101530005E2F4F2F6150704069F05E2F4F2F9091BA
:10154000F3008091F200392F20E090E0822B932B62
:10155000009759F78091E8008B778093E800611538
:10156000710591F606C080910A03882361F08530E9
:1015700061F08091E80080FFF6CF80E0089583E07D
:10158000089581E0089582E0089583E008954091F0
:101590001103509112034617570720F4BA01FC01BA
:1015A00040E03EC061157105D1F74091E8004E77EB
:1015B0004093E800F4CF80910A03882309F448C0DF
:1015C000853009F447C08091E80083FD3FC08091D9
:1015D000E80082FD35C08091E80080FF21C0909135
:1015E000F3008091F200392F20E090E0822B932BC2
:1015F00007C044914093F1003196615070400196CC
:101600006115710519F08830910598F341E0883033
:10161000910509F040E08091E8008E778093E80022
:101620006115710541F6442331F60AC080910A0321
:10163000882371F0853071F08091E80083FD0CC043
:101640008091E80082FFF2CF80E0089581E0089564
:1016500082E0089583E0089581E00895982F2AC0DC
:101660009093E900981739F07091EC002091ED000B
:101670005091F00003C0242F762F50E021FF19C0B5
:101680003091EB003E7F3093EB003091ED003D7FD9
:101690003093ED003091EB0031603093EB007093AC
:1016A000EC002093ED005093F0002091EE0027FF16
:1016B00008C09F5F9730A0F28F708093E90081E0AF
:1016C000089580E008950F931F93CF93DF93162F13
:1016D000EC0100E02AC09881992329F16B81E9810E
:1016E000FA812C81892F8F70873018F56295660FEB
:1016F000660F607C991F9927991F692B223010F083
:1017000096E001C092E028E030E040E003C04F5F87
:10171000220F331F2E173F07D0F34295407F492BEE
:101720009DDF882331F00F5F25960117A1F681E038
:1017300001C080E0DF91CF911F910F9108958091BA
:101740000B0387FF13C004C080910A038823B9F0FC
:101750008091E80082FFF8CF8091E8008B7780933A
:10176000E800089580910A03882349F08091E800F9
:1017700080FFF8CF8091E8008E778093E80008958D
:101780008091E4009091E50045E601C0C9012091F7
:10179000EC0020FF23C02091E80020FD15C020911F
:1017A0000A03222399F0253099F02091EB0025FDC2
:1017B00011C02091E4003091E5002817390739F372
:1017C000415021F784E0089580E0089582E0089573
:1017D00083E0089581E0089580E008952091E80075
:1017E00022FFDDCFF9CF0F931F93CF93DF934BD021
:1017F00052D0C8EDD0E088818F7788838881806857
:10180000888388818F7D888319BC10920A03109287
:101810000603109208031092070300EE10E0F8018F
:1018200080818B7F808388818160888380E060E015
:1018300042E014DFE1EEF0E080818E7F8083E2EE13
:10184000F0E0808181608083808188608083F801FE
:1018500080818E7F8083888180618883DF91CF91B2
:101860001F910F910895E8EDF0E080818F7E8083D5
:10187000E7EDF0E080818160808384E082BF81E0D9
:1018800080930903B0CFE8EDF0E080818E7F808304
:101890001092E20008951092DA001092E10008958B
:1018A0001F920F920FB60F9211242F933F934F93D5
:1018B0005F936F937F938F939F93AF93BF93EF93B8
:1018C000FF938091E10082FF0BC08091E20082FFD4
:1018D00007C08091E1008B7F8093E1000E94C802E5
:1018E0008091DA0080FF1FC08091D80080FF1BC06C
:1018F0008091DA008E7F8093DA008091D90080FF9A
:101900000DC080E189BD82E189BD09B400FEFDCF33
:1019100081E080930A030E94B10205C019BC1092B5
:101920000A030E94B3028091E10080FF18C08091F9
:10193000E20080FF14C08091E2008E7F8093E2007D
:101940008091E20080618093E2008091D800806203
:101950008093D80019BC85E080930A03D3D180918D
:10196000E10084FF2FC08091E20084FF2BC080E162
:1019700089BD82E189BD09B400FEFDCF8091D80008
:101980008F7D8093D8008091E1008F7E8093E1006D
:101990008091E2008F7E8093E2008091E20081607E
:1019A0008093E20080910603882311F084E007C051
:1019B0008091E30087FF02C083E001C081E0809353
:1019C0000A03A0D18091E10083FF22C08091E20050
:1019D00083FF1EC08091E100877F8093E10082E059
:1019E00080930A03109206038091E1008E7F80931A
:1019F000E1008091E2008E7F8093E2008091E2001E
:101A000080618093E20080E060E042E027DE7AD1EE
:101A1000FF91EF91BF91AF919F918F917F916F91C6
:101A20005F914F913F912F910F900FBE0F901F909C
:101A300018951F93CF93DF93CDB7DEB7AC970FB652
:101A4000F894DEBF0FBECDBF80E0EBE0F3E09091F5
:101A5000F10091938F5F8830D1F70E94C40280918A
:101A6000E80083FF37C180910B0320910C032530E0
:101A700009F484C0263040F42130A1F1213070F007
:101A8000233009F027C12EC0283009F4F4C02930D2
:101A900009F403C1263009F01DC193C0803821F03C
:101AA000823809F017C108C080910703909108039C
:101AB000992371F082600CC080910F038F70809326
:101AC000E9009091EB0081E095FF80E01092E90041
:101AD0009091E800977F9093E8008093F100109236
:101AE000F100D4C0882319F0823009F0F3C090E0EF
:101AF0008F719070009729F08230910509F0EAC04B
:101B00000BC080910D03813009F0E4C0233009F04F
:101B100080E0809308032CC080910D03882341F559
:101B200020910F032F7009F4D5C02093E900809114
:101B3000EB0080FF1DC080910C03833021F4809165
:101B4000EB00806213C08091EB0080618093EB001A
:101B500081E090E002C0880F991F2A95E2F78093F8
:101B6000EA001092EA008091EB0088608093EB001D
:101B70001092E9008091E800877F8BC0882309F0EC
:101B8000A9C010910D031F778091E3008078812B0D
:101B90008093E3008091E800877F8093E800CFDDA9
:101BA0008091E80080FFFCCF8091E3008068809303
:101BB000E300112311F083E001C082E080930A0367
:101BC00089C08058823008F085C080910D039091C3
:101BD0000E0323E08C3D9207A9F583E08C838AE213
:101BE0008B835FB7F894DE01139680E090E04EE0BF
:101BF00061E2E42FF0E060935700E49180FF03C0BE
:101C0000E295EF704F5FEF702E2F30E0EA3018F062
:101C1000295C3F4F02C0205D3F4F13963C932E93AB
:101C20001297019612968431910519F75FBF809142
:101C3000E800877F8093E800CE0103966AE270E0B7
:101C4000F2DB13C060910F03AE014F5F5F4F0E9444
:101C50006B04BC01009709F43DC08091E800877FC8
:101C60008093E80089819A8192DC8091E8008B77EB
:101C70008093E8002FC0803869F58091E800877F65
:101C80008093E800809106038093F1008091E80042
:101C90008E778093E80053DD1DC08823D9F490919E
:101CA0000D039230B8F48091E800877F8093E800BC
:101CB0009093060344DD80910603882321F48091EC
:101CC000E30087FF02C084E001C081E080930A0343
:101CD0000E94B5028091E80083FF0AC08091E8006D
:101CE000877F8093E8008091EB0080628093EB0017
:101CF000AC960FB6F894DEBF0FBECDBFDF91CF918B
:101D00001F9108950895CF9380910A038823A9F025
:101D10008091E9008F709091EC0090FF02C0C0E8C4
:101D200001C0C0E0C82B1092E9008091E80083FF59
:101D300001C07FDECF70C093E900CF9108956F920C
:101D40007F928F929F92AF92BF92CF92DF92EF924B
:101D5000FF920F931F93CF93DF9300D00F92CDB7D5
:101D6000DEB77C016DB67EB68091E80083FF0AC1C4
:101D7000F701808190E020910F0330911003281724
:101D8000390709F0FFC080910C03833009F4A1C02A
:101D9000843030F4813071F0823009F0F3C0D6C065
:101DA0008A3009F4BBC08B3009F4A4C0893009F033
:101DB000E9C051C080910B03813A09F0E3C09DB6A0
:101DC0008EB61B821A8280910D0300910E038983C7
:101DD000F70140858DB79EB7841B91090FB6F89423
:101DE0009EBF0FBE8DBFCDB6DEB60894C11CD11C00
:101DF000BC2CAD2CC60160E070E050E0CAD3402F8F
:101E00004150C701BE016F5F7F4F96018E010E5F8B
:101E10001F4F0E94D402F70186819781009721F01D
:101E20004085B60150E0ACD31092E9008091E80003
:101E3000877F8093E8008981882311F08093F100E7
:101E40006A817B818B2D9A2DEEDA8091E8008B7769
:101E50008093E8003BC080910B03813209F092C06F
:101E60009DB68EB60091110310911203C0900D0320
:101E7000D0900E038DB79EB7801B910B0FB6F894D0
:101E80009EBF0FBE8DBFADB6BEB60894A11CB11CDF
:101E90008091E800877F8093E800C501B80129DBC5
:101EA0008091E8008E778093E80081E090E0CC207C
:101EB00011F480E090E04D2D41509501280F391F1D
:101EC000081B190BC7016C2D0E9423049DBE8EBEFA
:101ED00059C080910B03813A09F054C08091E80009
:101EE000877F8093E8008091E80080FFFCCFF701B6
:101EF000818540C080910B03813209F043C08091FD
:101F0000E800877F8093E8001ADC90910D0381E060
:101F1000992309F480E0F701818734C080910B0395
:101F2000813281F58091E800877F8093E80007DCAB
:101F300080910D0390910E03807036E09695879501
:101F40003A95E1F7F701958784871CC080910B03D0
:101F5000813AC1F48091E800877F8093E800809106
:101F6000E80080FFFCCFF7018485958596958795DD
:101F7000969587958093F1008091E8008E77809305
:101F8000E800DDDB0FB6F8947EBE0FBE6DBE0F908D
:101F90000F900F90DF91CF911F910F91FF90EF90D5
:101FA000DF90CF90BF90AF909F908F907F906F9079
:101FB0000895CF93DF93FC010996DC0187E0ED01E2
:101FC00019928A95E9F781E0818784EF91E09587FE
:101FD000848783E08483CF01019661E074DBDF9125
:101FE000CF9108954F925F926F927F928F929F92BE
:101FF000AF92BF92CF92DF92EF92FF920F931F9317
:10200000CF93DF9300D00F92CDB7DEB77C014DB6F2
:102010005EB680910A03843009F092C08091E4009A
:102020009091E500F701228533852817390709F4D7
:1020300087C081818F708093E9008091E80085FFDF
:102040007FC07DB66EB640858DB79EB7841B910963
:102050000FB6F8949EBF0FBE8DBF0DB71EB70F5FB2
:102060001F4F19821B821A82B02EA12EC80160E078
:1020700070E050E08ED2C701BE016F5F7F4F40E03D
:1020800098018E010E5F1F4F0E94D402182FF70196
:1020900084859585009759F081E090E02685378505
:1020A0002115310511F080E090E04C0102C0882438
:1020B0009924F701C680D780C114D10491F04A81D8
:1020C0005B818B2D9A2DB6014ED201E0009709F469
:1020D00000E0F7014085C6016B2D7A2D50E050D20B
:1020E00001C000E08A819B81009709F1112329F446
:1020F000002319F481149104D1F0F70184859585AA
:102100009787868781818F708093E90089818823F2
:1021100011F08093F1006A817B818B2D9A2D40E034
:1021200050E031D98091E8008E778093E80080916B
:10213000E4009091E500F701938782877DBE6EBE33
:102140000FB6F8945EBE0FBE4DBE0F900F900F906D
:10215000DF91CF911F910F91FF90EF90DF90CF9083
:10216000BF90AF909F908F907F906F905F904F90B7
:1021700008955058BB27AA270ED01CC10DD130F0AE
:1021800012D120F031F49F3F11F41EF402C10EF47D
:10219000E095E7FBF8C0E92F1ED180F3BA1762077C
:1021A00073078407950718F071F49EF536C10EF495
:1021B000E0950B2EBA2FA02D0B01B90190010C0157
:1021C000CA01A0011124FF27591B99F0593F50F46F
:1021D000503E68F11A16F040A22F232F342F4427C7
:1021E000585FF3CF469537952795A795F0405395BF
:1021F000C9F77EF41F16BA0B620B730B840BBAF08F
:102200009150A1F0FF0FBB1F661F771F881FC2F7F9
:102210000EC0BA0F621F731F841F48F4879577950D
:102220006795B795F7959E3F08F0B3CF9395880FC4
:1022300008F09927EE0F9795879508950CD0BAC0AE
:10224000B2D040F0A9D030F021F45F3F19F09BC02C
:102250005111E4C09EC0BFD098F39923C9F3552310
:10226000B1F3951B550BBB27AA2762177307840789
:1022700038F09F5F5F4F220F331F441FAA1FA9F33F
:1022800033D00E2E3AF0E0E830D091505040E69531
:10229000001CCAF729D0FE2F27D0660F771F881F92
:1022A000BB1F261737074807AB07B0E809F0BB0B81
:1022B000802DBF01FF2793585F4F2AF09E3F5105A5
:1022C00068F061C0ABC05F3FECF3983EDCF38695ED
:1022D00077956795B795F7959F5FC9F7880F911D1B
:1022E0009695879597F90895E1E0660F771F881F07
:1022F000BB1F621773078407BA0720F0621B730BBA
:10230000840BBA0BEE1F88F7E0950895E89409C096
:1023100097FB3EF490958095709561957F4F8F4F18
:102320009F4F9923A9F0F92F96E9BB279395F6952E
:10233000879577956795B795F111F8CFFAF4BB0FAC
:1023400011F460FF1BC06F5F7F4F8F4F9F4F16C010
:10235000882311F096E911C0772321F09EE8872F9A
:10236000762F05C0662371F096E8862F70E060E056
:102370002AF09A95660F771F881FDAF7880F9695CF
:10238000879597F9089597F99F6780E870E060E076
:1023900008959FEF80EC089500240A9416161706FE
:1023A00018060906089500240A9412161306140646
:1023B00005060895092E0394000C11F4882352F0A9
:1023C000BB0F40F4BF2B11F460FF04C06F5F7F4F61
:1023D0008F4F9F4F089557FD9058440F551F59F048
:1023E0005F3F71F04795880F97FB991F61F09F3F02
:1023F00079F087950895121613061406551FF2CF2B
:102400004695F1DF08C0161617061806991FF1CF7A
:1024100086957105610508940895E894BB276627A1
:102420007727CB0197F9089566D008F48FEF0895C8
:102430000BD0C0CFB1DF28F0B6DF18F0952309F03C
:10244000A2CFA7CF1124EACFC6DFA0F3959FD1F387
:10245000950F50E0551F629FF001729FBB27F00D52
:10246000B11D639FAA27F00DB11DAA1F649F6627A7
:10247000B00DA11D661F829F2227B00DA11D621FF6
:10248000739FB00DA11D621F839FA00D611D221FB0
:10249000749F3327A00D611D231F849F600D211D94
:1024A000822F762F6A2F11249F5750408AF0E1F037
:1024B00088234AF0EE0FFF1FBB1F661F771F881F80
:1024C00091505040A9F79E3F510570F05CCFA6CFC8
:1024D0005F3FECF3983EDCF3869577956795B7956B
:1024E000F795E7959F5FC1F7FE2B880F911D969595
:1024F000879597F90895990F0008550FAA0BE0E802
:10250000FEEF16161706E807F907C0F012161306B5
:10251000E407F50798F0621B730B840B950B39F4F5
:102520000A2661F0232B242B252B21F408950A265B
:1025300009F4A140A6958FEF811D811D0895AA1B66
:10254000BB1B51E107C0AA1FBB1FA617B70710F09E
:10255000A61BB70B881F991F5A95A9F780959095D0
:10256000BC01CD010895FB01DC0104C08D910190F7
:10257000801921F441505040C8F7881B990B0895E9
:10258000FB01DC0102C001900D9241505040D8F790
:102590000895DC0101C06D9341505040E0F708956B
:0425A000F894FFCFDD
:1025A4000100040006000700000028420000284241
:1025B400000028420000284200002842000028426F
:1025C40000002842080009000A000B000C000D005E
:1025D4000E000A00000000000000000000000000DF
:1025E40000000000000000000000000000000000E7
:1025F40000000000000000000000000000000000D7
:1026040000000000000000000000000000000000C6
:1026140000000000000000000000000000000000B6
:1026240000000000000000000000000000000000A6
:102634000000000000000000000000000000000096
:102644000000000000000000000000000000000086
:1026540000000000000000000000000000004843EB
:10266400000048430000484300004843008108003C
:102674000001FA0122000000000000000100040033
:1026840006000700A120000000000200A1010000D4
:042694000000000042
:00000001FF
