:100000003AC2000072C2000070C200006EC200005E
:100010006CC200006AC2000068C2000066C2000034
:1000200064C2000062C200000C94490B5EC2000072
:100030005CC200005AC2000058C2000056C2000054
:1000400054C2000052C2000050C200004EC2000064
:100050004CC20000B6C6000048C2000046C2000004
:1000600044C2000042C2000040C200003EC2000084
:100070003CC200003AC2000038C2000036C2000094
:1000800034C2000032C2000030C200002EC20000A4
:100090002CC200002AC2000028C2000026C20000B4
:1000A00024C2000022C2000020C200000E41524DB6
:1000B0005F4C5F4553434841525F35000E41524DFE
:1000C0005F4C5F4553434841525F34000E41524DEF
:1000D0005F4C5F4553434841525F33000E41524DE0
:1000E0005F4C5F4553434841525F32000E41524DD1
:1000F0005F4C5F4553434841525F3100226F766544
:1001000072707265737375726520696E206C6566B6
:10011000742062726F6E6368757320646F776E000F
:10012000236F766572707265737375726520696E80
:10013000206C6566742062726F6E636875732073DD
:100140007461727400226F76657270726573737574
:10015000726520696E2072696768742062726F6EC2
:100160006368757320656E6400246F7665727072C3
:1001700065737375726520696E2072696768742093
:1001800062726F6E63687573207374617274001BA2
:100190006F766572707265737375726520696E2013
:1001A00073746F6D61636820656E64001D6F7665A2
:1001B00072707265737375726520696E2073746FE7
:1001C0006D616368207374617274007D5245535091
:1001D000495241544F52595F524154453D38662C63
:1001E000544944414C5F564F4C554D453D39662C62
:1001F0004C554E475F564F4C554D455F544F5441FB
:100200004C3D3130662C4C554E475F564F4C554D4A
:10021000455F4C3D3131662C4C554E475F564F4C37
:10022000554D455F523D3132662C48454152545F31
:10023000524154453D3133662C4152543D31346670
:100240002C4143543D3138732C002C034C00550095
:10025000460041002000470065006E006500720006
:100260006900630020004800490044002000440069
:1002700065006D006F000000180344006500610018
:100280006E002000430061006D0065007200610097
:1002900000000403090409022200010100C0320920
:1002A000040000010300000009211101000122AC3B
:1002B0000107058103080005120110010000000874
:1002C000EB0340200100010200010600FF0901A12B
:1002D0000185010902150026FF00750895FFB1028E
:1002E00085020905150026FF0075089522B10185D4
:1002F000030905150026FF0075089518810085047F
:100300000906150026FF0075089508B10285050944
:1003100007150026FF007508950C8102850609085F
:10032000150026FF0075089510B10285070909150B
:100330000026FF007508950D810285FF090A15004A
:1003400026FF0075089508B10285FE090B150026E9
:10035000FF0075089508B1028508090C150026FFF5
:10036000007508950481028508090C150026FF0018
:100370007508950491028509090C150026FF007582
:1003800008950481028509090C150026FF007508EF
:1003900095049102850A090C150026FF0075089541
:1003A000048102850A090C150026FF0075089504D2
:1003B0009102850B090C150026FF00750895048134
:1003C00002850B090C150026FF00750895049102A3
:1003D000850C090C150026FF00750895048102851F
:1003E0000C090C150026FF00750895049102850D77
:1003F000090C150026FF00750895048102850D097A
:100400000C150026FF00750895049102850E090C55
:10041000150026FF00750895048102850E090C154C
:100420000026FF00750895049102850F090015004C
:1004300026FF007508950181028510090D1500261B
:10044000FF007508954081028511090D150026FFF2
:10045000007508950191028512090E150026FF000E
:100460007508958081028512090E150026FF00751A
:100470000895809102C011241FBECFEFDAE0DEBFE5
:10048000CDBF04B603FE1BC0809174039091750329
:10049000A0917603B09177038A3C2CEA920722E47C
:1004A000A2072CEDB20759F4109274031092750351
:1004B0001092760310927703E0E0F8E3099511E0DB
:1004C000A0E0B1E0E8ECFFE102C005900D92AA3F88
:1004D000B107D9F713E0AAEFB1E001C01D92A4372C
:1004E000B107E1F7ABD00C94E20F8ACD25B1982F7C
:1004F000917090952160922395B92BB1982F9072AD
:100500009095206292239BB998B180789F77892B30
:1005100088B908958091E00081608093E000F894AC
:100520008FEF9DE3A9E481509040A040E1F700C027
:1005300000008AEC9CEAA2E4BCED809374039093E3
:100540007503A0937603B09377032DE088E190E0E4
:100550000FB6F894A895809360000FBE20936000BA
:10056000FFCF982F977083FF04C080917B0080623B
:1005700003C080917B008F7D80937B0080917C0005
:10058000887F892B80937C0080917A00806480939F
:100590007A0080917A0086FDFCCF8091780090915E
:1005A0007900392F20E090E0822B932B08950F9350
:1005B0001F93CF93DF930EEC12E0C0E0D0E0CE01AA
:1005C000D0DFF801819391938F012196CC30D10532
:1005D000B1F7DF91CF911F910F91089584B7877F75
:1005E00084BF88E10FB6F894809360001092600099
:1005F0000FBEEAE7F0E087E0808380818068808337
:1006000080E480937C0090E080E80FB6F8948093BB
:100610006100909361000FBE808180648083769A30
:1006200084B18E6084B987B1806C87B9209A289A8A
:10063000559A5D9A3F9A47980C942C0BCFDFB3D311
:1006400081E054DF789484D58EEC91E00E94EA0E2C
:100650000E947B0DACDF8EEC92E03CD5F5CF80EABA
:1006600045CF81E043CF8EEC91E00E94D10E909176
:10067000E20094609093E200882311F080E201C0D0
:1006800081E834CF8EEC91E00C94970D8091DC01E1
:100690009091DD01009729F001979093DD018093FF
:1006A000DC0108954F925F926F927F928F929F929A
:1006B000AF92BF92CF92DF92EF92FF920F931F9370
:1006C000CF93DF93CDB7DEB72A970FB6F894DEBF8E
:1006D0000FBECDBF3B01790128011A821982442344
:1006E00009F47DC0423009F01EC29091FF01DB0188
:1006F0008C919130B9F58230A9F58091FE0190E09E
:10070000936060E0AE014F5F5F4F7ED22091FD01AC
:1007100030E028173907E8F4F7019083818340918E
:10072000FD0150E0841B950B9283838329813A81DC
:100730002E5F3F4F240F351FD701149680E090E0C5
:10074000F901E80FF91FE491ED9301968E319105BF
:10075000B9F782E290E0D20111969C938E931092A9
:10076000FF010AC0843051F451D3870138D488E0A6
:1007700090E0F2019183808381E0D6C18630B9F4A4
:100780005EEBC52E51E0D52E8701D6016D917D918E
:100790008D919D916D01A801C6D20C5F1F4FBEECDB
:1007A000CB16B1E0DB0689F780E190E0E2CF813043
:1007B00009F0B9C1D7018DE78D9380E090E00196F3
:1007C000FC01E553FE4FE491ED938D379105B9F7A8
:1007D0008FEF90E0D20111969C938E93CDCFFB01C9
:1007E00000810730A9F480913A0190913B01009774
:1007F00009F499C184E391E044D2B70170D28DE04D
:1008000090E0D20111969C938E93F30100835CC11A
:10081000033009F03FC0FE013396A0E0B1E088E06C
:100820000D9001928150E1F7CE010396B7019E0130
:10083000255F3F4FDC01ED91FD91CD01EE0FFF1FD4
:10084000E253FD4F4181DB0111964C93119740819A
:100850004C936E5F7F4F8217930761F786E9C82E2E
:1008600082E0D82E8701085F1F4FF60161917191D8
:10087000819191916F01A80156D20C5F1F4FF6EA4A
:10088000CF16F2E0DF0689F783E0D3018C9388E18D
:1008900090E06FCF083009F446C1093009F443C134
:1008A0000A3009F440C10B3009F43DC10C3009F4A1
:1008B0003AC10D3009F437C10E3009F434C10023B8
:1008C00009F031C18091A8028823B1F0E091E801DC
:1008D000F091E901D90180E090E021912D930196FA
:1008E00080349105D1F720E1D3012C93F20191835B
:1008F00080831092A80240CF809195028823C9F08E
:10090000813029F44AE651E024E230E004C046E4B4
:1009100051E022E230E0D7012D9380E090E0FA012F
:10092000E80FF91FE491ED93019682179307BCF34A
:100930001CC08091A902882319F1813029F441E279
:1009400051E023E230E004C04DEF50E022E230E01D
:10095000D7012D9380E090E0FA01E80FF91FE491B0
:10096000ED93019682179307BCF382E1D3018C9338
:1009700080E890E0F201918380831092A602FCCE81
:100980008091A7028130C9F4D901119680E090E0EE
:100990000196FC01E451FF4FE491ED938E309105F7
:1009A000B9F782E1D3018C9380E890E0F201918362
:1009B000808382E08093A702DFCE8091C8028130DD
:1009C000C9F4D901119680E090E00196FC01E4524F
:1009D000FF4FE491ED938E309105B9F782E1D30199
:1009E0008C9380E890E0F2019183808382E0809391
:1009F000C802C2CE8091BB028130C9F4D9011196E0
:100A000080E090E00196FC01E453FF4FE491ED9308
:100A10008E309105B9F782E1D3018C9380E890E0A4
:100A2000F2019183808382E08093BB02A5CE809106
:100A30008C028130C9F4D901119680E090E00196D2
:100A4000FC01E454FF4FE491ED938E309105B9F72A
:100A500082E1D3018C9380E890E0F201918380835E
:100A600082E080938C0288CE8091AF028130C9F4FD
:100A7000D901119680E090E00196FC01E455FF4F0A
:100A8000E491ED938E309105B9F782E1D3018C9317
:100A900080E890E0F2019183808382E08093AF024E
:100AA0006BCE80913A0190913B01009781F084E3F5
:100AB00091E0E7D0B70113D18DE090E0D2018D93A2
:100AC0009C9387E0F301808381E810DD55CE80910F
:100AD000E602882341F18090B0029090B102A0908C
:100AE000B202B090B3022091C0023091C102409195
:100AF000C2025091C3026091C4027091C5028091FC
:100B0000C6029091C70287016AD2A701485F5F4F72
:100B1000C501B401DED01092E60285E0D3018C93CA
:100B20008CE090E026CE80E02A960FB6F894DEBFE7
:100B30000FBECDBFDF91CF911F910F91FF90EF902E
:100B4000DF90CF90BF90AF909F908F907F906F90ED
:100B50005F904F9008950F931F93CF93DF93C90138
:100B6000413079F1423009F04AC0623059F421E055
:100B70002093FF01FC0120812093FE01818180935D
:100B8000FD013DC0643019F453D2B9D138C066308C
:100B900099F4E9010EEB11E0CE01E3D0DC01CB01C9
:100BA000F80181939193A193B1938F012496F1E081
:100BB0000E3C1F0789F723C06F3F09F581EA96DCD9
:100BC000A9DC683061F4CDD0DC01CB0180930E014B
:100BD00090930F01A0931001B093110110C06930E0
:100BE00071F06A3061F06B3051F06C3041F06D3073
:100BF00031F06E3021F0613111F441D255D2DF91E4
:100C0000CF911F910F910895933089F0943028F47B
:100C1000913049F1923061F505C09132D1F09232B4
:100C200039F51CC082E290E0E6E9F2E025C08130AF
:100C300041F0813018F08230D9F406C0E2E9F2E0E8
:100C400005C0E8E7F2E002C0EAE4F2E0849190E057
:100C500013C089E090E0E8EAF2E00EC08CEA91E08F
:100C6000EAECF2E009C082E190E0E8EBF2E004C0D7
:100C700080E090E0E0E0F0E0DA011196FC93EE9382
:100C80000895CF93DF93FC0126813781211531052B
:100C9000D9F0C481D581CE010196608171810E9415
:100CA000B10F9583848321503040378326832DE014
:100CB00030E0C29FC001C39F900DD29F900D1124C0
:100CC00008968E0F9F1F02C080E090E0DF91CF91C9
:100CD0000895FA0190838183728363830895EF926C
:100CE000FF920F931F93CF93DF93EC017B01288139
:100CF00039814A815B816C817D818E819F818701F1
:100D00006ED1688579858A859B85A701485F5F4F8D
:100D1000E0DF8C85F7018487DF91CF911F910F91E0
:100D2000FF90EF900895CF93DF9300D000D0CDB720
:100D3000DEB7DC01CB0189839A83AB83BC83DE0100
:100D40001196FA0180E090E02D9121930196843074
:100D50009105D1F70F900F900F900F90DF91CF91E9
:100D60000895CF93DF9300D000D0CDB7DEB7FC015C
:100D7000DE01119680E090E021912D930196843060
:100D80009105D1F759814A813B812C81852F942F80
:100D9000A32FB22FBC01CD010F900F900F900F9099
:100DA000DF91CF91089584B5826084BDEEE6F0E0D6
:100DB00080818260808389EF87BD85B5836085BD32
:100DC00008951F920F920FB60F9211248F939F9345
:100DD000AF93BF938091880290918902A0918A027B
:100DE000B0918B020196A11DB11D80938802909352
:100DF0008902A0938A02B0938B02BF91AF919F9119
:100E00008F910F900FBE0F901F901895DF92EF9269
:100E1000FF920F931F93CF93DF930091880210915D
:100E2000890220918A0230918B0240E050E0BA01A1
:100E3000F0908002B0918102A0918202D090830252
:100E40008091840290918502E0908602E091870271
:100E5000F00ED1E0F01608F0D0E0B10FC1E0B1170C
:100E600008F0C0E0DB0FF1E0DB1708F0F0E0CF2B7B
:100E7000A20FB1E0A21708F0B0E0CA0FF1E0CA1764
:100E800008F0F0E0BF2BF32FFD0DA1E0F31708F001
:100E9000A0E0BF0FDD24D394BF1708F0DD24AD29F7
:100EA000F1E0841708F0F0E0A80FDD24D394A81730
:100EB00008F0DD24FD2981E0951708F080E0F90FA6
:100EC000DD24D394F91708F0DD248D2991E0E6168E
:100ED00008F090E08E0D21E08E1508F020E0922BB6
:100EE0002F2D3D2F4C2F5B2F6A2F7F2F9E0FDF91D1
:100EF000CF911F910F91FF90EF90DF900895DF92B7
:100F0000EF92FF920F931F93CF93DF93F901DA01D2
:100F1000EB01009188021091890220918A023091A0
:100F20008B02DE2ED01AEE24E394ED1508F0EE24A9
:100F3000EF2FE11BFF24F394FE1708F0FF24FE2F90
:100F4000FE19EF2EF1E0EE1508F0F0E0FF2AFA2F7F
:100F5000F21BE1E0AF1708F0E0E0AF2FAF19FF247C
:100F6000F394FA1708F0FF24EF29FB2FF31B3F2F10
:100F700021E0BF1708F020E0532F5E1B41E035173A
:100F800008F040E0242B4C2F421B21E0C41708F04E
:100F900020E03D2F321B21E0D31708F020E0682F1E
:100FA000621B262F61E0821708F060E0961BD0924A
:100FB0008002E0928102A0938202509383024093C8
:100FC0008402309385022093860290938702DF91FA
:100FD000CF911F910F91FF90EF90DF9008950F93A5
:100FE0001F93CF93DF93CDB7DEB728970FB6F89452
:100FF000DEBF0FBECDBF29833A834B835C836D83F5
:101000007E838F839887DE011996F801CE010196C1
:101010002E912193A817B907D9F728960FB6F894FF
:10102000DEBF0FBECDBFDF91CF911F910F9108950D
:10103000CF93DF93CDB7DEB728970FB6F894DEBF16
:101040000FBECDBFDC011896FE01319680E090E026
:101050002E912193019688309105D1F729813A810B
:101060004B815C816D817E818F81988528960FB63A
:10107000F894DEBF0FBECDBFDF91CF91089580E021
:1010800090E0E091E601F091E701A091E801B091D4
:10109000E901A80FB91F1C92E80FF91F10820196F1
:1010A0008034910571F708958091C80085FFFCCFC9
:1010B00083E48093CE008091C80085FFFCCF83E05D
:1010C0008093CE008091C80085FFFCCF81E08093A3
:1010D000CE000895FC018091A702882341F4868503
:1010E00097858E31910518F481E08093A702809155
:1010F000C802882341F4848595858E31910518F4C2
:1011000081E08093C8028091BB02882341F48285EC
:1011100093858E31910518F481E08093BB02809114
:101120008C02882341F4808591858E31910518F4D5
:1011300081E080938C028091AF02882341F4828108
:1011400093818E31910518F481E08093AF02089568
:1011500083E28093800089E1809381008FEF90E0AB
:1011600090938900809388008FE390E090938B00A8
:1011700080938A00269A0895AF92BF92CF92DF9211
:10118000EF92FF921F93CF93DF93EC017B016A01F3
:10119000F0D1182F8823A9F5C114D10439F0F60134
:1011A00020813181E21AF30AC20FD31FAA24BB2483
:1011B00023C08091E80085FD16C08091E8008E77FD
:1011C0008093E80098D4C114D10449F0F6018081DD
:1011D00091818A0D9B1D9183808315E012C0C9D136
:1011E000882351F00DC089918093F1000894E108A3
:1011F000F1080894A11CB11CE114F104D1F601C05E
:10120000182F812FDF91CF911F91FF90EF90DF90EA
:10121000CF90BF90AF9008954091720350917303A7
:101220004617570720F4BA01FC0140E03DC06115A4
:101230007105D1F74091E8004E774093E800F4CF74
:1012400080916B03882309F447C0853009F446C0B8
:101250008091E80083FD3EC08091E80082FD34C0AB
:101260008091E80080FF20C09091F3008091F2000F
:10127000392F20E090E0822B932B06C041914093C0
:10128000F1006150704001966115710519F08830C8
:101290009105A0F341E08830910509F040E080918C
:1012A000E8008E778093E8006115710549F64423C4
:1012B00039F60AC080916B03882371F0853071F094
:1012C0008091E80083FD0CC08091E80082FFF2CF9E
:1012D00080E0089581E0089582E0089583E0089514
:1012E00081E008956115710529F44091E8004B777C
:1012F0004093E800582F492F2BC080916B0388231F
:10130000D9F18530A9F18091E80083FD33C0809147
:10131000E80082FFF2CFE52FF42F08C08091F100A2
:1013200081935E2F4F2F6150704069F05E2F4F2FD9
:101330009091F3008091F200392F20E090E0822B11
:10134000932B009759F78091E8008B778093E80002
:101350006115710591F606C080916B03882361F0D9
:10136000853061F08091E80080FFF6CF80E008953D
:1013700083E0089581E0089582E0089583E0089570
:1013800040917203509173034617570720F4BA0136
:10139000FC0140E03EC061157105D1F74091E800C5
:1013A0004E774093E800F4CF80916B03882309F4D3
:1013B00048C0853009F447C08091E80083FD3FC0F4
:1013C0008091E80082FD35C08091E80080FF21C057
:1013D0009091F3008091F200392F20E090E0822B71
:1013E000932B07C044914093F100319661507040B7
:1013F00001966115710519F08830910598F341E067
:101400008830910509F040E08091E8008E77809364
:10141000E8006115710541F6442331F60AC0809158
:101420006B03882371F0853071F08091E80083FDB3
:101430000CC08091E80082FFF2CF80E0089581E047
:10144000089582E0089583E0089581E00895982F3B
:101450002AC09093E900981739F07091EC00209120
:10146000ED005091F00003C0242F762F50E021FFB3
:1014700019C03091EB003E7F3093EB003091ED00CE
:101480003D7F3093ED003091EB0031603093EB0005
:101490007093EC002093ED005093F0002091EE004B
:1014A00027FF08C09F5F9730A0F28F708093E900FC
:1014B00081E0089580E008950F931F93CF93DF9309
:1014C000162FEC0100E02AC09881992329F16B8145
:1014D000E981FA812C81892F8F70873018F5629508
:1014E000660F660F607C991F9927991F692B223020
:1014F00010F096E001C092E028E030E040E003C048
:101500004F5F220F331F2E173F07D0F34295407FC6
:10151000492B9DDF882331F00F5F25960117A1F637
:1015200081E001C080E0DF91CF911F910F9108957C
:1015300080916C0387FF13C004C080916B038823E4
:10154000B9F08091E80082FFF8CF8091E8008B77B6
:101550008093E800089580916B03882349F080917F
:10156000E80080FFF8CF8091E8008E778093E80054
:1015700008958091E4009091E50045E601C0C9011D
:101580002091EC0020FF23C02091E80020FD15C031
:1015900020916B03222399F0253099F02091EB00E4
:1015A00025FD11C02091E4003091E500281739078E
:1015B00039F3415021F784E0089580E0089582E0F6
:1015C000089583E0089581E0089580E008952091D2
:1015D000E80022FFDDCFF9CF0F931F93CF93DF9366
:1015E0004BD052D0C8EDD0E088818F778883888136
:1015F0008068888388818F7D888319BC10926B03F3
:1016000010926703109269031092680300EE10E0D5
:10161000F80180818B7F808388818160888380E06E
:1016200060E042E014DFE1EEF0E080818E7F8083B5
:10163000E2EEF0E080818160808380818860808339
:10164000F80180818E7F8083888180618883DF912B
:10165000CF911F910F910895E8EDF0E080818F7E8A
:101660008083E7EDF0E080818160808384E082BF49
:1016700081E080936A03B0CFE8EDF0E080818E7F57
:1016800080831092E20008951092DA001092E10037
:1016900008951F920F920FB60F9211242F933F932C
:1016A0004F935F936F937F938F939F93AF93BF936A
:1016B000EF93FF938091E10082FF0BC08091E200E5
:1016C00082FF07C08091E1008B7F8093E1000E9440
:1016D00046038091DA0080FF1FC08091D80080FF10
:1016E0001BC08091DA008E7F8093DA008091D90050
:1016F00080FF0DC080E189BD82E189BD09B400FE93
:10170000FDCF81E080936B030E942F0305C019BCBD
:1017100010926B030E9431038091E10080FF18C09A
:101720008091E20080FF14C08091E2008E7F809360
:10173000E2008091E20080618093E2008091D80015
:1017400080628093D80019BC85E080936B03D2D16E
:101750008091E10084FF2FC08091E20084FF2BC0C4
:1017600080E189BD82E189BD09B400FEFDCF809191
:10177000D8008F7D8093D8008091E1008F7E809388
:10178000E1008091E2008F7E8093E2008091E20090
:1017900081608093E20080916703882311F084E0E8
:1017A00007C08091E30087FF02C083E001C081E0B1
:1017B00080936B039FD18091E10083FF22C08091D1
:1017C000E20083FF1EC08091E100877F8093E100EB
:1017D00082E080936B03109267038091E1008E7F1B
:1017E0008093E1008091E2008E7F8093E2008091FF
:1017F000E20080618093E20080E060E042E027DE6A
:1018000079D1FF91EF91BF91AF919F918F917F918E
:101810006F915F914F913F912F910F900FBE0F905D
:101820001F9018951F93CF93DF93CDB7DEB7AC977A
:101830000FB6F894DEBF0FBECDBF80E0ECE6F3E05C
:101840009091F10091938F5F8830D1F70E9442030D
:101850008091E80083FF36C180916C0320916D0375
:10186000253009F484C0263040F42130A1F1213024
:1018700070F0233009F026C12EC0283009F4F3C0DF
:10188000293009F402C1263009F01CC193C0803808
:1018900021F0823809F016C108C080916803909148
:1018A0006903992371F082600CC0809170038F707E
:1018B0008093E9009091EB0081E095FF80E0109229
:1018C000E9009091E800977F9093E8008093F10001
:1018D0001092F100D3C0882319F0823009F0F2C0D1
:1018E00090E08F719070009729F08230910509F097
:1018F000E9C00BC080916E03813009F0E3C0233052
:1019000009F080E0809369032CC080916E038823E6
:1019100041F5209170032F7009F4D4C02093E900A1
:101920008091EB0080FF1DC080916D03833021F416
:101930008091EB00806213C08091EB008061809306
:10194000EB0081E090E002C0880F991F2A95E2F732
:101950008093EA001092EA008091EB008860809307
:10196000EB001092E9008091E800877F8AC088230D
:1019700009F0A8C010916E031F778091E300807872
:10198000812B8093E3008091E800877F8093E800BB
:10199000CFDD8091E80080FFFCCF8091E30080687C
:1019A0008093E300112311F083E001C082E0809373
:1019B0006B0388C08058823008F084C080916E0329
:1019C00090916F0323E08C3D9207A9F583E08C830F
:1019D0008AE28B835FB7F894DE01139680E090E093
:1019E0004EE061E2E42FF0E060935700E49180FF65
:1019F00003C0E295EF704F5FEF702E2F30E0EA30BA
:101A000018F0295C3F4F02C0205D3F4F13963C9376
:101A10002E931297019612968431910519F75FBFA4
:101A20008091E800877F8093E800CE0103966AE208
:101A300070E0F2DB12C060917003AE014F5F5F4F48
:101A4000E3D8BC01009709F43DC08091E800877F8E
:101A50008093E80089819A8193DC8091E8008B77FC
:101A60008093E8002FC0803869F58091E800877F77
:101A70008093E800809167038093F1008091E800F3
:101A80008E778093E80054DD1DC08823D9F49091AF
:101A90006E039230B8F48091E800877F8093E8006D
:101AA0009093670345DD80916703882321F480913B
:101AB000E30087FF02C084E001C081E080936B03F4
:101AC0000E9433038091E80083FF0AC08091E80000
:101AD000877F8093E8008091EB0080628093EB0029
:101AE000AC960FB6F894DEBF0FBECDBFDF91CF919D
:101AF0001F9108950895CF9380916B038823A9F0D7
:101B00008091E9008F709091EC0090FF02C0C0E8D6
:101B100001C0C0E0C82B1092E9008091E80083FF6B
:101B200001C080DECF70C093E900CF9108956F921D
:101B30007F928F929F92AF92BF92CF92DF92EF925D
:101B4000FF920F931F93CF93DF9300D00F92CDB7E7
:101B5000DEB77C016DB67EB68091E80083FF0AC1D6
:101B6000F701808190E02091700330917103281774
:101B7000390709F0FFC080916D03833009F4A1C0DB
:101B8000843030F4813071F0823009F0F3C0D6C077
:101B90008A3009F4BBC08B3009F4A4C0893009F045
:101BA000E9C051C080916C03813A09F0E3C09DB651
:101BB0008EB61B821A8280916E0300916F03898317
:101BC000F70140858DB79EB7841B91090FB6F89435
:101BD0009EBF0FBE8DBFCDB6DEB60894C11CD11C12
:101BE000BC2CAD2CC60160E070E050E0E4D1402F89
:101BF0004150C701BE016F5F7F4F96018E010E5F9E
:101C00001F4F0E945203F70186819781009721F0B0
:101C10004085B60150E0C6D11092E9008091E800FD
:101C2000877F8093E8008981882311F08093F100F9
:101C30006A817B818B2D9A2DEFDA8091E8008B777A
:101C40008093E8003BC080916C03813209F092C020
:101C50009DB68EB60091720310917303C0906E030F
:101C6000D0906F038DB79EB7801B910B0FB6F89481
:101C70009EBF0FBE8DBFADB6BEB60894A11CB11CF1
:101C80008091E800877F8093E800C501B8012ADBD6
:101C90008091E8008E778093E80081E090E0CC208E
:101CA00011F480E090E04D2D41509501280F391F2F
:101CB000081B190BC7016C2D0E94AB059DBE8EBE83
:101CC00059C080916C03813A09F054C08091E800BA
:101CD000877F8093E8008091E80080FFFCCFF701C8
:101CE000818540C080916C03813209F043C08091AE
:101CF000E800877F8093E8001BDC90916E0381E011
:101D0000992309F480E0F701818734C080916C0346
:101D1000813281F58091E800877F8093E80008DCBC
:101D200080916E0390916F03807036E09695879551
:101D30003A95E1F7F701958784871CC080916C0381
:101D4000813AC1F48091E800877F8093E800809118
:101D5000E80080FFFCCFF7018485958596958795EF
:101D6000969587958093F1008091E8008E77809317
:101D7000E800DEDB0FB6F8947EBE0FBE6DBE0F909E
:101D80000F900F90DF91CF911F910F91FF90EF90E7
:101D9000DF90CF90BF90AF909F908F907F906F908B
:101DA0000895CF93DF93FC010996DC0187E0ED01F4
:101DB00019928A95E9F781E0818784EF91E0958710
:101DC000848783E08483CF01019661E075DBDF9136
:101DD000CF9108954F925F926F927F928F929F92D0
:101DE000AF92BF92CF92DF92EF92FF920F931F9329
:101DF000CF93DF9300D00F92CDB7DEB77C014DB605
:101E00005EB680916B03843009F092C08091E4004B
:101E10009091E500F701228533852817390709F4E9
:101E200087C081818F708093E9008091E80085FFF1
:101E30007FC07DB66EB640858DB79EB7841B910975
:101E40000FB6F8949EBF0FBE8DBF0DB71EB70F5FC4
:101E50001F4F19821B821A82B02EA12EC80160E08A
:101E600070E050E0A8D0C701BE016F5F7F4F40E037
:101E700098018E010E5F1F4F0E945203182FF70129
:101E800084859585009759F081E090E02685378517
:101E90002115310511F080E090E04C0102C088244A
:101EA0009924F701C680D780C114D10491F04A81EA
:101EB0005B818B2D9A2DB60168D001E0009709F463
:101EC00000E0F7014085C6016B2D7A2D50E06AD005
:101ED00001C000E08A819B81009709F1112329F458
:101EE000002319F481149104D1F0F70184859585BC
:101EF0009787868781818F708093E9008981882305
:101F000011F08093F1006A817B818B2D9A2D40E046
:101F100050E032D98091E8008E778093E80080917C
:101F2000E4009091E500F701938782877DBE6EBE45
:101F30000FB6F8945EBE0FBE4DBE0F900F900F907F
:101F4000DF91CF911F910F91FF90EF90DF90CF9095
:101F5000BF90AF909F908F907F906F905F904F90C9
:101F60000895AA1BBB1B51E107C0AA1FBB1FA617E0
:101F7000B70710F0A61BB70B881F991F5A95A9F732
:101F800080959095BC01CD010895FB01DC0104C052
:101F90008D910190801921F441505040C8F7881B61
:101FA000990B0895FB01DC0102C001900D92415094
:101FB0005040D8F70895DC0101C06D934150504066
:081FC000E0F70895F894FFCF4B
:101FC80001000400060007009402000028420000F7
:101FD8002842000028420000284200002842000051
:101FE800284200002842080009000A000B000C00E3
:101FF8000D000E000A0000000000000000000000B4
:1020080000000000000000000000000000000000C8
:1020180000000000000000000000000000000000B8
:1020280000000000000000000000000000000000A8
:102038000000000000000000000000000000000098
:102048000000000000000000000000000000000088
:102058000000000000000000000000000000000078
:102068000000000000000000000000000000000068
:102078000000000000000000000000000000000058
:10208800484300004843000048430000484300819B
:1020980008000001000280000000000000000100AC
:1020A800040006000700E7022703A1200000000043
:0A20B8000200A1010000000000007A
:00000001FF
