:10000000B8C20000F0C20000EEC20000ECC2000066
:10001000EAC20000E8C20000E6C20000E4C200003C
:10002000E2C20000E0C200000C94450FDCC20000F8
:10003000DAC20000D8C20000D6C20000D4C200005C
:10004000D2C20000D0C20000CEC20000CCC200006C
:10005000CAC200000C943C09C6C20000C4C2000021
:10006000C2C20000C0C20000BEC20000BCC200008C
:10007000BAC20000B8C20000B6C20000B4C200009C
:10008000B2C20000B0C20000AEC20000ACC20000AC
:10009000AAC20000A8C20000A6C20000A4C20000BC
:1000A000A2C20000A0C200009EC20000084749563C
:1000B000455F524F43000D474956455F4C49444FF9
:1000C00043414E45000D474956455F50524F504FF2
:1000D000464F4C0010474956455F414E54494249EE
:1000E0004F54494353000D474956455F4B455441D2
:1000F0004D494E45000D474956455F46454E5441D2
:100100004E594C000D474956455F4D4F5250484996
:100110004E45000E474956455F45544F4D494441B1
:1001200054450004484541540004424C4950000FD6
:100130006573636861726F746F6D795F61726D0072
:100140000D41524D5F525F49565F43415448000E86
:1001500041524D5F4C5F4553434841525F35000E5D
:1001600041524D5F4C5F4553434841525F34000E4E
:1001700041524D5F4C5F4553434841525F33000E3F
:1001800041524D5F4C5F4553434841525F32000E30
:1001900041524D5F4C5F4553434841525F3100022D
:1001A0004F3200164D41534B5F485950455256450A
:1001B0004E54494C4154455F5054001C4D41494EEA
:1001C0005354454D5F56454E54494C4154494F4E4A
:1001D0005F45545F54554245000742564D5F4F46B8
:1001E00046001356454E54494C4154494F4E5F45C5
:1001F000545F54554245001E45534F5048414745B2
:10020000414C5F56454E54494C4154494F4E5F4511
:10021000545F54554245002048454152545F524175
:1002200054453D3133662C4143543D3138732C5095
:10023000524F583D3139732C002C034C0055004669
:100240000041002000470065006E006500720069F3
:10025000006300200048004900440020004400657D
:10026000006D006F00000018034400650061006E1F
:10027000002000430061006D006500720061000015
:10028000000403090409022200010100C03209042C
:100290000000010300000009211101000122CA0130
:1002A000070581030800051201100100000008EB9A
:1002B0000340200100010200010600FF0901A10125
:1002C00085010902150026FF00750895FEB102851B
:1002D000020902150026FF00750895FFB10285038B
:1002E0000905150026FF007508951E810085040983
:1002F00006150026FF0075089508B1028505090757
:10030000150026FF007508950C8102850609081561
:100310000026FF0075089510B10285070909150030
:1003200026FF007508950D810285FF090A15002634
:10033000FF0075089508B10285FE090B150026FF20
:100340000075089508B1028508090C150026FF0004
:100350007508950481028508090C150026FF0075B3
:1003600008950491028509090C150026FF007508FF
:10037000950481028509090C150026FF0075089572
:10038000049102850A090C150026FF0075089504E2
:100390008102850A090C150026FF00750895049155
:1003A00002850B090C150026FF00750895048102D3
:1003B000850B090C150026FF007508950491028530
:1003C0000C090C150026FF00750895048102850CA8
:1003D000090C150026FF00750895049102850D098A
:1003E0000C150026FF00750895048102850D090C87
:1003F000150026FF00750895049102850E090C155D
:100400000026FF00750895048102850E090C150071
:1004100026FF00750895049102850F090015002636
:10042000FF0075089504B1028510090D150026FF1F
:10043000007508954081028511090D150026FF0001
:100440007508950191028512090E150026FF0075A9
:100450000895FF81028512090E150026FF00750818
:1004600095FF91028513090F150026FF0075089569
:10047000FF81028513090F150026FF00750895FFFF
:100480009102C0024F32000A54454D505F50524F06
:100490004245000850554C53455F4F5800074250A5
:1004A0005F4355464600034543470006464C5549C1
:1004B00044530003524F4300084C49444F43414EBC
:1004C00045000850524F504F464F4C000B414E5480
:1004D0004942494F5449435300084B4554414D4903
:1004E0004E45000846454E54414E594C00084D4F6C
:1004F000525048494E450005535543435300094562
:10050000544F4D4944415445000456454E54000350
:1005100042564D000D41524D5F525F49565F434177
:1005200054480003524F4300084C49444F43414E46
:1005300045000850524F504F464F4C000B414E540F
:100540004942494F5449435300084B4554414D4992
:100550004E45000846454E54414E594C00084D4FFB
:10056000525048494E45000945544F4D4944415465
:10057000450011241FBECFEFDAE0DEBFCDBF04B6C9
:1005800003FE1BC08091640690916506A0916606EB
:10059000B09167068A3C2CEA920722E4A2072CED70
:1005A000B20759F41092640610926506109266061E
:1005B00010926706E0E0F8E3099513E0A0E0B1E0EF
:1005C000E0EAFAE202C005900D92A434B107D9F72F
:1005D00016E0A4E4B3E001C01D92A436B107E1F730
:1005E000ACD00C944E150CCD25B1982F91709095F0
:1005F0002160922395B92BB1982F9072909520622B
:1006000092239BB998B180789F77892B88B90895F8
:100610008091E00081608093E000F8948FEF9DE38B
:10062000A9E481509040A040E1F700C000008AECAE
:100630009CEAA2E4BCED8093640690936506A093C7
:100640006606B09367062DE088E190E00FB6F89457
:10065000A895809360000FBE20936000FFCF982F75
:100660009F7185FF04C080917B00806203C08091F0
:100670007B008F7D80937B0080917C00807E892B26
:1006800080937C0080917A00806480937A008091CE
:100690007A0086FDFCCF8091780090917900392F07
:1006A00020E090E0822B932B08950F931F93CF931C
:1006B000DF930EEA15E0C0E0D0E0CE01D0DFF80114
:1006C000819391938F012196C930D105B1F7DF91C4
:1006D000CF911F910F91089584B7877F84BF88E1E0
:1006E0000FB6F89480936000109260000FBEEAE7A6
:1006F000F0E080818760808380818068808380E4EF
:1007000080937C0090E080E80FB6F89480936100BD
:10071000909361000FBE808180648083769A84B15B
:100720008E6084B984B1806C84B9209A289A559AD5
:100730005D9A3F9A47980C94280FCEDF8FD581E0C1
:1007400053DF789492D784EA91E00E94E7120E94E6
:100750007811ABDF8EEA95E0ABD70E94F30BF3CFB5
:1007600080EA42CF81E040CF84EA91E00E94CE123D
:100770009091E20094609093E200882311F080E26F
:1007800001C081E831CF84EA91E00C94941180910A
:10079000B2019091B301009729F001979093B301B2
:1007A0008093B20108954F925F926F927F928F92E1
:1007B0009F92AF92BF92CF92DF92EF92FF920F93F0
:1007C0001F93CF93DF93CDB7DEB72B970FB6F89477
:1007D000DEBF0FBECDBF3B0179012801442309F4E0
:1007E0005AC0423009F0AEC3DB018C91843031F441
:1007F00077D587015ED688E090E018C08630D9F4BE
:1008000054E9C52E51E0D52E8901D6016D917D9117
:100810008D919D916D01A801E1D40C5F1F4FB4EA49
:10082000CB16B1E0DB0689F780E190E0F20191831D
:10083000808381E088C3813089F4D90180E28D937F
:1008400080E090E00196FC01E95EFD4FE491ED93BC
:1008500080329105B9F78EEF90E06FC3823089F452
:10086000D9018FE08D9380E090E00196FC01E15D7D
:10087000FE4FE491ED938F309105B9F78FEF90E043
:10088000D5CF8F3009F05EC380918405D9018C9358
:1008900084E090E0CBCFDB010C910730A1F4809194
:1008A000100190911101009709F44CC38AE091E086
:1008B00043D4B7016FD48DE090E0F201918380833F
:1008C000D3010C93B6CF033009F03FC0FE0134963C
:1008D000A0E0B1E088E00D9001928150E1F7CE01F7
:1008E0000496B7019E01245F3F4FDC01ED91FD911D
:1008F000CD01EE0FFF1FE255FA4F4181DB0111964A
:100900004C93119740814C936E5F7F4F82179307F2
:1009100061F783E6C82E85E0D82E8701085F1F4F58
:10092000F60161917191819191916F01A80156D465
:100930000C5F1F4FF3E7CF16F5E0DF0689F783E082
:10094000D3018C9388E190E071CF002309F0FAC2C3
:1009500080917805882309F43AC0E091EC02F09187
:10096000ED028081843409F0EDC28181863109F085
:10097000E9C21B821A82CF010A96BE016F5F7F4FC8
:10098000AE014E5F5F4FFBD5882309F4DBC28A813D
:100990009B81009709F4D6C259D699818A812B810F
:1009A000D7019D93E82FF22F03C024912D93319608
:1009B0002E2F281B2917C8F383E1D3018C938FEFC7
:1009C00090E0F201918380831092780532CF80917C
:1009D00058048823C9F0D9018EE18D9380E090E01E
:1009E0000196FC01E950FE4FE491ED938E319105A3
:1009F000B9F782E1D3018C938FEF90E0F2019183FC
:100A000080831092580415CF80919D058823C9F0EA
:100A1000D90183E18D9380E090E00196FC01EE51D5
:100A2000FE4FE491ED9383319105B9F782E1D30153
:100A30008C938FEF90E0F2019183808310929D055B
:100A4000F8CE809174058823C9F0D90187E08D9391
:100A500080E090E00196FC01E752FE4FE491ED93B7
:100A600087309105B9F782E1D3018C938FEF90E045
:100A7000F2019183808310927405DBCE8091AC05E6
:100A80008823C9F0D9018CE18D9380E090E0019634
:100A9000FC01E554FE4FE491ED938C319105B9F7DB
:100AA00082E1D3018C938FEF90E0F20191838083F8
:100AB0001092AC05BECE809162058823C9F0D901A1
:100AC00086E18D9380E090E00196FC01ED55FE4FAC
:100AD000E491ED9386319105B9F782E1D3018C93CE
:100AE0008FEF90E0F2019183808310926205A1CE96
:100AF0008091AA058823C9F082E0D9018C93E0EAAD
:100B0000F1E0849111968C9311973196E4911296AD
:100B1000EC9382E1FB0180838FEF90E0D20111968C
:100B20009C938E931092AA0584CE80918B05882386
:100B3000D1F0D90184E08D9380E090E00196FC0132
:100B4000E75DFE4FE491ED9384309105B9F782E1C2
:100B5000F30180838FEF90E0D20111969C938E93E6
:100B600010928B0566CE809177058823D1F0D9014C
:100B700084E08D9380E090E00196FC01ED5DFE4FF6
:100B8000E491ED9384309105B9F782E1F30180831C
:100B90008FEF90E0D20111969C938E93109277057F
:100BA00048CE809181058823D1F0D9018EE08D93C4
:100BB00080E090E00196FC01ED5EFE4FE491ED9344
:100BC0008E309105B9F782E1F30180838FEF90E0D9
:100BD000D20111969C938E93109281052ACE80911A
:100BE00086058823D1F0D9018DE08D9380E090E0D7
:100BF0000196FC01EC5FFE4FE491ED938D30910581
:100C0000B9F782E1F30180838FEF90E0D201119672
:100C10009C938E93109286050CCE8091A905882313
:100C2000D1F0D9018DE08D9380E090E00196FC0138
:100C3000EB50FF4FE491ED938D309105B9F782E1D0
:100C4000F30180838FEF90E0D20111969C938E93F5
:100C50001092A905EECD809173058823D1F0D901BA
:100C60008DE08D9380E090E00196FC01EA51FF4F0A
:100C7000E491ED938D309105B9F782E1F301808322
:100C80008FEF90E0D20111969C938E931092730592
:100C9000D0CD8091AB058823D1F0D90180E18D932F
:100CA00080E090E00196FC01EC52FF4FE491ED935F
:100CB00080319105B9F782E1F30180838FEF90E0F5
:100CC000D20111969C938E931092AB05B2CD809178
:100CD0009B058823D1F0D9018DE08D9380E090E0D1
:100CE0000196FC01EB53FF4FE491ED938D3091059C
:100CF000B9F782E1F30180838FEF90E0D201119682
:100D00009C938E9310929B0594CD8091AD05882382
:100D1000D1F0D9018DE08D9380E090E00196FC0147
:100D2000EA54FF4FE491ED938D309105B9F782E1DC
:100D3000F30180838FEF90E0D20111969C938E9304
:100D40001092AD0576CD80919A058823D1F0D90116
:100D500088E08D9380E090E00196FC01E455FF4F20
:100D6000E491ED9388309105B9F782E1F301808336
:100D70008FEF90E0D20111969C938E9310929A057A
:100D800058CD809176058130D9F4D9018EE08D93CC
:100D900080E090E00196FC01E157FE4FE491ED9375
:100DA0008E309105B9F782E1F30180838FEF90E0F7
:100DB000D20111969C938E9382E08093760539CD73
:100DC0008091A6058130D9F4D9018EE08D9380E021
:100DD00090E00196FC01E158FE4FE491ED938E30D6
:100DE0009105B9F782E1F30180838FEF90E0D201A2
:100DF00011969C938E9382E08093A6051ACD8091E4
:100E00009C058130D9F4D9018EE08D9380E090E08B
:100E10000196FC01E159FE4FE491ED938E3091056E
:100E2000B9F782E1F30180838FEF90E0D201119650
:100E30009C938E9382E080939C05FBCC8091590417
:100E40008130D9F4D9018EE08D9380E090E0019655
:100E5000FC01E15AFE4FE491ED938E309105B9F714
:100E600082E1F30180838FEF90E0D20111969C9391
:100E70008E9382E080935904DCCC80918D05813083
:100E8000D9F4D9018EE08D9380E090E00196FC01C9
:100E9000E15BFE4FE491ED938E309105B9F782E16D
:100EA000F30180838FEF90E0D20111969C938E9393
:100EB00082E080938D05BDCC80911001909111014D
:100EC000009781F08AE091E037D1B70163D18DE0DE
:100ED00090E0F2019183808387E0D3018C9381E8D5
:100EE00083DBA7CC8091C605882361F180908E05B5
:100EF00090908F05A0909005B090910520919E054F
:100F000030919F054091A0055091A1056091A205E7
:100F10007091A3058091A4059091A5058701C9D280
:100F2000A701485F5F4FC501B4012ED11092C605DD
:100F300085E0F30180838CE090E0D20111969C93D0
:100F40008E9377CC80E02B960FB6F894DEBF0FBE61
:100F5000CDBFDF91CF911F910F91FF90EF90DF9068
:100F6000CF90BF90AF909F908F907F906F905F9049
:100F70004F9008950F931F93CF93DF93E901413072
:100F8000B1F1423009F096C0623051F481E08093B3
:100F900047038881809346038981809345038AC0F3
:100FA000643021F4C901AED214D284C0663091F409
:100FB00004E911E0CE0130D1DC01CB01F8018193CD
:100FC0009193A193B1938F012496F1E0043A1F0706
:100FD00089F770C06F3F19F481EA06DB19DB6F30C7
:100FE00009F068C040D381E08093770563C0613128
:100FF00061F0623120F46D3009F05CC040C06231B4
:1010000071F1633109F056C006C08881882309F068
:1010100051C09FD24FC08981863561F48A81853461
:10102000D9F48B818E34C1F48C818435A9F440933A
:10103000750512C0823449F48A81863569F48B8142
:101040008D3451F44093610507C08F3429F48A81AF
:10105000823311F44093AA05CE0116D42BC08981A6
:10106000833551F48A81843539F48B818F3421F4AE
:101070008C81803509F4A7D3CE016FD41BC0C90180
:10108000CBD020E030E040E752E40E94AE139B0159
:10109000AC0160E070E080E89FE30E94AE1320E0C6
:1010A00030E04AE754E40E9498140E941614DC01D0
:1010B000CB018CD3DF91CF911F910F910895933085
:1010C00089F0943028F4913049F1923061F505C0EF
:1010D0009132D1F0923239F51CC082E290E0E5E81D
:1010E000F2E025C0813041F0813018F08230D9F42F
:1010F00006C0E1E8F2E005C0E7E6F2E002C0E9E39D
:10110000F2E0849190E013C089E090E0E7E9F2E03A
:101110000EC08AEC91E0E9EBF2E009C082E190E0D8
:10112000E7EAF2E004C080E090E0E0E0F0E0DA011D
:101130001196FC93EE930895CF93DF93FC012681E3
:10114000378121153105D9F0C481D581CE010196B1
:10115000608171810E94FB1495838483215030400B
:10116000378326832DE030E0C29FC001C39F900DDE
:10117000D29F900D112408968E0F9F1F02C080E011
:1011800090E0DF91CF910895FA019083818372837B
:1011900063830895EF92FF920F931F93CF93DF9392
:1011A000EC017B01288139814A815B816C817D81E1
:1011B0008E819F8187017DD1688579858A859B8510
:1011C000A701485F5F4FE0DF8C85F7018487DF91DF
:1011D000CF911F910F91FF90EF900895CF93DF93E0
:1011E00000D000D0CDB7DEB7DC01CB0189839A8374
:1011F000AB83BC83DE011196FA0180E090E02D9173
:101200002193019684309105D1F70F900F900F90A4
:101210000F90DF91CF910895CF93DF9300D000D04E
:10122000CDB7DEB7FC01DE01119680E090E02191A0
:101230002D93019684309105D1F759814A813B81E4
:101240002C81852F942FA32FB22FBC01CD010F909D
:101250000F900F900F90DF91CF91089584B5826029
:1012600084BDEEE6F0E080818260808389EF87BDF7
:1012700085B5836085BD08951F920F920FB60F92BA
:1012800011248F939F93AF93BF9380914F049091BC
:101290005004A0915104B09152040196A11DB11DBA
:1012A00080934F0490935004A0935104B093520440
:1012B000BF91AF919F918F910F900FBE0F901F9094
:1012C00018950F931F9300914F0410915004209193
:1012D000510430915204B801C9011F910F91089532
:1012E000DF92EF92FF920F931F93CF93DF930091C2
:1012F0004F0410915004209151043091520440E069
:1013000050E0BA01F0904704B0914804A09149041C
:10131000D0904A0480914B0490914C04E0904D048D
:10132000E0914E04F00ED1E0F01608F0D0E0B10FDD
:10133000C1E0B11708F0C0E0DB0FF1E0DB1708F007
:10134000F0E0CF2BA20FB1E0A21708F0B0E0CA0F77
:10135000F1E0CA1708F0F0E0BF2BF32FFD0DA1E07C
:10136000F31708F0A0E0BF0FDD24D394BF1708F0F7
:10137000DD24AD29F1E0841708F0F0E0A80FDD24AA
:10138000D394A81708F0DD24FD2981E0951708F013
:1013900080E0F90FDD24D394F91708F0DD248D29BE
:1013A00091E0E61608F090E08E0D21E08E1508F031
:1013B00020E0922B2F2D3D2F4C2F5B2F6A2F7F2F5C
:1013C0009E0FDF91CF911F910F91FF90EF90DF90D3
:1013D0000895DF92EF92FF920F931F93CF93DF93C5
:1013E000F901DA01EB0100914F04109150042091B2
:1013F000510430915204DE2ED01AEE24E394ED1500
:1014000008F0EE24EF2FE11BFF24F394FE1708F001
:10141000FF24FE2FFE19EF2EF1E0EE1508F0F0E0AC
:10142000FF2AFA2FF21BE1E0AF1708F0E0E0AF2F40
:10143000AF19FF24F394FA1708F0FF24EF29FB2FCC
:10144000F31B3F2F21E0BF1708F020E0532F5E1B56
:1014500041E0351708F040E0242B4C2F421B21E0DF
:10146000C41708F020E03D2F321B21E0D31708F00D
:1014700020E0682F621B262F61E0821708F060E0F1
:10148000961BD0924704E0924804A09349045093DD
:101490004A0440934B0430934C0420934D049093A2
:1014A0004E04DF91CF911F910F91FF90EF90DF904D
:1014B00008950F931F93CF93DF93CDB7DEB728978F
:1014C0000FB6F894DEBF0FBECDBF29833A834B839E
:1014D0005C836D837E838F839887DE011996F80184
:1014E000CE0101962E912193A817B907D9F7289616
:1014F0000FB6F894DEBF0FBECDBFDF91CF911F9125
:101500000F910895CF93DF93CDB7DEB728970FB62D
:10151000F894DEBF0FBECDBFDC011896FE013196F8
:1015200080E090E02E912193019688309105D1F7CB
:1015300029813A814B815C816D817E818F81988583
:1015400028960FB6F894DEBF0FBECDBFDF91CF91C6
:1015500008958091C80085FFFCCF83E48093CE007E
:101560008091C80085FFFCCF83E08093CE008091FE
:10157000C80085FFFCCF81E08093CE0008954F9294
:101580005F926F927F928F929F92AF92BF92CF9213
:10159000DF92EF92FF920F931F93CF93DF935C0143
:1015A0003B012A018EDE6B017C0100E010E024E1AA
:1015B000822E912C089DE001099DD00D189DD00D23
:1015C0001124C254DE4FC501BE014CE050E00E9420
:1015D0003115009721F588899989AA89BB89A701C6
:1015E0009601281B390B4A0B5B0BDA01C901C88A2B
:1015F000D98AEA8AFB8A893833E1930730E0A30766
:1016000030E0B30750F0EC85FD85E491D301EC9315
:101610008E859F85F2019183808381E006C00F5FF4
:101620001F4F0F30110531F680E0DF91CF911F91F0
:101630000F91FF90EF90DF90CF90BF90AF909F9071
:101640008F907F906F905F904F9008953ADEDC010D
:10165000CB0180930B0690930C06A0930D06B093DC
:101660000E062F9A08952F9A089583E280938000A2
:1016700089E1809381008FEF90E0909389008093BF
:10168000880010928B0010928A0084B1806C84B91B
:10169000089517DEDC01CB0180935006909351062C
:1016A000A0935206B093530681E080934F060895AD
:1016B000FC0180917605882341F484859585883CDA
:1016C000910518F481E0809376058091A605882322
:1016D00041F482859385883C910518F481E08093DC
:1016E000A60580919C05882341F480859185883CDE
:1016F000910518F481E080939C058091590488231A
:1017000041F482819381883C910518F481E08093B3
:10171000590480918D05882341F480819181883C12
:10172000910518F481E080938D05809176058823DA
:1017300081F48091A605882361F480919C0588231B
:1017400041F480915904882321F480918D058823E8
:1017500009F089DF41E050E080917605882311F49B
:1017600040E050E061E070E08091A605882311F42C
:1017700060E070E0640F751F41E050E080919C05CF
:10178000882311F440E050E0460F571F21E030E07D
:1017900080915904882311F420E030E0240F351F94
:1017A00081E090E040918D05442311F480E090E0C9
:1017B000820F931F843091052CF080914F0688236F
:1017C00009F467CF089510924F06089521E0209301
:1017D0004F068534910514F484E490E09093EF0271
:1017E0008093EE0208950F931F9380914F068823F4
:1017F00051F167DD0091500610915106209152067B
:1018000030915306601B710B820B930B2091EE02FB
:101810003091EF02442737FD4095542F0E940F1559
:10182000DC01CB0184349105A105B10528F4805178
:101830009D4FFC01808101C08FE190E090938B006F
:1018400080938A0004C010928B0010928A001F912E
:101850000F910895DC0180E090E00AC02D91FB011A
:10186000E80FF91FE4912E1748F0E21750F00196A7
:10187000841795079CF380E090E008958FEF9FEF29
:10188000089581E090E008950F931F93CF93DF9325
:10189000EC011881412F1A3008F049E0CE0167E6CB
:1018A00075E050E0D7DF009711F481E04FC0012FC1
:1018B000193008F008E0CE016DE575E0402F50E0EA
:1018C000C9DF009711F482E041C0CE0163E575E005
:1018D000402F50E0BFDF009711F483E037C0CE0106
:1018E00069E475E0402F50E0B5DF009711F484E023
:1018F0002DC0412F1C3008F04BE0CE016CE375E0A9
:1019000050E0A8DF009711F485E020C0CE0162E32B
:1019100075E0402F50E09EDF009711F486E016C07E
:10192000CE0168E275E0402F50E094DF009711F49B
:1019300087E00CC0412F143008F043E0CE0163E291
:1019400075E050E087DF009719F488E08093530436
:10195000DF91CF911F910F91089564E175E04DE003
:1019600050E078DF009719F481E0809354060895E1
:10197000AF92BF92CF92DF92EF92FF921F93CF93DD
:10198000DF93EC017B016A01F0D1182F8823A9F5C0
:10199000C114D10439F0F60120813181E21AF30A31
:1019A000C20FD31FAA24BB2423C08091E80085FD69
:1019B00016C08091E8008E778093E80099D4C11416
:1019C000D10449F0F601808191818A0D9B1D91839C
:1019D000808315E012C0C9D1882351F00DC08991D0
:1019E0008093F1000894E108F1080894A11CB11C4F
:1019F000E114F104D1F601C0182F812FDF91CF91AE
:101A00001F91FF90EF90DF90CF90BF90AF9008951F
:101A100040916206509163064617570720F4BA01B9
:101A2000FC0140E03DC061157105D1F74091E8002F
:101A30004E774093E800F4CF80915B06882309F449
:101A400047C0853009F446C08091E80083FD3EC060
:101A50008091E80082FD34C08091E80080FF20C0C2
:101A60009091F3008091F200392F20E090E0822BDA
:101A7000932B06C041914093F10061507040019654
:101A80006115710519F088309105A0F341E08830A7
:101A9000910509F040E08091E8008E778093E8009E
:101AA0006115710549F6442339F60AC080915B0639
:101AB000882371F0853071F08091E80083FD0CC0BF
:101AC0008091E80082FFF2CF80E0089581E00895E0
:101AD00082E0089583E0089581E00895611571051D
:101AE00029F44091E8004B774093E800582F492FA4
:101AF0002BC080915B068823D9F18530A9F18091B4
:101B0000E80083FD33C08091E80082FFF2CFE52F2B
:101B1000F42F08C08091F10081935E2F4F2F615008
:101B2000704069F05E2F4F2F9091F3008091F2008A
:101B3000392F20E090E0822B932B009759F780916A
:101B4000E8008B778093E8006115710591F606C077
:101B500080915B06882361F0853061F08091E80018
:101B600080FFF6CF80E0089583E0089581E0089536
:101B700082E0089583E008954091620650916306E3
:101B80004617570720F4BA01FC0140E03EC061153A
:101B90007105D1F74091E8004E774093E800F4CF0B
:101BA00080915B06882309F448C0853009F447C05A
:101BB0008091E80083FD3FC08091E80082FD35C040
:101BC0008091E80080FF21C09091F3008091F200A5
:101BD000392F20E090E0822B932B07C04491409353
:101BE000F10031966150704001966115710519F050
:101BF0008830910598F341E08830910509F040E084
:101C00008091E8008E778093E8006115710541F6B8
:101C1000442331F60AC080915B06882371F0853039
:101C200071F08091E80083FD0CC08091E80082FF94
:101C3000F2CF80E0089581E0089582E0089583E086
:101C4000089581E00895982F2AC09093E90098178D
:101C500039F07091EC002091ED005091F00003C03C
:101C6000242F762F50E021FF19C03091EB003E7FEA
:101C70003093EB003091ED003D7F3093ED003091DB
:101C8000EB0031603093EB007093EC002093ED009B
:101C90005093F0002091EE0027FF08C09F5F97301F
:101CA000A0F28F708093E90081E0089580E00895AC
:101CB0000F931F93CF93DF93162FEC0100E02AC000
:101CC0009881992329F16B81E981FA812C81892FEF
:101CD0008F70873018F56295660F660F607C991FCC
:101CE0009927991F692B223010F096E001C092E0ED
:101CF00028E030E040E003C04F5F220F331F2E1773
:101D00003F07D0F34295407F492B9DDF882331F078
:101D10000F5F25960117A1F681E001C080E0DF91F9
:101D2000CF911F910F91089580915C0687FF13C09A
:101D300004C080915B068823B9F08091E80082FF9F
:101D4000F8CF8091E8008B778093E8000895809128
:101D50005B06882349F08091E80080FFF8CF8091EE
:101D6000E8008E778093E80008958091E4009091D8
:101D7000E50045E601C0C9012091EC0020FF23C029
:101D80002091E80020FD15C020915B06222399F0E8
:101D9000253099F02091EB0025FD11C02091E40041
:101DA0003091E5002817390739F3415021F784E0D5
:101DB000089580E0089582E0089583E0089581E029
:101DC000089580E008952091E80022FFDDCFF9CF4B
:101DD0000F931F93CF93DF934BD052D0C8EDD0E039
:101DE00088818F77888388818068888388818F7DC8
:101DF000888319BC10925B06109257061092590600
:101E00001092580600EE10E0F80180818B7F8083ED
:101E100088818160888380E060E042E014DFE1EE49
:101E2000F0E080818E7F8083E2EEF0E0808181604F
:101E30008083808188608083F80180818E7F8083A9
:101E4000888180618883DF91CF911F910F910895E0
:101E5000E8EDF0E080818F7E8083E7EDF0E0808127
:101E60008160808384E082BF81E080935A06B0CF96
:101E7000E8EDF0E080818E7F80831092E20008958B
:101E80001092DA001092E10008951F920F920FB69F
:101E90000F9211242F933F934F935F936F937F93F0
:101EA0008F939F93AF93BF93EF93FF938091E10044
:101EB00082FF0BC08091E20082FF07C08091E100A9
:101EC0008B7F8093E1000E94C7038091DA0080FF3E
:101ED0001FC08091D80080FF1BC08091DA008E7FE8
:101EE0008093DA008091D90080FF0DC080E189BD28
:101EF00082E189BD09B400FEFDCF81E080935B06DD
:101F00000E94B00305C019BC10925B060E94B20388
:101F10008091E10080FF18C08091E20080FF14C032
:101F20008091E2008E7F8093E2008091E2008061E8
:101F30008093E2008091D80080628093D80019BC21
:101F400085E080935B06D3D18091E10084FF2FC0B0
:101F50008091E20084FF2BC080E189BD82E189BDD0
:101F600009B400FEFDCF8091D8008F7D8093D8000A
:101F70008091E1008F7E8093E1008091E2008F7E6E
:101F80008093E2008091E20081608093E200809182
:101F90005706882311F084E007C08091E30087FF93
:101FA00002C083E001C081E080935B06A0D18091F4
:101FB000E10083FF22C08091E20083FF1EC0809178
:101FC000E100877F8093E10082E080935B061092BE
:101FD00057068091E1008E7F8093E1008091E200BE
:101FE0008E7F8093E2008091E20080618093E20026
:101FF00080E060E042E027DE7AD1FF91EF91BF916F
:10200000AF919F918F917F916F915F914F913F9190
:102010002F910F900FBE0F901F9018951F93CF9385
:10202000DF93CDB7DEB7AC970FB6F894DEBF0FBE27
:10203000CDBF80E0ECE5F6E09091F10091938F5FE9
:102040008830D1F70E94C3038091E80083FF37C135
:1020500080915C0620915D06253009F484C026300D
:1020600040F42130A1F1213070F0233009F027C174
:102070002EC0283009F4F4C0293009F403C12630F9
:1020800009F01DC193C0803821F0823809F017C1D2
:1020900008C08091580690915906992371F082608A
:1020A0000CC0809160068F708093E9009091EB00E6
:1020B00081E095FF80E01092E9009091E800977F21
:1020C0009093E8008093F1001092F100D4C088232F
:1020D00019F0823009F0F3C090E08F719070009792
:1020E00029F08230910509F0EAC00BC080915E06AC
:1020F000813009F0E4C0233009F080E08093590674
:102100002CC080915E06882341F5209160062F70D7
:1021100009F4D5C02093E9008091EB0080FF1DC039
:1021200080915D06833021F48091EB00806213C0C2
:102130008091EB0080618093EB0081E090E002C031
:10214000880F991F2A95E2F78093EA001092EA001F
:102150008091EB0088608093EB001092E900809101
:10216000E800877F8BC0882309F0A9C010915E0624
:102170001F778091E3008078812B8093E30080912A
:10218000E800877F8093E800CFDD8091E80080FF42
:10219000FCCF8091E30080688093E300112311F06D
:1021A00083E001C082E080935B0689C08058823062
:1021B00008F085C080915E0690915F0623E08C3D1B
:1021C0009207A9F583E08C838AE28B835FB7F8944A
:1021D000DE01139680E090E04EE061E2E42FF0E053
:1021E00060935700E49180FF03C0E295EF704F5F6A
:1021F000EF702E2F30E0EA3018F0295C3F4F02C01C
:10220000205D3F4F13963C932E93129701961296A2
:102210008431910519F75FBF8091E800877F809333
:10222000E800CE0103966AE270E0F2DB13C0609131
:102230006006AE014F5F5F4F0E945F08BC010097D0
:1022400009F43DC08091E800877F8093E800898190
:102250009A8192DC8091E8008B778093E8002FC010
:10226000803869F58091E800877F8093E80080914D
:1022700057068093F1008091E8008E778093E80004
:1022800053DD1DC08823D9F490915E069230B8F4D6
:102290008091E800877F8093E8009093570644DDA3
:1022A00080915706882321F48091E30087FF02C0C4
:1022B00084E001C081E080935B060E94B4038091BA
:1022C000E80083FF0AC08091E800877F8093E800E0
:1022D0008091EB0080628093EB00AC960FB6F8948F
:1022E000DEBF0FBECDBFDF91CF911F91089508953E
:1022F000CF9380915B068823A9F08091E9008F70CD
:102300009091EC0090FF02C0C0E801C0C0E0C82B73
:102310001092E9008091E80083FF01C07FDECF705A
:10232000C093E900CF9108956F927F928F929F9210
:10233000AF92BF92CF92DF92EF92FF920F931F93D3
:10234000CF93DF9300D00F92CDB7DEB77C016DB68F
:102350007EB68091E80083FF0AC1F701808190E09A
:1023600020916006309161062817390709F0FFC0F7
:1023700080915D06833009F4A1C0843030F481304F
:1023800071F0823009F0F3C0D6C08A3009F4BBC0C6
:102390008B3009F4A4C0893009F0E9C051C08091A4
:1023A0005C06813A09F0E3C09DB68EB61B821A82A4
:1023B00080915E0600915F068983F70140858DB7A5
:1023C0009EB7841B91090FB6F8949EBF0FBE8DBFB8
:1023D000CDB6DEB60894C11CD11CBC2CAD2CC601F8
:1023E00060E070E050E053D3402F4150C701BE0180
:1023F0006F5F7F4F96018E010E5F1F4F0E94D303C8
:10240000F70186819781009721F04085B60150E061
:1024100035D31092E9008091E800877F8093E8002F
:102420008981882311F08093F1006A817B818B2D53
:102430009A2DEEDA8091E8008B778093E8003BC01C
:1024400080915C06813209F092C09DB68EB60091F3
:10245000620610916306C0905E06D0905F068DB74D
:102460009EB7801B910B0FB6F8949EBF0FBE8DBF19
:10247000ADB6BEB60894A11CB11C8091E800877F60
:102480008093E800C501B80129DB8091E8008E77D0
:102490008093E80081E090E0CC2011F480E090E0AF
:1024A0004D2D41509501280F391F081B190BC701ED
:1024B0006C2D0E94BA079DBE8EBE59C080915C06ED
:1024C000813A09F054C08091E800877F8093E8004A
:1024D0008091E80080FFFCCFF701818540C08091AA
:1024E0005C06813209F043C08091E800877F8093C9
:1024F000E8001ADC90915E0681E0992309F480E0FF
:10250000F701818734C080915C06813281F580912A
:10251000E800877F8093E80007DC80915E06909159
:102520005F06807036E0969587953A95E1F7F7015A
:10253000958784871CC080915C06813AC1F48091A4
:10254000E800877F8093E8008091E80080FFFCCF5F
:10255000F7018485958596958795969587958093BF
:10256000F1008091E8008E778093E800DDDB0FB604
:10257000F8947EBE0FBE6DBE0F900F900F90DF914E
:10258000CF911F910F91FF90EF90DF90CF90BF9070
:10259000AF909F908F907F906F900895CF93DF932F
:1025A000FC010996DC0187E0ED0119928A95E9F7B3
:1025B00081E0818784EF91E09587848783E084833D
:1025C000CF01019661E074DBDF91CF9108954F92C6
:1025D0005F926F927F928F929F92AF92BF92CF92B3
:1025E000DF92EF92FF920F931F93CF93DF9300D070
:1025F0000F92CDB7DEB77C014DB65EB680915B061B
:10260000843009F092C08091E4009091E500F701D8
:10261000228533852817390709F487C081818F7097
:102620008093E9008091E80085FF7FC07DB66EB69B
:1026300040858DB79EB7841B91090FB6F8949EBF55
:102640000FBE8DBF0DB71EB70F5F1F4F19821B82C4
:102650001A82B02EA12EC80160E070E050E017D2BF
:10266000C701BE016F5F7F4F40E098018E010E5F92
:102670001F4F0E94D303182FF7018485958500977B
:1026800059F081E090E0268537852115310511F05C
:1026900080E090E04C0102C088249924F701C680B4
:1026A000D780C114D10491F04A815B818B2D9A2D82
:1026B000B601D7D101E0009709F400E0F7014085A9
:1026C000C6016B2D7A2D50E0D9D101C000E08A817E
:1026D0009B81009709F1112329F4002319F4811437
:1026E0009104D1F0F701848595859787868781814C
:1026F0008F708093E9008981882311F08093F10025
:102700006A817B818B2D9A2D40E050E031D98091F8
:10271000E8008E778093E8008091E4009091E500D6
:10272000F701938782877DBE6EBE0FB6F8945EBEBA
:102730000FBE4DBE0F900F900F90DF91CF911F9164
:102740000F91FF90EF90DF90CF90BF90AF909F9050
:102750008F907F906F905F904F9008950CD0AEC097
:10276000A6D040F09DD030F021F45F3F19F08FC02B
:102770005111D8C092C0B3D098F39923C9F355230F
:10278000B1F3951B550BBB27AA2762177307840764
:1027900038F09F5F5F4F220F331F441FAA1FA9F31A
:1027A00033D00E2E3AF0E0E830D091505040E6950C
:1027B000001CCAF729D0FE2F27D0660F771F881F6D
:1027C000BB1F261737074807AB07B0E809F0BB0B5C
:1027D000802DBF01FF2793585F4F2AF09E3F510580
:1027E00068F055C09FC05F3FECF3983EDCF38695E0
:1027F00077956795B795F7959F5FC9F7880F911DF6
:102800009695879597F90895E1E0660F771F881FE1
:10281000BB1F621773078407BA0720F0621B730B94
:10282000840BBA0BEE1F88F7E095089504D06894E6
:10283000B11178C008955BD088F09F5790F0B92F00
:102840009927B751A0F0D1F0660F771F881F991F05
:102850001AF0BA95C9F712C0B13081F062D0B1E078
:1028600008955FC0672F782F8827B85F39F0B93F88
:10287000CCF3869577956795B395D9F73EF4909507
:102880008095709561957F4F8F4F9F4F089597F971
:102890009F6780E870E060E008959FEF80EC089506
:1028A00000240A941616170618060906089500242F
:1028B0000A9412161306140605060895092E0394A9
:1028C000000C11F4882352F0BB0F40F4BF2B11F41D
:1028D00060FF04C06F5F7F4F8F4F9F4F089557FD7C
:1028E0009058440F551F59F05F3F71F04795880F7E
:1028F00097FB991F61F09F3F79F087950895121615
:1029000013061406551FF2CF4695F1DF08C01616C0
:1029100017061806991FF1CF869571056105089471
:102920000895E894BB2766277727CB0197F9089588
:102930000BD0C4CFB5DF28F0BADF18F0952309F02B
:10294000A6CFABCF1124EECFCADFA0F3959FD1F372
:10295000950F50E0551F629FF001729FBB27F00D4D
:10296000B11D639FAA27F00DB11DAA1F649F6627A2
:10297000B00DA11D661F829F2227B00DA11D621FF1
:10298000739FB00DA11D621F839FA00D611D221FAB
:10299000749F3327A00D611D231F849F600D211D8F
:1029A000822F762F6A2F11249F5750408AF0E1F032
:1029B00088234AF0EE0FFF1FBB1F661F771F881F7B
:1029C00091505040A9F79E3F510570F060CFAACFBB
:1029D0005F3FECF3983EDCF3869577956795B79566
:1029E000F795E7959F5FC1F7FE2B880F911D969590
:1029F000879597F90895AA1BBB1B51E107C0AA1F31
:102A0000BB1FA617B70710F0A61BB70B881F991F8F
:102A10005A95A9F780959095BC01CD010895A1E242
:102A20001A2EAA1BBB1BFD010DC0AA1FBB1FEE1F48
:102A3000FF1FA217B307E407F50720F0A21BB30B93
:102A4000E40BF50B661F771F881F991F1A9469F70F
:102A500060957095809590959B01AC01BD01CF016B
:102A60000895FB01DC0104C08D910190801921F4CF
:102A700041505040C8F7881B990B0895FB01DC01B9
:102A800002C001900D9241505040D8F70895DC01EA
:102A900001C06D9341505040E0F70895F894FFCF86
:102AA0000100040006000700F9010A000000000010
:102AB0000000000000000000000000000000000016
:102AC0000000000000000000000000000000000006
:102AD00000000000000000000000000000000000F6
:102AE00000000000000000000000000000000000E6
:102AF00000000000000000000000000000000000D6
:102B000000000000000000000000000000000000C5
:102B100000000000000000000000000000000000B5
:102B200000000000000000000000000000000000A5
:102B300000000000000048430000484300004843F4
:102B4000000048430081080000014803FF00000026
:102B50000000000006000500040001000000E28003
:102B6000681000000039601197460F05100500003D
:102B70000000AD4606024660AF7960000068FE04C2
:102B8000FF0400000000AD46060246609378600036
:102B90000064F704F80400000000AD460602466039
:102BA000917560000065F704F80400000000E28001
:102BB000681000000039148C72E0ED04EE0400008F
:102BC0000000AD46060246609D7361000066ED049C
:102BD000EE0400000000AD4606024660A5786000E5
:102BE0000067E304E40400000000E28068100000D5
:102BF0000039148C72E3AB04AC0400000000AD4655
:102C000006024660E1786000006DC204C304000063
:102C10000000AD4606024660D57B6000006CB30440
:102C2000B40400000000AD4606024660CD756100A8
:102C3000006BB304B40400000000AD460602466019
:102C4000C3766100006A8304840400000000E2800F
:102C5000681000000039148C732AA604A704000031
:102C60000000E280681000000039148C732D93047A
:102C7000940400000000AD4606024660E97A600058
:102C8000006E9D049E0400000000C7050F06A4030B
:102C90002A292827262524232221201F28333E499C
:102CA000545F6A76818C97A2ADB8C3CFDAE5F0FBAA
:102CB000F9EFE5DBD1C7BEB4AAA0968C83796F6526
:102CC0005B52483E342A202021222324252627280F
:102CD000292B2C2DA120000000000200A1010000E2
:042CE00000000000F0
:00000001FF
